{
  "abi": [
    {
      "type": "constructor",
      "inputs": [
        {
          "name": "_rootRegistry",
          "type": "address",
          "internalType": "address"
        }
      ],
      "stateMutability": "nonpayable"
    },
    {
      "type": "function",
      "name": "CERTIFICATE_REGISTRY_ID",
      "inputs": [],
      "outputs": [
        {
          "name": "",
          "type": "bytes32",
          "internalType": "bytes32"
        }
      ],
      "stateMutability": "view"
    },
    {
      "type": "function",
      "name": "CIRCUIT_REGISTRY_ID",
      "inputs": [],
      "outputs": [
        {
          "name": "",
          "type": "bytes32",
          "internalType": "bytes32"
        }
      ],
      "stateMutability": "view"
    },
    {
      "type": "function",
      "name": "addCertificateRegistryRoot",
      "inputs": [
        {
          "name": "certificateRegistryRoot",
          "type": "bytes32",
          "internalType": "bytes32"
        }
      ],
      "outputs": [],
      "stateMutability": "nonpayable"
    },
    {
      "type": "function",
      "name": "addVerifiers",
      "inputs": [
        {
          "name": "vkeyHashes",
          "type": "bytes32[]",
          "internalType": "bytes32[]"
        },
        {
          "name": "verifiers",
          "type": "address[]",
          "internalType": "address[]"
        }
      ],
      "outputs": [],
      "stateMutability": "nonpayable"
    },
    {
      "type": "function",
      "name": "admin",
      "inputs": [],
      "outputs": [
        {
          "name": "",
          "type": "address",
          "internalType": "address"
        }
      ],
      "stateMutability": "view"
    },
    {
      "type": "function",
      "name": "getAgeProofInputs",
      "inputs": [
        {
          "name": "committedInputs",
          "type": "bytes",
          "internalType": "bytes"
        },
        {
          "name": "committedInputCounts",
          "type": "uint256[]",
          "internalType": "uint256[]"
        }
      ],
      "outputs": [
        {
          "name": "currentDate",
          "type": "uint256",
          "internalType": "uint256"
        },
        {
          "name": "minAge",
          "type": "uint8",
          "internalType": "uint8"
        },
        {
          "name": "maxAge",
          "type": "uint8",
          "internalType": "uint8"
        }
      ],
      "stateMutability": "pure"
    },
    {
      "type": "function",
      "name": "getBindProofInputs",
      "inputs": [
        {
          "name": "committedInputs",
          "type": "bytes",
          "internalType": "bytes"
        },
        {
          "name": "committedInputCounts",
          "type": "uint256[]",
          "internalType": "uint256[]"
        }
      ],
      "outputs": [
        {
          "name": "data",
          "type": "bytes",
          "internalType": "bytes"
        }
      ],
      "stateMutability": "pure"
    },
    {
      "type": "function",
      "name": "getBoundData",
      "inputs": [
        {
          "name": "data",
          "type": "bytes",
          "internalType": "bytes"
        }
      ],
      "outputs": [
        {
          "name": "senderAddress",
          "type": "address",
          "internalType": "address"
        },
        {
          "name": "customData",
          "type": "string",
          "internalType": "string"
        }
      ],
      "stateMutability": "pure"
    },
    {
      "type": "function",
      "name": "getCountryProofInputs",
      "inputs": [
        {
          "name": "committedInputs",
          "type": "bytes",
          "internalType": "bytes"
        },
        {
          "name": "committedInputCounts",
          "type": "uint256[]",
          "internalType": "uint256[]"
        },
        {
          "name": "proofType",
          "type": "uint8",
          "internalType": "enum ProofType"
        }
      ],
      "outputs": [
        {
          "name": "countryList",
          "type": "string[]",
          "internalType": "string[]"
        }
      ],
      "stateMutability": "pure"
    },
    {
      "type": "function",
      "name": "getDateProofInputs",
      "inputs": [
        {
          "name": "committedInputs",
          "type": "bytes",
          "internalType": "bytes"
        },
        {
          "name": "committedInputCounts",
          "type": "uint256[]",
          "internalType": "uint256[]"
        },
        {
          "name": "proofType",
          "type": "uint8",
          "internalType": "enum ProofType"
        }
      ],
      "outputs": [
        {
          "name": "currentDate",
          "type": "uint256",
          "internalType": "uint256"
        },
        {
          "name": "minDate",
          "type": "uint256",
          "internalType": "uint256"
        },
        {
          "name": "maxDate",
          "type": "uint256",
          "internalType": "uint256"
        }
      ],
      "stateMutability": "pure"
    },
    {
      "type": "function",
      "name": "getDiscloseProofInputs",
      "inputs": [
        {
          "name": "committedInputs",
          "type": "bytes",
          "internalType": "bytes"
        },
        {
          "name": "committedInputCounts",
          "type": "uint256[]",
          "internalType": "uint256[]"
        }
      ],
      "outputs": [
        {
          "name": "discloseMask",
          "type": "bytes",
          "internalType": "bytes"
        },
        {
          "name": "discloseBytes",
          "type": "bytes",
          "internalType": "bytes"
        }
      ],
      "stateMutability": "pure"
    },
    {
      "type": "function",
      "name": "getDisclosedData",
      "inputs": [
        {
          "name": "discloseBytes",
          "type": "bytes",
          "internalType": "bytes"
        },
        {
          "name": "isIDCard",
          "type": "bool",
          "internalType": "bool"
        }
      ],
      "outputs": [
        {
          "name": "name",
          "type": "string",
          "internalType": "string"
        },
        {
          "name": "issuingCountry",
          "type": "string",
          "internalType": "string"
        },
        {
          "name": "nationality",
          "type": "string",
          "internalType": "string"
        },
        {
          "name": "gender",
          "type": "string",
          "internalType": "string"
        },
        {
          "name": "birthDate",
          "type": "string",
          "internalType": "string"
        },
        {
          "name": "expiryDate",
          "type": "string",
          "internalType": "string"
        },
        {
          "name": "documentNumber",
          "type": "string",
          "internalType": "string"
        },
        {
          "name": "documentType",
          "type": "string",
          "internalType": "string"
        }
      ],
      "stateMutability": "pure"
    },
    {
      "type": "function",
      "name": "isValidCertificateRegistryRoot",
      "inputs": [
        {
          "name": "",
          "type": "bytes32",
          "internalType": "bytes32"
        }
      ],
      "outputs": [
        {
          "name": "",
          "type": "bool",
          "internalType": "bool"
        }
      ],
      "stateMutability": "view"
    },
    {
      "type": "function",
      "name": "paused",
      "inputs": [],
      "outputs": [
        {
          "name": "",
          "type": "bool",
          "internalType": "bool"
        }
      ],
      "stateMutability": "view"
    },
    {
      "type": "function",
      "name": "removeCertificateRegistryRoot",
      "inputs": [
        {
          "name": "certificateRegistryRoot",
          "type": "bytes32",
          "internalType": "bytes32"
        }
      ],
      "outputs": [],
      "stateMutability": "nonpayable"
    },
    {
      "type": "function",
      "name": "removeVerifiers",
      "inputs": [
        {
          "name": "vkeyHashes",
          "type": "bytes32[]",
          "internalType": "bytes32[]"
        }
      ],
      "outputs": [],
      "stateMutability": "nonpayable"
    },
    {
      "type": "function",
      "name": "rootRegistry",
      "inputs": [],
      "outputs": [
        {
          "name": "",
          "type": "address",
          "internalType": "contract IRootRegistry"
        }
      ],
      "stateMutability": "view"
    },
    {
      "type": "function",
      "name": "setPaused",
      "inputs": [
        {
          "name": "_paused",
          "type": "bool",
          "internalType": "bool"
        }
      ],
      "outputs": [],
      "stateMutability": "nonpayable"
    },
    {
      "type": "function",
      "name": "transferAdmin",
      "inputs": [
        {
          "name": "newAdmin",
          "type": "address",
          "internalType": "address"
        }
      ],
      "outputs": [],
      "stateMutability": "nonpayable"
    },
    {
      "type": "function",
      "name": "updateRootRegistry",
      "inputs": [
        {
          "name": "_rootRegistry",
          "type": "address",
          "internalType": "address"
        }
      ],
      "outputs": [],
      "stateMutability": "nonpayable"
    },
    {
      "type": "function",
      "name": "verifyProof",
      "inputs": [
        {
          "name": "params",
          "type": "tuple",
          "internalType": "struct ProofVerificationParams",
          "components": [
            {
              "name": "vkeyHash",
              "type": "bytes32",
              "internalType": "bytes32"
            },
            {
              "name": "proof",
              "type": "bytes",
              "internalType": "bytes"
            },
            {
              "name": "publicInputs",
              "type": "bytes32[]",
              "internalType": "bytes32[]"
            },
            {
              "name": "committedInputs",
              "type": "bytes",
              "internalType": "bytes"
            },
            {
              "name": "committedInputCounts",
              "type": "uint256[]",
              "internalType": "uint256[]"
            },
            {
              "name": "validityPeriodInDays",
              "type": "uint256",
              "internalType": "uint256"
            },
            {
              "name": "scope",
              "type": "string",
              "internalType": "string"
            },
            {
              "name": "subscope",
              "type": "string",
              "internalType": "string"
            },
            {
              "name": "devMode",
              "type": "bool",
              "internalType": "bool"
            }
          ]
        }
      ],
      "outputs": [
        {
          "name": "",
          "type": "bool",
          "internalType": "bool"
        },
        {
          "name": "",
          "type": "bytes32",
          "internalType": "bytes32"
        }
      ],
      "stateMutability": "view"
    },
    {
      "type": "function",
      "name": "verifyScopes",
      "inputs": [
        {
          "name": "publicInputs",
          "type": "bytes32[]",
          "internalType": "bytes32[]"
        },
        {
          "name": "scope",
          "type": "string",
          "internalType": "string"
        },
        {
          "name": "subscope",
          "type": "string",
          "internalType": "string"
        }
      ],
      "outputs": [
        {
          "name": "",
          "type": "bool",
          "internalType": "bool"
        }
      ],
      "stateMutability": "view"
    },
    {
      "type": "function",
      "name": "vkeyHashToVerifier",
      "inputs": [
        {
          "name": "",
          "type": "bytes32",
          "internalType": "bytes32"
        }
      ],
      "outputs": [
        {
          "name": "",
          "type": "address",
          "internalType": "address"
        }
      ],
      "stateMutability": "view"
    },
    {
      "type": "event",
      "name": "AdminUpdated",
      "inputs": [
        {
          "name": "oldAdmin",
          "type": "address",
          "indexed": true,
          "internalType": "address"
        },
        {
          "name": "newAdmin",
          "type": "address",
          "indexed": true,
          "internalType": "address"
        }
      ],
      "anonymous": false
    },
    {
      "type": "event",
      "name": "CertificateRegistryRootAdded",
      "inputs": [
        {
          "name": "certificateRegistryRoot",
          "type": "bytes32",
          "indexed": true,
          "internalType": "bytes32"
        }
      ],
      "anonymous": false
    },
    {
      "type": "event",
      "name": "CertificateRegistryRootRemoved",
      "inputs": [
        {
          "name": "certificateRegistryRoot",
          "type": "bytes32",
          "indexed": true,
          "internalType": "bytes32"
        }
      ],
      "anonymous": false
    },
    {
      "type": "event",
      "name": "PausedStatusChanged",
      "inputs": [
        {
          "name": "paused",
          "type": "bool",
          "indexed": false,
          "internalType": "bool"
        }
      ],
      "anonymous": false
    },
    {
      "type": "event",
      "name": "VerifierAdded",
      "inputs": [
        {
          "name": "vkeyHash",
          "type": "bytes32",
          "indexed": true,
          "internalType": "bytes32"
        },
        {
          "name": "verifier",
          "type": "address",
          "indexed": true,
          "internalType": "address"
        }
      ],
      "anonymous": false
    },
    {
      "type": "event",
      "name": "VerifierRemoved",
      "inputs": [
        {
          "name": "vkeyHash",
          "type": "bytes32",
          "indexed": true,
          "internalType": "bytes32"
        }
      ],
      "anonymous": false
    },
    {
      "type": "event",
      "name": "ZKPassportVerifierDeployed",
      "inputs": [
        {
          "name": "admin",
          "type": "address",
          "indexed": true,
          "internalType": "address"
        },
        {
          "name": "timestamp",
          "type": "uint256",
          "indexed": false,
          "internalType": "uint256"
        }
      ],
      "anonymous": false
    }
  ],
  "bytecode": {
    "object": "0x608060405234801561000f575f5ffd5b506040516132cf3803806132cf83398101604081905261002e916100f6565b6001600160a01b0381166100945760405162461bcd60e51b8152602060048201526024808201527f526f6f742072656769737472792063616e6e6f74206265207a65726f206164646044820152637265737360e01b606482015260840160405180910390fd5b5f8054336001600160a01b03199182168117909255600380549091166001600160a01b0384161790556040514281527ff29b53747ae7121d0958d490ad3d5cf6767119b0fdbd8389d918de3a12cf5a299060200160405180910390a250610123565b5f60208284031215610106575f5ffd5b81516001600160a01b038116811461011c575f5ffd5b9392505050565b61319f806101305f395ff3fe608060405234801561000f575f5ffd5b5060043610610148575f3560e01c806375829def116100bf578063b2b37a4c11610079578063b2b37a4c1461031a578063b96b161c1461034c578063d7bf616a1461035f578063ddf3eec914610389578063ec1374cd146103aa578063f851a440146103d8575f5ffd5b806375829def1461027b5780638163f2311461028e578063847755e3146102ce578063886c3533146102e15780638d6937b8146102f4578063a6df2c0114610307575f5ffd5b80633a316e62116101105780633a316e62146101e557806341a0e2c2146101f857806345e21c901461020e5780634601173c146102405780635c975abb146102605780636c40d5d614610273575f5ffd5b806303d37eae1461014c5780630af18ba61461017c578063126f75591461019d57806316c38b3c146101bd57806318677f2a146101d2575b5f5ffd5b61015f61015a3660046128cf565b6103ea565b60405161017398979695949392919061294f565b60405180910390f35b61018f61018a3660046129fc565b610955565b604051610173929190612a3a565b6101b06101ab366004612a9d565b610b1e565b6040516101739190612b21565b6101d06101cb366004612b84565b610d62565b005b6101d06101e0366004612ba6565b610de2565b6101d06101f3366004612bcc565b610e8f565b610200600181565b604051908152602001610173565b61023061021c366004612bcc565b60026020525f908152604090205460ff1681565b6040519015158152602001610173565b61025361024e366004612be3565b610efa565b6040516101739190612c4d565b5f5461023090600160a01b900460ff1681565b610200600281565b6101d0610289366004612ba6565b61126a565b6102b661029c366004612bcc565b60016020525f90815260409020546001600160a01b031681565b6040516001600160a01b039091168152602001610173565b6102306102dc366004612c5f565b611338565b6101d06102ef366004612bcc565b61150f565b6101d0610302366004612cfb565b611577565b6101d0610315366004612d2d565b611637565b61032d610328366004612be3565b611761565b6040805193845260ff9283166020850152911690820152606001610173565b6003546102b6906001600160a01b031681565b61037261036d366004612d61565b611918565b604080519215158352602083019190915201610173565b61039c610397366004612be3565b611cce565b604051610173929190612d98565b6103bd6103b8366004612a9d565b611e88565b60408051938452602084019290925290820152606001610173565b5f546102b6906001600160a01b031681565b606080606080606080606080886106a4578a60058b61040a826027612dd0565b9261041793929190612de3565b8080601f0160208091040260200160405190810160405280939291908181526020018383808284375f92019190915250929a508d9250600291508c905061045f826003612dd0565b9261046c93929190612de3565b8080601f0160208091040260200160405190810160405280939291908181526020018383808284375f920191909152509299508d9250603691508c90506104b4826003612dd0565b926104c193929190612de3565b8080601f0160208091040260200160405190810160405280939291908181526020018383808284375f920191909152509298508d9250604091508c9050610509826001612dd0565b9261051693929190612de3565b8080601f0160208091040260200160405190810160405280939291908181526020018383808284375f920191909152509297508d9250603991508c905061055e826006612dd0565b9261056b93929190612de3565b8080601f0160208091040260200160405190810160405280939291908181526020018383808284375f920191909152509296508d9250604191508c90506105b3826006612dd0565b926105c093929190612de3565b8080601f0160208091040260200160405190810160405280939291908181526020018383808284375f920191909152509295508d9250602c91508c9050610608826009612dd0565b9261061593929190612de3565b8080601f0160208091040260200160405190810160405280939291908181526020018383808284375f9201829052509395508e9392508d915061065b9050826002612dd0565b9261066893929190612de3565b8080601f0160208091040260200160405190810160405280939291908181526020018383808284375f9201919091525092935061094892505050565b8a603c8b6106b382601e612dd0565b926106c093929190612de3565b8080601f0160208091040260200160405190810160405280939291908181526020018383808284375f92019190915250929a508d9250600291508c9050610708826003612dd0565b9261071593929190612de3565b8080601f0160208091040260200160405190810160405280939291908181526020018383808284375f920191909152509299508d9250602d91508c905061075d826003612dd0565b9261076a93929190612de3565b8080601f0160208091040260200160405190810160405280939291908181526020018383808284375f920191909152509298508d9250602591508c90506107b2826001612dd0565b926107bf93929190612de3565b8080601f0160208091040260200160405190810160405280939291908181526020018383808284375f920191909152509297508d9250601e91508c9050610807826006612dd0565b9261081493929190612de3565b8080601f0160208091040260200160405190810160405280939291908181526020018383808284375f920191909152509296508d9250602691508c905061085c826006612dd0565b9261086993929190612de3565b8080601f0160208091040260200160405190810160405280939291908181526020018383808284375f920191909152509295508d9250600591508c90506108b1826009612dd0565b926108be93929190612de3565b8080601f0160208091040260200160405190810160405280939291908181526020018383808284375f9201829052509395508e9392508d91506109049050826002612dd0565b9261091193929190612de3565b8080601f0160208091040260200160405190810160405280939291908181526020018383808284375f920191909152509293505050505b9397509397509397509397565b5f6060815b6101f4811015610b1657600160f81b85858381811061097b5761097b612e1e565b9050013560f81c60f81b6001600160f81b03191603610a38575f85856109a2846001612dd0565b906109ae856003612dd0565b926109bb93929190612de3565b6109c491612e32565b60f01c905085856109d6846003612dd0565b9061ffff84166109e7866003612dd0565b6109f19190612dd0565b926109fe93929190612de3565b610a0791612e6a565b60601c9350610a17816002612eaa565b610a22906001612eaa565b610a309061ffff1683612dd0565b91505061095a565b600160f91b858583818110610a4f57610a4f612e1e565b9050013560f81c60f81b6001600160f81b03191603610b16575f8585610a76846001612dd0565b90610a82856003612dd0565b92610a8f93929190612de3565b610a9891612e32565b60f01c90508585610aaa846003612dd0565b9061ffff8416610abb866003612dd0565b610ac59190612dd0565b92610ad293929190612de3565b8080601f0160208091040260200160405190810160405280939291908181526020018383808284375f92019190915250929550610a17925083915060029050612eaa565b509250929050565b60605f80805b85811015610d0457868682818110610b3e57610b3e612e1e565b90506020020135610259148015610b975750846008811115610b6257610b62612e0a565b60f81b6001600160f81b031916898985818110610b8157610b81612e1e565b9050013560f81c60f81b6001600160f81b031916145b15610cd6576040805160c8808252611920820190925290816020015b6060815260200190600190039081610bb35790505093505f5b60c8811015610cd0578989610be2836003612ed8565b610bec9087612dd0565b610bf7906001612dd0565b818110610c0657610c06612e1e565b909101356001600160f81b031916159050610cd0578989610c28836003612ed8565b610c329087612dd0565b610c3d906001612dd0565b90610c49846003612ed8565b610c539088612dd0565b610c5e906003612dd0565b610c69906001612dd0565b92610c7693929190612de3565b8080601f0160208091040260200160405190810160405280939291908181526020018383808284375f920191909152505087518892508491508110610cbd57610cbd612e1e565b6020908102919091010152600101610bcc565b50600191505b868682818110610ce857610ce8612e1e565b9050602002013583610cfa9190612dd0565b9250600101610b24565b5080610d575760405162461bcd60e51b815260206004820152601e60248201527f436f756e7472792070726f6f6620696e70757473206e6f7420666f756e64000060448201526064015b60405180910390fd5b505095945050505050565b5f546001600160a01b03163314610d8b5760405162461bcd60e51b8152600401610d4e90612eef565b5f8054821515600160a01b0260ff60a01b199091161790556040517f9a506b30e47f3823b09f67e4c0dfa5c3d8023b71825b7ceaa97677129128c9c590610dd790831515815260200190565b60405180910390a150565b5f546001600160a01b03163314610e0b5760405162461bcd60e51b8152600401610d4e90612eef565b6001600160a01b038116610e6d5760405162461bcd60e51b8152602060048201526024808201527f526f6f742072656769737472792063616e6e6f74206265207a65726f206164646044820152637265737360e01b6064820152608401610d4e565b600380546001600160a01b0319166001600160a01b0392909216919091179055565b5f546001600160a01b03163314610eb85760405162461bcd60e51b8152600401610d4e90612eef565b5f81815260026020526040808220805460ff191660011790555182917f28b645e250fa5c9d240590b408225ec310e29b861312e75a76b0d55f7d927a2f91a250565b60605f80805b8481101561121257858582818110610f1a57610f1a612e1e565b905060200201356101f5036111e457600160fb1b888885818110610f4057610f40612e1e565b9050013560f81c60f81b6001600160f81b03191614610f715760405162461bcd60e51b8152600401610d4e90612f26565b5f5b6101f48110156110a357600160f81b898983610f90886001612dd0565b610f9a9190612dd0565b818110610fa957610fa9612e1e565b9050013560f81c60f81b6001600160f81b0319160361104f575f898983610fd1886001612dd0565b610fdb9190612dd0565b610fe6906001612dd0565b9084610ff3896001612dd0565b610ffd9190612dd0565b611008906003612dd0565b9261101593929190612de3565b61101e91612e32565b60f01c905061102e816002612eaa565b611039906001612eaa565b6110479061ffff1683612dd0565b915050610f73565b600160f91b898983611062886001612dd0565b61106c9190612dd0565b81811061107b5761107b612e1e565b9050013560f81c60f81b6001600160f81b031916036110a3575f898983610fd1886001612dd0565b5f811180156110b457506101f48111155b6110f65760405162461bcd60e51b8152602060048201526013602482015272092dcecc2d8d2c840c8c2e8c240d8cadccee8d606b1b6044820152606401610d4e565b805b6101f481101561118057898982611110886001612dd0565b61111a9190612dd0565b81811061112957611129612e1e565b909101356001600160f81b0319161590506111785760405162461bcd60e51b815260206004820152600f60248201526e496e76616c69642070616464696e6760881b6044820152606401610d4e565b6001016110f8565b50888861118e866001612dd0565b9061119b876101f5612dd0565b926111a893929190612de3565b8080601f0160208091040260200160405190810160405280939291908181526020018383808284375f9201919091525092975060019550505050505b8585828181106111f6576111f6612e1e565b90506020020135836112089190612dd0565b9250600101610f00565b50806112605760405162461bcd60e51b815260206004820181905260248201527f42696e6420646174612070726f6f6620696e70757473206e6f7420666f756e646044820152606401610d4e565b5050949350505050565b5f546001600160a01b031633146112935760405162461bcd60e51b8152600401610d4e90612eef565b6001600160a01b0381166112e95760405162461bcd60e51b815260206004820152601c60248201527f41646d696e2063616e6e6f74206265207a65726f2061646472657373000000006044820152606401610d4e565b5f80546001600160a01b038381166001600160a01b0319831681178455604051919092169283917f101b8081ff3b56bbf45deb824d86a3b0fd38b7e3dd42421105cf8abe9106db0b9190a35050565b5f5f61134346611fe2565b90505f61138487878080601f0160208091040260200160405190810160405280939291908181526020018383808284375f920191909152506120e692505050565b61140057600860028888856040516020016113a193929190612f69565b60408051601f19818403018152908290526113bb91612f8b565b602060405180830381855afa1580156113d6573d5f5f3e3d5ffd5b5050506040513d601f19601f820116820180604052508101906113f99190612f96565b901c611402565b5f5b90505f61144386868080601f0160208091040260200160405190810160405280939291908181526020018383808284375f920191909152506120e692505050565b6114bd5760086002878760405160200161145e929190612fad565b60408051601f198184030181529082905261147891612f8b565b602060405180830381855afa158015611493573d5f5f3e3d5ffd5b5050506040513d601f19601f820116820180604052508101906114b69190612f96565b901c6114bf565b5f5b9050818a8a60098181106114d5576114d5612e1e565b905060200201351480156115015750808a8a600a8181106114f8576114f8612e1e565b90506020020135145b9a9950505050505050505050565b5f546001600160a01b031633146115385760405162461bcd60e51b8152600401610d4e90612eef565b5f81815260026020526040808220805460ff191690555182917fc4da3a189adfa305afb4c073f96be9bd96f1ebea4e42a5e7e2e98818509a682791a250565b5f546001600160a01b031633146115a05760405162461bcd60e51b8152600401610d4e90612eef565b5f5b818110156116325760015f8484848181106115bf576115bf612e1e565b602090810292909201358352508101919091526040015f2080546001600160a01b03191690558282828181106115f7576115f7612e1e565b905060200201357f6fdcbcf8f91bc23f2c9dcfe8fe01d80d1b1afbbf207298e94c0171ccc587424c60405160405180910390a26001016115a2565b505050565b5f546001600160a01b031633146116605760405162461bcd60e51b8152600401610d4e90612eef565b5f5b8381101561175a5782828281811061167c5761167c612e1e565b90506020020160208101906116919190612ba6565b60015f8787858181106116a6576116a6612e1e565b9050602002013581526020019081526020015f205f6101000a8154816001600160a01b0302191690836001600160a01b031602179055508282828181106116ef576116ef612e1e565b90506020020160208101906117049190612ba6565b6001600160a01b031685858381811061171f5761171f612e1e565b905060200201357f636107338a3eb46f1f60562462f3ec11393d35fbc965991aaade3b9e7d89c3f560405160405180910390a3600101611662565b5050505050565b5f80808080805b868110156118be5787878281811061178257611782612e1e565b90506020020135600b0361189057600160f81b8a8a858181106117a7576117a7612e1e565b9050013560f81c60f81b6001600160f81b031916146117d85760405162461bcd60e51b8152600401610d4e90612f26565b61183a8a8a6117e8866001612dd0565b906117f4876009612dd0565b9261180193929190612de3565b8080601f0160208091040260200160405190810160405280939291908181526020018383808284375f920191909152506120eb92505050565b95508989611849856009612dd0565b81811061185857611858612e1e565b919091013560f81c95508a90508961187185600a612dd0565b81811061188057611880612e1e565b919091013560f81c945060019250505b8787828181106118a2576118a2612e1e565b90506020020135836118b49190612dd0565b9250600101611768565b508061190c5760405162461bcd60e51b815260206004820152601a60248201527f4167652070726f6f6620696e70757473206e6f7420666f756e640000000000006044820152606401610d4e565b50509450945094915050565b5f80548190600160a01b900460ff16156119695760405162461bcd60e51b815260206004820152601260248201527110dbdb9d1c9858dd081a5cc81c185d5cd95960721b6044820152606401610d4e565b5f61197484356123fa565b90505f60106119866040870187612fbc565b611991929150613001565b90506119bf6119a36040870187612fbc565b5f8181106119b3576119b3612e1e565b90506020020135612459565b611a096119cf6040870187612fbc565b808060200260200160405190810160405280939291908181526020018383602002808284375f9201919091525050505060a087013561253b565b611a555760405162461bcd60e51b815260206004820181905260248201527f50726f6f662065787069726564206f72206461746520697320696e76616c69646044820152606401610d4e565b611a7f611a656040870187612fbc565b611a7260c0890189613014565b6102dc60e08b018b613014565b611abc5760405162461bcd60e51b815260206004820152600e60248201526d496e76616c69642073636f70657360901b6044820152606401610d4e565b611b68611acc6040870187612fbc565b600b90611ada600186613001565b92611ae793929190613056565b808060200260200160405190810160405280939291908181526020018383602002808284375f92019190915250611b25925050506060880188613014565b611b3260808a018a612fbc565b808060200260200160405190810160405280939291908181526020018383602002808284375f920191909152506125cf92505050565b5f611b766040870187612fbc565b611b81600185613001565b818110611b9057611b90612e1e565b90506020020135141580611bb15750611bb161012086016101008701612b84565b611c0e5760405162461bcd60e51b815260206004820152602860248201527f4d6f636b2070726f6f667320617265206f6e6c7920616c6c6f77656420696e20604482015267646576206d6f646560c01b6064820152608401610d4e565b6001600160a01b03821663ea50d0e4611c2a6020880188613014565b611c3760408a018a612fbc565b6040518563ffffffff1660e01b8152600401611c569493929190613081565b602060405180830381865afa158015611c71573d5f5f3e3d5ffd5b505050506040513d601f19601f82011682018060405250810190611c9591906130e3565b611ca26040870187612fbc565b611cad600185613001565b818110611cbc57611cbc612e1e565b90506020020135935093505050915091565b6060805f80805b85811015611e2f57868682818110611cef57611cef612e1e565b9050602002013560b503611e01575f898985818110611d1057611d10612e1e565b9050013560f81c60f81b6001600160f81b03191614611d415760405162461bcd60e51b8152600401610d4e90612f26565b8888611d4e856001612dd0565b90611d5a86605b612dd0565b92611d6793929190612de3565b8080601f0160208091040260200160405190810160405280939291908181526020018383808284375f920191909152509297508b92508a9150611dad905085605b612dd0565b90611db98660b5612dd0565b92611dc693929190612de3565b8080601f0160208091040260200160405190810160405280939291908181526020018383808284375f92019190915250929650600194505050505b868682818110611e1357611e13612e1e565b9050602002013583611e259190612dd0565b9250600101611cd5565b5080611e7d5760405162461bcd60e51b815260206004820152601f60248201527f446973636c6f73652070726f6f6620696e70757473206e6f7420666f756e64006044820152606401610d4e565b505094509492505050565b5f80808080805b87811015611f8757888882818110611ea957611ea9612e1e565b905060200201356019148015611f015750866008811115611ecc57611ecc612e0a565b60f81b6001600160f81b0319168b8b85818110611eeb57611eeb612e1e565b9050013560f81c60f81b6001600160f81b031916145b15611f5957611f168b8b6117e8866001612dd0565b9550611f348b8b611f28866009612dd0565b906117f4876011612dd0565b9450611f528b8b611f46866011612dd0565b906117f4876019612dd0565b9350600191505b888882818110611f6b57611f6b612e1e565b9050602002013583611f7d9190612dd0565b9250600101611e8f565b5080611fd55760405162461bcd60e51b815260206004820152601b60248201527f446174652070726f6f6620696e70757473206e6f7420666f756e6400000000006044820152606401610d4e565b5050955095509592505050565b6060815f036120085750506040805180820190915260018152600360fc1b602082015290565b815f5b8115612031578061201b816130fe565b915061202a9050600a8361312a565b915061200b565b5f816001600160401b0381111561204a5761204a612ec4565b6040519080825280601f01601f191660200182016040528015612074576020820181803683370190505b5090505b84156120de57612089600183613001565b9150612096600a8661313d565b6120a1906030612dd0565b60f81b8183815181106120b6576120b6612e1e565b60200101906001600160f81b03191690815f1a9053506120d7600a8661312a565b9450612078565b949350505050565b511590565b604080518082019091526008815267313131313131313160c01b6020918201528151908201205f907fc21a5c94d030b6b0ea6834442967d237d4cc49a2b74bbb3846572bb3c8021a300161214057505f919050565b5f61216b8360038151811061215757612157612e1e565b01602001516001600160f81b031916612718565b6121818460028151811061215757612157612e1e565b61218c90600a612ed8565b6121a28560018151811061215757612157612e1e565b6121ad906064612ed8565b6121c2865f8151811061215757612157612e1e565b6121ce906103e8612ed8565b6121d89190612dd0565b6121e29190612dd0565b6121ec9190612dd0565b90505f6122058460058151811061215757612157612e1e565b61221b8560048151811061215757612157612e1e565b61222690600a612ed8565b6122309190612dd0565b90505f6122498560078151811061215757612157612e1e565b61225f8660068151811061215757612157612e1e565b61226a90600a612ed8565b6122749190612dd0565b90506107b28310156122c15760405162461bcd60e51b81526020600482015260166024820152750b2cac2e440c4caccdee4ca40aa9c92b040cae0dec6d60531b6044820152606401610d4e565b600182101580156122d35750600c8211155b61230f5760405162461bcd60e51b815260206004820152600d60248201526c092dcecc2d8d2c840dadedce8d609b1b6044820152606401610d4e565b6001811015801561232957506123258284612731565b8111155b6123635760405162461bcd60e51b815260206004820152600b60248201526a496e76616c69642064617960a81b6044820152606401610d4e565b5f6107b25b848110156123a157612379816127e4565b6123855761016d612389565b61016e5b6123979061ffff1683612dd0565b9150600101612368565b5060015b838110156123cb576123b78186612731565b6123c19083612dd0565b91506001016123a5565b506123d7600183613001565b6123e19082612dd0565b90506123f06201518082612ed8565b9695505050505050565b5f818152600160205260408120546001600160a01b0316806124535760405162461bcd60e51b815260206004820152601260248201527115995c9a599a595c881b9bdd08199bdd5b9960721b6044820152606401610d4e565b92915050565b5f8181526002602052604090205460ff16806124e257506003546040516383578c1160e01b815260016004820152602481018390526001600160a01b03909116906383578c1190604401602060405180830381865afa1580156124be573d5f5f3e3d5ffd5b505050506040513d601f19601f820116820180604052508101906124e291906130e3565b6125385760405162461bcd60e51b815260206004820152602160248201527f496e76616c696420636572746966696361746520726567697374727920726f6f6044820152601d60fa1b6064820152608401610d4e565b50565b6040805160088082528183019092525f9182919060208201818036833701905050905060015b60098110156125c45760f885828151811061257e5761257e612e1e565b6020026020010151901b826001836125969190613001565b815181106125a6576125a6612e1e565b60200101906001600160f81b03191690815f1a905350600101612561565b506120de8184612834565b5f805b8251811015612710575f60086002878786908887815181106125f6576125f6612e1e565b6020026020010151886126099190612dd0565b9261261693929190612de3565b604051602001612627929190612fad565b60408051601f198184030181529082905261264191612f8b565b602060405180830381855afa15801561265c573d5f5f3e3d5ffd5b5050506040513d601f19601f8201168201806040525081019061267f9190612f96565b901c905086828151811061269557612695612e1e565b602002602001015181146126e05760405162461bcd60e51b8152602060048201526012602482015271125b9d985b1a590818dbdb5b5a5d1b595b9d60721b6044820152606401610d4e565b8382815181106126f2576126f2612e1e565b6020026020010151836127059190612dd0565b9250506001016125d2565b505050505050565b5f612728603060f884901c613150565b60ff1692915050565b5f600183101580156127445750600c8311155b6127805760405162461bcd60e51b815260206004820152600d60248201526c092dcecc2d8d2c840dadedce8d609b1b6044820152606401610d4e565b826002036127a957612791826127e4565b61279c57601c61279f565b601d5b60ff169050612453565b82600414806127b85750826006145b806127c35750826009145b806127ce575082600b145b156127db5750601e612453565b50601f92915050565b5f6127f060048361313d565b156127fc57505f919050565b61280760648361313d565b1561281457506001919050565b6128206101908361313d565b1561282c57505f919050565b506001919050565b5f5f61283f846120eb565b90505f61284f6201518085612ed8565b6128599083612dd0565b905081421015801561286a57508181115b801561287557504281115b95945050505050565b5f5f83601f84011261288e575f5ffd5b5081356001600160401b038111156128a4575f5ffd5b6020830191508360208285010111156128bb575f5ffd5b9250929050565b8015158114612538575f5ffd5b5f5f5f604084860312156128e1575f5ffd5b83356001600160401b038111156128f6575f5ffd5b6129028682870161287e565b9094509250506020840135612916816128c2565b809150509250925092565b5f81518084528060208401602086015e5f602082860101526020601f19601f83011685010191505092915050565b61010081525f61296361010083018b612921565b8281036020840152612975818b612921565b90508281036040840152612989818a612921565b9050828103606084015261299d8189612921565b905082810360808401526129b18188612921565b905082810360a08401526129c58187612921565b905082810360c08401526129d98186612921565b905082810360e08401526129ed8185612921565b9b9a5050505050505050505050565b5f5f60208385031215612a0d575f5ffd5b82356001600160401b03811115612a22575f5ffd5b612a2e8582860161287e565b90969095509350505050565b6001600160a01b03831681526040602082018190525f906120de90830184612921565b5f5f83601f840112612a6d575f5ffd5b5081356001600160401b03811115612a83575f5ffd5b6020830191508360208260051b85010111156128bb575f5ffd5b5f5f5f5f5f60608688031215612ab1575f5ffd5b85356001600160401b03811115612ac6575f5ffd5b612ad28882890161287e565b90965094505060208601356001600160401b03811115612af0575f5ffd5b612afc88828901612a5d565b909450925050604086013560098110612b13575f5ffd5b809150509295509295909350565b5f602082016020835280845180835260408501915060408160051b8601019250602086015f5b82811015612b7857603f19878603018452612b63858351612921565b94506020938401939190910190600101612b47565b50929695505050505050565b5f60208284031215612b94575f5ffd5b8135612b9f816128c2565b9392505050565b5f60208284031215612bb6575f5ffd5b81356001600160a01b0381168114612b9f575f5ffd5b5f60208284031215612bdc575f5ffd5b5035919050565b5f5f5f5f60408587031215612bf6575f5ffd5b84356001600160401b03811115612c0b575f5ffd5b612c178782880161287e565b90955093505060208501356001600160401b03811115612c35575f5ffd5b612c4187828801612a5d565b95989497509550505050565b602081525f612b9f6020830184612921565b5f5f5f5f5f5f60608789031215612c74575f5ffd5b86356001600160401b03811115612c89575f5ffd5b612c9589828a01612a5d565b90975095505060208701356001600160401b03811115612cb3575f5ffd5b612cbf89828a0161287e565b90955093505060408701356001600160401b03811115612cdd575f5ffd5b612ce989828a0161287e565b979a9699509497509295939492505050565b5f5f60208385031215612d0c575f5ffd5b82356001600160401b03811115612d21575f5ffd5b612a2e85828601612a5d565b5f5f5f5f60408587031215612d40575f5ffd5b84356001600160401b03811115612d55575f5ffd5b612c1787828801612a5d565b5f60208284031215612d71575f5ffd5b81356001600160401b03811115612d86575f5ffd5b82016101208185031215612b9f575f5ffd5b604081525f612daa6040830185612921565b82810360208401526128758185612921565b634e487b7160e01b5f52601160045260245ffd5b8082018082111561245357612453612dbc565b5f5f85851115612df1575f5ffd5b83861115612dfd575f5ffd5b5050820193919092039150565b634e487b7160e01b5f52602160045260245ffd5b634e487b7160e01b5f52603260045260245ffd5b80356001600160f01b03198116906002841015612e63576001600160f01b0319600285900360031b81901b82161691505b5092915050565b80356bffffffffffffffffffffffff198116906014841015612e63576bffffffffffffffffffffffff1960149490940360031b84901b1690921692915050565b61ffff818116838216019081111561245357612453612dbc565b634e487b7160e01b5f52604160045260245ffd5b808202811582820484141761245357612453612dbc565b6020808252601a908201527f4e6f7420617574686f72697a65643a2061646d696e206f6e6c79000000000000604082015260600190565b602080825260129082015271496e76616c69642070726f6f66207479706560701b604082015260600190565b5f81518060208401855e5f93019283525090919050565b828482375f838201663a636861696e2d60c81b81526123f06007820185612f52565b5f612b9f8284612f52565b5f60208284031215612fa6575f5ffd5b5051919050565b818382375f9101908152919050565b5f5f8335601e19843603018112612fd1575f5ffd5b8301803591506001600160401b03821115612fea575f5ffd5b6020019150600581901b36038213156128bb575f5ffd5b8181038181111561245357612453612dbc565b5f5f8335601e19843603018112613029575f5ffd5b8301803591506001600160401b03821115613042575f5ffd5b6020019150368190038213156128bb575f5ffd5b5f5f85851115613064575f5ffd5b83861115613070575f5ffd5b5050600583901b0193919092039150565b60408152836040820152838560608301375f60608583018101829052601f19601f8701168301838103820160208501529081018490526001600160fb1b038411156130ca575f5ffd5b8360051b80866080840137016080019695505050505050565b5f602082840312156130f3575f5ffd5b8151612b9f816128c2565b5f6001820161310f5761310f612dbc565b5060010190565b634e487b7160e01b5f52601260045260245ffd5b5f8261313857613138613116565b500490565b5f8261314b5761314b613116565b500690565b60ff828116828216039081111561245357612453612dbc56fea2646970667358221220877a02c6a514de8041adb14e21ebcb6033045780c0165a0d433aff4059637e1f64736f6c634300081d0033",
    "linkReferences": {}
  },
  "methodIdentifiers": {
    "CERTIFICATE_REGISTRY_ID()": "41a0e2c2",
    "CIRCUIT_REGISTRY_ID()": "6c40d5d6",
    "addCertificateRegistryRoot(bytes32)": "3a316e62",
    "addVerifiers(bytes32[],address[])": "a6df2c01",
    "admin()": "f851a440",
    "getAgeProofInputs(bytes,uint256[])": "b2b37a4c",
    "getBindProofInputs(bytes,uint256[])": "4601173c",
    "getBoundData(bytes)": "0af18ba6",
    "getCountryProofInputs(bytes,uint256[],uint8)": "126f7559",
    "getDateProofInputs(bytes,uint256[],uint8)": "ec1374cd",
    "getDiscloseProofInputs(bytes,uint256[])": "ddf3eec9",
    "getDisclosedData(bytes,bool)": "03d37eae",
    "isValidCertificateRegistryRoot(bytes32)": "45e21c90",
    "paused()": "5c975abb",
    "removeCertificateRegistryRoot(bytes32)": "886c3533",
    "removeVerifiers(bytes32[])": "8d6937b8",
    "rootRegistry()": "b96b161c",
    "setPaused(bool)": "16c38b3c",
    "transferAdmin(address)": "75829def",
    "updateRootRegistry(address)": "18677f2a",
    "verifyProof((bytes32,bytes,bytes32[],bytes,uint256[],uint256,string,string,bool))": "d7bf616a",
    "verifyScopes(bytes32[],string,string)": "847755e3",
    "vkeyHashToVerifier(bytes32)": "8163f231"
  },
  "id": 27
}