{
  "abi": [
    {
      "type": "constructor",
      "inputs": [
        {
          "name": "_rootRegistry",
          "type": "address",
          "internalType": "address"
        }
      ],
      "stateMutability": "nonpayable"
    },
    {
      "type": "function",
      "name": "CERTIFICATE_REGISTRY_ID",
      "inputs": [],
      "outputs": [
        {
          "name": "",
          "type": "bytes32",
          "internalType": "bytes32"
        }
      ],
      "stateMutability": "view"
    },
    {
      "type": "function",
      "name": "CIRCUIT_REGISTRY_ID",
      "inputs": [],
      "outputs": [
        {
          "name": "",
          "type": "bytes32",
          "internalType": "bytes32"
        }
      ],
      "stateMutability": "view"
    },
    {
      "type": "function",
      "name": "addCertificateRegistryRoot",
      "inputs": [
        {
          "name": "certificateRegistryRoot",
          "type": "bytes32",
          "internalType": "bytes32"
        }
      ],
      "outputs": [],
      "stateMutability": "nonpayable"
    },
    {
      "type": "function",
      "name": "addVerifiers",
      "inputs": [
        {
          "name": "vkeyHashes",
          "type": "bytes32[]",
          "internalType": "bytes32[]"
        },
        {
          "name": "verifiers",
          "type": "address[]",
          "internalType": "address[]"
        }
      ],
      "outputs": [],
      "stateMutability": "nonpayable"
    },
    {
      "type": "function",
      "name": "admin",
      "inputs": [],
      "outputs": [
        {
          "name": "",
          "type": "address",
          "internalType": "address"
        }
      ],
      "stateMutability": "view"
    },
    {
      "type": "function",
      "name": "getAgeProofInputs",
      "inputs": [
        {
          "name": "committedInputs",
          "type": "bytes",
          "internalType": "bytes"
        },
        {
          "name": "committedInputCounts",
          "type": "uint256[]",
          "internalType": "uint256[]"
        }
      ],
      "outputs": [
        {
          "name": "currentDate",
          "type": "uint256",
          "internalType": "uint256"
        },
        {
          "name": "minAge",
          "type": "uint8",
          "internalType": "uint8"
        },
        {
          "name": "maxAge",
          "type": "uint8",
          "internalType": "uint8"
        }
      ],
      "stateMutability": "pure"
    },
    {
      "type": "function",
      "name": "getBindProofInputs",
      "inputs": [
        {
          "name": "committedInputs",
          "type": "bytes",
          "internalType": "bytes"
        },
        {
          "name": "committedInputCounts",
          "type": "uint256[]",
          "internalType": "uint256[]"
        }
      ],
      "outputs": [
        {
          "name": "data",
          "type": "bytes",
          "internalType": "bytes"
        }
      ],
      "stateMutability": "pure"
    },
    {
      "type": "function",
      "name": "getBoundData",
      "inputs": [
        {
          "name": "data",
          "type": "bytes",
          "internalType": "bytes"
        }
      ],
      "outputs": [
        {
          "name": "senderAddress",
          "type": "address",
          "internalType": "address"
        },
        {
          "name": "customData",
          "type": "string",
          "internalType": "string"
        }
      ],
      "stateMutability": "pure"
    },
    {
      "type": "function",
      "name": "getCountryProofInputs",
      "inputs": [
        {
          "name": "committedInputs",
          "type": "bytes",
          "internalType": "bytes"
        },
        {
          "name": "committedInputCounts",
          "type": "uint256[]",
          "internalType": "uint256[]"
        },
        {
          "name": "proofType",
          "type": "uint8",
          "internalType": "enum ProofType"
        }
      ],
      "outputs": [
        {
          "name": "countryList",
          "type": "string[]",
          "internalType": "string[]"
        }
      ],
      "stateMutability": "pure"
    },
    {
      "type": "function",
      "name": "getDateProofInputs",
      "inputs": [
        {
          "name": "committedInputs",
          "type": "bytes",
          "internalType": "bytes"
        },
        {
          "name": "committedInputCounts",
          "type": "uint256[]",
          "internalType": "uint256[]"
        },
        {
          "name": "proofType",
          "type": "uint8",
          "internalType": "enum ProofType"
        }
      ],
      "outputs": [
        {
          "name": "currentDate",
          "type": "uint256",
          "internalType": "uint256"
        },
        {
          "name": "minDate",
          "type": "uint256",
          "internalType": "uint256"
        },
        {
          "name": "maxDate",
          "type": "uint256",
          "internalType": "uint256"
        }
      ],
      "stateMutability": "pure"
    },
    {
      "type": "function",
      "name": "getDiscloseProofInputs",
      "inputs": [
        {
          "name": "committedInputs",
          "type": "bytes",
          "internalType": "bytes"
        },
        {
          "name": "committedInputCounts",
          "type": "uint256[]",
          "internalType": "uint256[]"
        }
      ],
      "outputs": [
        {
          "name": "discloseMask",
          "type": "bytes",
          "internalType": "bytes"
        },
        {
          "name": "discloseBytes",
          "type": "bytes",
          "internalType": "bytes"
        }
      ],
      "stateMutability": "pure"
    },
    {
      "type": "function",
      "name": "getDisclosedData",
      "inputs": [
        {
          "name": "discloseBytes",
          "type": "bytes",
          "internalType": "bytes"
        },
        {
          "name": "isIDCard",
          "type": "bool",
          "internalType": "bool"
        }
      ],
      "outputs": [
        {
          "name": "name",
          "type": "string",
          "internalType": "string"
        },
        {
          "name": "issuingCountry",
          "type": "string",
          "internalType": "string"
        },
        {
          "name": "nationality",
          "type": "string",
          "internalType": "string"
        },
        {
          "name": "gender",
          "type": "string",
          "internalType": "string"
        },
        {
          "name": "birthDate",
          "type": "string",
          "internalType": "string"
        },
        {
          "name": "expiryDate",
          "type": "string",
          "internalType": "string"
        },
        {
          "name": "documentNumber",
          "type": "string",
          "internalType": "string"
        },
        {
          "name": "documentType",
          "type": "string",
          "internalType": "string"
        }
      ],
      "stateMutability": "pure"
    },
    {
      "type": "function",
      "name": "isValidCertificateRegistryRoot",
      "inputs": [
        {
          "name": "",
          "type": "bytes32",
          "internalType": "bytes32"
        }
      ],
      "outputs": [
        {
          "name": "",
          "type": "bool",
          "internalType": "bool"
        }
      ],
      "stateMutability": "view"
    },
    {
      "type": "function",
      "name": "paused",
      "inputs": [],
      "outputs": [
        {
          "name": "",
          "type": "bool",
          "internalType": "bool"
        }
      ],
      "stateMutability": "view"
    },
    {
      "type": "function",
      "name": "removeCertificateRegistryRoot",
      "inputs": [
        {
          "name": "certificateRegistryRoot",
          "type": "bytes32",
          "internalType": "bytes32"
        }
      ],
      "outputs": [],
      "stateMutability": "nonpayable"
    },
    {
      "type": "function",
      "name": "removeVerifiers",
      "inputs": [
        {
          "name": "vkeyHashes",
          "type": "bytes32[]",
          "internalType": "bytes32[]"
        }
      ],
      "outputs": [],
      "stateMutability": "nonpayable"
    },
    {
      "type": "function",
      "name": "rootRegistry",
      "inputs": [],
      "outputs": [
        {
          "name": "",
          "type": "address",
          "internalType": "contract IRootRegistry"
        }
      ],
      "stateMutability": "view"
    },
    {
      "type": "function",
      "name": "setPaused",
      "inputs": [
        {
          "name": "_paused",
          "type": "bool",
          "internalType": "bool"
        }
      ],
      "outputs": [],
      "stateMutability": "nonpayable"
    },
    {
      "type": "function",
      "name": "transferAdmin",
      "inputs": [
        {
          "name": "newAdmin",
          "type": "address",
          "internalType": "address"
        }
      ],
      "outputs": [],
      "stateMutability": "nonpayable"
    },
    {
      "type": "function",
      "name": "updateRootRegistry",
      "inputs": [
        {
          "name": "_rootRegistry",
          "type": "address",
          "internalType": "address"
        }
      ],
      "outputs": [],
      "stateMutability": "nonpayable"
    },
    {
      "type": "function",
      "name": "verifyProof",
      "inputs": [
        {
          "name": "params",
          "type": "tuple",
          "internalType": "struct ProofVerificationParams",
          "components": [
            {
              "name": "vkeyHash",
              "type": "bytes32",
              "internalType": "bytes32"
            },
            {
              "name": "proof",
              "type": "bytes",
              "internalType": "bytes"
            },
            {
              "name": "publicInputs",
              "type": "bytes32[]",
              "internalType": "bytes32[]"
            },
            {
              "name": "committedInputs",
              "type": "bytes",
              "internalType": "bytes"
            },
            {
              "name": "committedInputCounts",
              "type": "uint256[]",
              "internalType": "uint256[]"
            },
            {
              "name": "validityPeriodInDays",
              "type": "uint256",
              "internalType": "uint256"
            },
            {
              "name": "domain",
              "type": "string",
              "internalType": "string"
            },
            {
              "name": "scope",
              "type": "string",
              "internalType": "string"
            },
            {
              "name": "devMode",
              "type": "bool",
              "internalType": "bool"
            }
          ]
        }
      ],
      "outputs": [
        {
          "name": "",
          "type": "bool",
          "internalType": "bool"
        },
        {
          "name": "",
          "type": "bytes32",
          "internalType": "bytes32"
        }
      ],
      "stateMutability": "view"
    },
    {
      "type": "function",
      "name": "verifyScopes",
      "inputs": [
        {
          "name": "publicInputs",
          "type": "bytes32[]",
          "internalType": "bytes32[]"
        },
        {
          "name": "domain",
          "type": "string",
          "internalType": "string"
        },
        {
          "name": "scope",
          "type": "string",
          "internalType": "string"
        }
      ],
      "outputs": [
        {
          "name": "",
          "type": "bool",
          "internalType": "bool"
        }
      ],
      "stateMutability": "view"
    },
    {
      "type": "function",
      "name": "vkeyHashToVerifier",
      "inputs": [
        {
          "name": "",
          "type": "bytes32",
          "internalType": "bytes32"
        }
      ],
      "outputs": [
        {
          "name": "",
          "type": "address",
          "internalType": "address"
        }
      ],
      "stateMutability": "view"
    },
    {
      "type": "event",
      "name": "AdminUpdated",
      "inputs": [
        {
          "name": "oldAdmin",
          "type": "address",
          "indexed": true,
          "internalType": "address"
        },
        {
          "name": "newAdmin",
          "type": "address",
          "indexed": true,
          "internalType": "address"
        }
      ],
      "anonymous": false
    },
    {
      "type": "event",
      "name": "CertificateRegistryRootAdded",
      "inputs": [
        {
          "name": "certificateRegistryRoot",
          "type": "bytes32",
          "indexed": true,
          "internalType": "bytes32"
        }
      ],
      "anonymous": false
    },
    {
      "type": "event",
      "name": "CertificateRegistryRootRemoved",
      "inputs": [
        {
          "name": "certificateRegistryRoot",
          "type": "bytes32",
          "indexed": true,
          "internalType": "bytes32"
        }
      ],
      "anonymous": false
    },
    {
      "type": "event",
      "name": "PausedStatusChanged",
      "inputs": [
        {
          "name": "paused",
          "type": "bool",
          "indexed": false,
          "internalType": "bool"
        }
      ],
      "anonymous": false
    },
    {
      "type": "event",
      "name": "VerifierAdded",
      "inputs": [
        {
          "name": "vkeyHash",
          "type": "bytes32",
          "indexed": true,
          "internalType": "bytes32"
        },
        {
          "name": "verifier",
          "type": "address",
          "indexed": true,
          "internalType": "address"
        }
      ],
      "anonymous": false
    },
    {
      "type": "event",
      "name": "VerifierRemoved",
      "inputs": [
        {
          "name": "vkeyHash",
          "type": "bytes32",
          "indexed": true,
          "internalType": "bytes32"
        }
      ],
      "anonymous": false
    },
    {
      "type": "event",
      "name": "ZKPassportVerifierDeployed",
      "inputs": [
        {
          "name": "admin",
          "type": "address",
          "indexed": true,
          "internalType": "address"
        },
        {
          "name": "timestamp",
          "type": "uint256",
          "indexed": false,
          "internalType": "uint256"
        }
      ],
      "anonymous": false
    }
  ],
  "bytecode": {
    "object": "0x608060405234801561000f575f5ffd5b506040516133bb3803806133bb83398101604081905261002e916100f6565b6001600160a01b0381166100945760405162461bcd60e51b8152602060048201526024808201527f526f6f742072656769737472792063616e6e6f74206265207a65726f206164646044820152637265737360e01b606482015260840160405180910390fd5b5f8054336001600160a01b03199182168117909255600380549091166001600160a01b0384161790556040514281527ff29b53747ae7121d0958d490ad3d5cf6767119b0fdbd8389d918de3a12cf5a299060200160405180910390a250610123565b5f60208284031215610106575f5ffd5b81516001600160a01b038116811461011c575f5ffd5b9392505050565b61328b806101305f395ff3fe608060405234801561000f575f5ffd5b5060043610610148575f3560e01c806375829def116100bf578063b2b37a4c11610079578063b2b37a4c1461031a578063b96b161c1461034c578063d7bf616a1461035f578063ddf3eec914610389578063ec1374cd146103aa578063f851a440146103d8575f5ffd5b806375829def1461027b5780638163f2311461028e578063847755e3146102ce578063886c3533146102e15780638d6937b8146102f4578063a6df2c0114610307575f5ffd5b80633a316e62116101105780633a316e62146101e557806341a0e2c2146101f857806345e21c901461020e5780634601173c146102405780635c975abb146102605780636c40d5d614610273575f5ffd5b806303d37eae1461014c5780630af18ba61461017c578063126f75591461019d57806316c38b3c146101bd57806318677f2a146101d2575b5f5ffd5b61015f61015a3660046129bb565b6103ea565b604051610173989796959493929190612a3b565b60405180910390f35b61018f61018a366004612ae8565b610955565b604051610173929190612b26565b6101b06101ab366004612b89565b610b1e565b6040516101739190612c0d565b6101d06101cb366004612c70565b610d62565b005b6101d06101e0366004612c92565b610de2565b6101d06101f3366004612cb8565b610e8f565b610200600181565b604051908152602001610173565b61023061021c366004612cb8565b60026020525f908152604090205460ff1681565b6040519015158152602001610173565b61025361024e366004612ccf565b610efa565b6040516101739190612d39565b5f5461023090600160a01b900460ff1681565b610200600281565b6101d0610289366004612c92565b61126a565b6102b661029c366004612cb8565b60016020525f90815260409020546001600160a01b031681565b6040516001600160a01b039091168152602001610173565b6102306102dc366004612d4b565b611338565b6101d06102ef366004612cb8565b61150f565b6101d0610302366004612de7565b611577565b6101d0610315366004612e19565b611637565b61032d610328366004612ccf565b611761565b6040805193845260ff9283166020850152911690820152606001610173565b6003546102b6906001600160a01b031681565b61037261036d366004612e4d565b611918565b604080519215158352602083019190915201610173565b61039c610397366004612ccf565b611cfc565b604051610173929190612e84565b6103bd6103b8366004612b89565b611eb6565b60408051938452602084019290925290820152606001610173565b5f546102b6906001600160a01b031681565b606080606080606080606080886106a4578a60058b61040a826027612ebc565b9261041793929190612ecf565b8080601f0160208091040260200160405190810160405280939291908181526020018383808284375f92019190915250929a508d9250600291508c905061045f826003612ebc565b9261046c93929190612ecf565b8080601f0160208091040260200160405190810160405280939291908181526020018383808284375f920191909152509299508d9250603691508c90506104b4826003612ebc565b926104c193929190612ecf565b8080601f0160208091040260200160405190810160405280939291908181526020018383808284375f920191909152509298508d9250604091508c9050610509826001612ebc565b9261051693929190612ecf565b8080601f0160208091040260200160405190810160405280939291908181526020018383808284375f920191909152509297508d9250603991508c905061055e826006612ebc565b9261056b93929190612ecf565b8080601f0160208091040260200160405190810160405280939291908181526020018383808284375f920191909152509296508d9250604191508c90506105b3826006612ebc565b926105c093929190612ecf565b8080601f0160208091040260200160405190810160405280939291908181526020018383808284375f920191909152509295508d9250602c91508c9050610608826009612ebc565b9261061593929190612ecf565b8080601f0160208091040260200160405190810160405280939291908181526020018383808284375f9201829052509395508e9392508d915061065b9050826002612ebc565b9261066893929190612ecf565b8080601f0160208091040260200160405190810160405280939291908181526020018383808284375f9201919091525092935061094892505050565b8a603c8b6106b382601e612ebc565b926106c093929190612ecf565b8080601f0160208091040260200160405190810160405280939291908181526020018383808284375f92019190915250929a508d9250600291508c9050610708826003612ebc565b9261071593929190612ecf565b8080601f0160208091040260200160405190810160405280939291908181526020018383808284375f920191909152509299508d9250602d91508c905061075d826003612ebc565b9261076a93929190612ecf565b8080601f0160208091040260200160405190810160405280939291908181526020018383808284375f920191909152509298508d9250602591508c90506107b2826001612ebc565b926107bf93929190612ecf565b8080601f0160208091040260200160405190810160405280939291908181526020018383808284375f920191909152509297508d9250601e91508c9050610807826006612ebc565b9261081493929190612ecf565b8080601f0160208091040260200160405190810160405280939291908181526020018383808284375f920191909152509296508d9250602691508c905061085c826006612ebc565b9261086993929190612ecf565b8080601f0160208091040260200160405190810160405280939291908181526020018383808284375f920191909152509295508d9250600591508c90506108b1826009612ebc565b926108be93929190612ecf565b8080601f0160208091040260200160405190810160405280939291908181526020018383808284375f9201829052509395508e9392508d91506109049050826002612ebc565b9261091193929190612ecf565b8080601f0160208091040260200160405190810160405280939291908181526020018383808284375f920191909152509293505050505b9397509397509397509397565b5f6060815b6101f4811015610b1657600160f81b85858381811061097b5761097b612f0a565b9050013560f81c60f81b6001600160f81b03191603610a38575f85856109a2846001612ebc565b906109ae856003612ebc565b926109bb93929190612ecf565b6109c491612f1e565b60f01c905085856109d6846003612ebc565b9061ffff84166109e7866003612ebc565b6109f19190612ebc565b926109fe93929190612ecf565b610a0791612f56565b60601c9350610a17816002612f96565b610a22906001612f96565b610a309061ffff1683612ebc565b91505061095a565b600160f91b858583818110610a4f57610a4f612f0a565b9050013560f81c60f81b6001600160f81b03191603610b16575f8585610a76846001612ebc565b90610a82856003612ebc565b92610a8f93929190612ecf565b610a9891612f1e565b60f01c90508585610aaa846003612ebc565b9061ffff8416610abb866003612ebc565b610ac59190612ebc565b92610ad293929190612ecf565b8080601f0160208091040260200160405190810160405280939291908181526020018383808284375f92019190915250929550610a17925083915060029050612f96565b509250929050565b60605f80805b85811015610d0457868682818110610b3e57610b3e612f0a565b90506020020135610259148015610b975750846008811115610b6257610b62612ef6565b60f81b6001600160f81b031916898985818110610b8157610b81612f0a565b9050013560f81c60f81b6001600160f81b031916145b15610cd6576040805160c8808252611920820190925290816020015b6060815260200190600190039081610bb35790505093505f5b60c8811015610cd0578989610be2836003612fc4565b610bec9087612ebc565b610bf7906001612ebc565b818110610c0657610c06612f0a565b909101356001600160f81b031916159050610cd0578989610c28836003612fc4565b610c329087612ebc565b610c3d906001612ebc565b90610c49846003612fc4565b610c539088612ebc565b610c5e906003612ebc565b610c69906001612ebc565b92610c7693929190612ecf565b8080601f0160208091040260200160405190810160405280939291908181526020018383808284375f920191909152505087518892508491508110610cbd57610cbd612f0a565b6020908102919091010152600101610bcc565b50600191505b868682818110610ce857610ce8612f0a565b9050602002013583610cfa9190612ebc565b9250600101610b24565b5080610d575760405162461bcd60e51b815260206004820152601e60248201527f436f756e7472792070726f6f6620696e70757473206e6f7420666f756e64000060448201526064015b60405180910390fd5b505095945050505050565b5f546001600160a01b03163314610d8b5760405162461bcd60e51b8152600401610d4e90612fdb565b5f8054821515600160a01b0260ff60a01b199091161790556040517f9a506b30e47f3823b09f67e4c0dfa5c3d8023b71825b7ceaa97677129128c9c590610dd790831515815260200190565b60405180910390a150565b5f546001600160a01b03163314610e0b5760405162461bcd60e51b8152600401610d4e90612fdb565b6001600160a01b038116610e6d5760405162461bcd60e51b8152602060048201526024808201527f526f6f742072656769737472792063616e6e6f74206265207a65726f206164646044820152637265737360e01b6064820152608401610d4e565b600380546001600160a01b0319166001600160a01b0392909216919091179055565b5f546001600160a01b03163314610eb85760405162461bcd60e51b8152600401610d4e90612fdb565b5f81815260026020526040808220805460ff191660011790555182917f28b645e250fa5c9d240590b408225ec310e29b861312e75a76b0d55f7d927a2f91a250565b60605f80805b8481101561121257858582818110610f1a57610f1a612f0a565b905060200201356101f5036111e457600160fb1b888885818110610f4057610f40612f0a565b9050013560f81c60f81b6001600160f81b03191614610f715760405162461bcd60e51b8152600401610d4e90613012565b5f5b6101f48110156110a357600160f81b898983610f90886001612ebc565b610f9a9190612ebc565b818110610fa957610fa9612f0a565b9050013560f81c60f81b6001600160f81b0319160361104f575f898983610fd1886001612ebc565b610fdb9190612ebc565b610fe6906001612ebc565b9084610ff3896001612ebc565b610ffd9190612ebc565b611008906003612ebc565b9261101593929190612ecf565b61101e91612f1e565b60f01c905061102e816002612f96565b611039906001612f96565b6110479061ffff1683612ebc565b915050610f73565b600160f91b898983611062886001612ebc565b61106c9190612ebc565b81811061107b5761107b612f0a565b9050013560f81c60f81b6001600160f81b031916036110a3575f898983610fd1886001612ebc565b5f811180156110b457506101f48111155b6110f65760405162461bcd60e51b8152602060048201526013602482015272092dcecc2d8d2c840c8c2e8c240d8cadccee8d606b1b6044820152606401610d4e565b805b6101f481101561118057898982611110886001612ebc565b61111a9190612ebc565b81811061112957611129612f0a565b909101356001600160f81b0319161590506111785760405162461bcd60e51b815260206004820152600f60248201526e496e76616c69642070616464696e6760881b6044820152606401610d4e565b6001016110f8565b50888861118e866001612ebc565b9061119b876101f5612ebc565b926111a893929190612ecf565b8080601f0160208091040260200160405190810160405280939291908181526020018383808284375f9201919091525092975060019550505050505b8585828181106111f6576111f6612f0a565b90506020020135836112089190612ebc565b9250600101610f00565b50806112605760405162461bcd60e51b815260206004820181905260248201527f42696e6420646174612070726f6f6620696e70757473206e6f7420666f756e646044820152606401610d4e565b5050949350505050565b5f546001600160a01b031633146112935760405162461bcd60e51b8152600401610d4e90612fdb565b6001600160a01b0381166112e95760405162461bcd60e51b815260206004820152601c60248201527f41646d696e2063616e6e6f74206265207a65726f2061646472657373000000006044820152606401610d4e565b5f80546001600160a01b038381166001600160a01b0319831681178455604051919092169283917f101b8081ff3b56bbf45deb824d86a3b0fd38b7e3dd42421105cf8abe9106db0b9190a35050565b5f5f61134346612010565b90505f61138487878080601f0160208091040260200160405190810160405280939291908181526020018383808284375f9201919091525061211492505050565b61140057600860028888856040516020016113a193929190613055565b60408051601f19818403018152908290526113bb91613077565b602060405180830381855afa1580156113d6573d5f5f3e3d5ffd5b5050506040513d601f19601f820116820180604052508101906113f99190613082565b901c611402565b5f5b90505f61144386868080601f0160208091040260200160405190810160405280939291908181526020018383808284375f9201919091525061211492505050565b6114bd5760086002878760405160200161145e929190613099565b60408051601f198184030181529082905261147891613077565b602060405180830381855afa158015611493573d5f5f3e3d5ffd5b5050506040513d601f19601f820116820180604052508101906114b69190613082565b901c6114bf565b5f5b9050818a8a600a8181106114d5576114d5612f0a565b905060200201351480156115015750808a8a600b8181106114f8576114f8612f0a565b90506020020135145b9a9950505050505050505050565b5f546001600160a01b031633146115385760405162461bcd60e51b8152600401610d4e90612fdb565b5f81815260026020526040808220805460ff191690555182917fc4da3a189adfa305afb4c073f96be9bd96f1ebea4e42a5e7e2e98818509a682791a250565b5f546001600160a01b031633146115a05760405162461bcd60e51b8152600401610d4e90612fdb565b5f5b818110156116325760015f8484848181106115bf576115bf612f0a565b602090810292909201358352508101919091526040015f2080546001600160a01b03191690558282828181106115f7576115f7612f0a565b905060200201357f6fdcbcf8f91bc23f2c9dcfe8fe01d80d1b1afbbf207298e94c0171ccc587424c60405160405180910390a26001016115a2565b505050565b5f546001600160a01b031633146116605760405162461bcd60e51b8152600401610d4e90612fdb565b5f5b8381101561175a5782828281811061167c5761167c612f0a565b90506020020160208101906116919190612c92565b60015f8787858181106116a6576116a6612f0a565b9050602002013581526020019081526020015f205f6101000a8154816001600160a01b0302191690836001600160a01b031602179055508282828181106116ef576116ef612f0a565b90506020020160208101906117049190612c92565b6001600160a01b031685858381811061171f5761171f612f0a565b905060200201357f636107338a3eb46f1f60562462f3ec11393d35fbc965991aaade3b9e7d89c3f560405160405180910390a3600101611662565b5050505050565b5f80808080805b868110156118be5787878281811061178257611782612f0a565b90506020020135600b0361189057600160f81b8a8a858181106117a7576117a7612f0a565b9050013560f81c60f81b6001600160f81b031916146117d85760405162461bcd60e51b8152600401610d4e90613012565b61183a8a8a6117e8866001612ebc565b906117f4876009612ebc565b9261180193929190612ecf565b8080601f0160208091040260200160405190810160405280939291908181526020018383808284375f9201919091525061211992505050565b95508989611849856009612ebc565b81811061185857611858612f0a565b919091013560f81c95508a90508961187185600a612ebc565b81811061188057611880612f0a565b919091013560f81c945060019250505b8787828181106118a2576118a2612f0a565b90506020020135836118b49190612ebc565b9250600101611768565b508061190c5760405162461bcd60e51b815260206004820152601a60248201527f4167652070726f6f6620696e70757473206e6f7420666f756e640000000000006044820152606401610d4e565b50509450945094915050565b5f80548190600160a01b900460ff16156119695760405162461bcd60e51b815260206004820152601260248201527110dbdb9d1c9858dd081a5cc81c185d5cd95960721b6044820152606401610d4e565b5f6119748435612428565b90505f601061198660408701876130a8565b6119919291506130ed565b90506119bf6119a360408701876130a8565b5f8181106119b3576119b3612f0a565b90506020020135612487565b6119ec6119cf60408701876130a8565b60018181106119e0576119e0612f0a565b90506020020135612569565b611a366119fc60408701876130a8565b808060200260200160405190810160405280939291908181526020018383602002808284375f9201919091525050505060a0870135612627565b611a825760405162461bcd60e51b815260206004820181905260248201527f50726f6f662065787069726564206f72206461746520697320696e76616c69646044820152606401610d4e565b611aac611a9260408701876130a8565b611a9f60c0890189613100565b6102dc60e08b018b613100565b611ae95760405162461bcd60e51b815260206004820152600e60248201526d496e76616c69642073636f70657360901b6044820152606401610d4e565b611b95611af960408701876130a8565b600c90611b076001866130ed565b92611b1493929190613142565b808060200260200160405190810160405280939291908181526020018383602002808284375f92019190915250611b52925050506060880188613100565b611b5f60808a018a6130a8565b808060200260200160405190810160405280939291908181526020018383602002808284375f920191909152506126bb92505050565b6001611ba460408701876130a8565b611baf6001856130ed565b818110611bbe57611bbe612f0a565b90506020020135141580611bdf5750611bdf61012086016101008701612c70565b611c3c5760405162461bcd60e51b815260206004820152602860248201527f4d6f636b2070726f6f667320617265206f6e6c7920616c6c6f77656420696e20604482015267646576206d6f646560c01b6064820152608401610d4e565b6001600160a01b03821663ea50d0e4611c586020880188613100565b611c6560408a018a6130a8565b6040518563ffffffff1660e01b8152600401611c84949392919061316d565b602060405180830381865afa158015611c9f573d5f5f3e3d5ffd5b505050506040513d601f19601f82011682018060405250810190611cc391906131cf565b611cd060408701876130a8565b611cdb6001856130ed565b818110611cea57611cea612f0a565b90506020020135935093505050915091565b6060805f80805b85811015611e5d57868682818110611d1d57611d1d612f0a565b9050602002013560b503611e2f575f898985818110611d3e57611d3e612f0a565b9050013560f81c60f81b6001600160f81b03191614611d6f5760405162461bcd60e51b8152600401610d4e90613012565b8888611d7c856001612ebc565b90611d8886605b612ebc565b92611d9593929190612ecf565b8080601f0160208091040260200160405190810160405280939291908181526020018383808284375f920191909152509297508b92508a9150611ddb905085605b612ebc565b90611de78660b5612ebc565b92611df493929190612ecf565b8080601f0160208091040260200160405190810160405280939291908181526020018383808284375f92019190915250929650600194505050505b868682818110611e4157611e41612f0a565b9050602002013583611e539190612ebc565b9250600101611d03565b5080611eab5760405162461bcd60e51b815260206004820152601f60248201527f446973636c6f73652070726f6f6620696e70757473206e6f7420666f756e64006044820152606401610d4e565b505094509492505050565b5f80808080805b87811015611fb557888882818110611ed757611ed7612f0a565b905060200201356019148015611f2f5750866008811115611efa57611efa612ef6565b60f81b6001600160f81b0319168b8b85818110611f1957611f19612f0a565b9050013560f81c60f81b6001600160f81b031916145b15611f8757611f448b8b6117e8866001612ebc565b9550611f628b8b611f56866009612ebc565b906117f4876011612ebc565b9450611f808b8b611f74866011612ebc565b906117f4876019612ebc565b9350600191505b888882818110611f9957611f99612f0a565b9050602002013583611fab9190612ebc565b9250600101611ebd565b50806120035760405162461bcd60e51b815260206004820152601b60248201527f446174652070726f6f6620696e70757473206e6f7420666f756e6400000000006044820152606401610d4e565b5050955095509592505050565b6060815f036120365750506040805180820190915260018152600360fc1b602082015290565b815f5b811561205f5780612049816131ea565b91506120589050600a83613216565b9150612039565b5f816001600160401b0381111561207857612078612fb0565b6040519080825280601f01601f1916602001820160405280156120a2576020820181803683370190505b5090505b841561210c576120b76001836130ed565b91506120c4600a86613229565b6120cf906030612ebc565b60f81b8183815181106120e4576120e4612f0a565b60200101906001600160f81b03191690815f1a905350612105600a86613216565b94506120a6565b949350505050565b511590565b604080518082019091526008815267313131313131313160c01b6020918201528151908201205f907fc21a5c94d030b6b0ea6834442967d237d4cc49a2b74bbb3846572bb3c8021a300161216e57505f919050565b5f6121998360038151811061218557612185612f0a565b01602001516001600160f81b031916612804565b6121af8460028151811061218557612185612f0a565b6121ba90600a612fc4565b6121d08560018151811061218557612185612f0a565b6121db906064612fc4565b6121f0865f8151811061218557612185612f0a565b6121fc906103e8612fc4565b6122069190612ebc565b6122109190612ebc565b61221a9190612ebc565b90505f6122338460058151811061218557612185612f0a565b6122498560048151811061218557612185612f0a565b61225490600a612fc4565b61225e9190612ebc565b90505f6122778560078151811061218557612185612f0a565b61228d8660068151811061218557612185612f0a565b61229890600a612fc4565b6122a29190612ebc565b90506107b28310156122ef5760405162461bcd60e51b81526020600482015260166024820152750b2cac2e440c4caccdee4ca40aa9c92b040cae0dec6d60531b6044820152606401610d4e565b600182101580156123015750600c8211155b61233d5760405162461bcd60e51b815260206004820152600d60248201526c092dcecc2d8d2c840dadedce8d609b1b6044820152606401610d4e565b600181101580156123575750612353828461281d565b8111155b6123915760405162461bcd60e51b815260206004820152600b60248201526a496e76616c69642064617960a81b6044820152606401610d4e565b5f6107b25b848110156123cf576123a7816128d0565b6123b35761016d6123b7565b61016e5b6123c59061ffff1683612ebc565b9150600101612396565b5060015b838110156123f9576123e5818661281d565b6123ef9083612ebc565b91506001016123d3565b506124056001836130ed565b61240f9082612ebc565b905061241e6201518082612fc4565b9695505050505050565b5f818152600160205260408120546001600160a01b0316806124815760405162461bcd60e51b815260206004820152601260248201527115995c9a599a595c881b9bdd08199bdd5b9960721b6044820152606401610d4e565b92915050565b5f8181526002602052604090205460ff168061251057506003546040516383578c1160e01b815260016004820152602481018390526001600160a01b03909116906383578c1190604401602060405180830381865afa1580156124ec573d5f5f3e3d5ffd5b505050506040513d601f19601f8201168201806040525081019061251091906131cf565b6125665760405162461bcd60e51b815260206004820152602160248201527f496e76616c696420636572746966696361746520726567697374727920726f6f6044820152601d60fa1b6064820152608401610d4e565b50565b6003546040516383578c1160e01b815260026004820152602481018390526001600160a01b03909116906383578c1190604401602060405180830381865afa1580156125b7573d5f5f3e3d5ffd5b505050506040513d601f19601f820116820180604052508101906125db91906131cf565b6125665760405162461bcd60e51b815260206004820152601d60248201527f496e76616c6964206369726375697420726567697374727920726f6f740000006044820152606401610d4e565b6040805160088082528183019092525f9182919060208201818036833701905050905060025b600a8110156126b05760f885828151811061266a5761266a612f0a565b6020026020010151901b8260028361268291906130ed565b8151811061269257612692612f0a565b60200101906001600160f81b03191690815f1a90535060010161264d565b5061210c8184612920565b5f805b82518110156127fc575f60086002878786908887815181106126e2576126e2612f0a565b6020026020010151886126f59190612ebc565b9261270293929190612ecf565b604051602001612713929190613099565b60408051601f198184030181529082905261272d91613077565b602060405180830381855afa158015612748573d5f5f3e3d5ffd5b5050506040513d601f19601f8201168201806040525081019061276b9190613082565b901c905086828151811061278157612781612f0a565b602002602001015181146127cc5760405162461bcd60e51b8152602060048201526012602482015271125b9d985b1a590818dbdb5b5a5d1b595b9d60721b6044820152606401610d4e565b8382815181106127de576127de612f0a565b6020026020010151836127f19190612ebc565b9250506001016126be565b505050505050565b5f612814603060f884901c61323c565b60ff1692915050565b5f600183101580156128305750600c8311155b61286c5760405162461bcd60e51b815260206004820152600d60248201526c092dcecc2d8d2c840dadedce8d609b1b6044820152606401610d4e565b826002036128955761287d826128d0565b61288857601c61288b565b601d5b60ff169050612481565b82600414806128a45750826006145b806128af5750826009145b806128ba575082600b145b156128c75750601e612481565b50601f92915050565b5f6128dc600483613229565b156128e857505f919050565b6128f3606483613229565b1561290057506001919050565b61290c61019083613229565b1561291857505f919050565b506001919050565b5f5f61292b84612119565b90505f61293b6201518085612fc4565b6129459083612ebc565b905081421015801561295657508181115b801561296157504281115b95945050505050565b5f5f83601f84011261297a575f5ffd5b5081356001600160401b03811115612990575f5ffd5b6020830191508360208285010111156129a7575f5ffd5b9250929050565b8015158114612566575f5ffd5b5f5f5f604084860312156129cd575f5ffd5b83356001600160401b038111156129e2575f5ffd5b6129ee8682870161296a565b9094509250506020840135612a02816129ae565b809150509250925092565b5f81518084528060208401602086015e5f602082860101526020601f19601f83011685010191505092915050565b61010081525f612a4f61010083018b612a0d565b8281036020840152612a61818b612a0d565b90508281036040840152612a75818a612a0d565b90508281036060840152612a898189612a0d565b90508281036080840152612a9d8188612a0d565b905082810360a0840152612ab18187612a0d565b905082810360c0840152612ac58186612a0d565b905082810360e0840152612ad98185612a0d565b9b9a5050505050505050505050565b5f5f60208385031215612af9575f5ffd5b82356001600160401b03811115612b0e575f5ffd5b612b1a8582860161296a565b90969095509350505050565b6001600160a01b03831681526040602082018190525f9061210c90830184612a0d565b5f5f83601f840112612b59575f5ffd5b5081356001600160401b03811115612b6f575f5ffd5b6020830191508360208260051b85010111156129a7575f5ffd5b5f5f5f5f5f60608688031215612b9d575f5ffd5b85356001600160401b03811115612bb2575f5ffd5b612bbe8882890161296a565b90965094505060208601356001600160401b03811115612bdc575f5ffd5b612be888828901612b49565b909450925050604086013560098110612bff575f5ffd5b809150509295509295909350565b5f602082016020835280845180835260408501915060408160051b8601019250602086015f5b82811015612c6457603f19878603018452612c4f858351612a0d565b94506020938401939190910190600101612c33565b50929695505050505050565b5f60208284031215612c80575f5ffd5b8135612c8b816129ae565b9392505050565b5f60208284031215612ca2575f5ffd5b81356001600160a01b0381168114612c8b575f5ffd5b5f60208284031215612cc8575f5ffd5b5035919050565b5f5f5f5f60408587031215612ce2575f5ffd5b84356001600160401b03811115612cf7575f5ffd5b612d038782880161296a565b90955093505060208501356001600160401b03811115612d21575f5ffd5b612d2d87828801612b49565b95989497509550505050565b602081525f612c8b6020830184612a0d565b5f5f5f5f5f5f60608789031215612d60575f5ffd5b86356001600160401b03811115612d75575f5ffd5b612d8189828a01612b49565b90975095505060208701356001600160401b03811115612d9f575f5ffd5b612dab89828a0161296a565b90955093505060408701356001600160401b03811115612dc9575f5ffd5b612dd589828a0161296a565b979a9699509497509295939492505050565b5f5f60208385031215612df8575f5ffd5b82356001600160401b03811115612e0d575f5ffd5b612b1a85828601612b49565b5f5f5f5f60408587031215612e2c575f5ffd5b84356001600160401b03811115612e41575f5ffd5b612d0387828801612b49565b5f60208284031215612e5d575f5ffd5b81356001600160401b03811115612e72575f5ffd5b82016101208185031215612c8b575f5ffd5b604081525f612e966040830185612a0d565b82810360208401526129618185612a0d565b634e487b7160e01b5f52601160045260245ffd5b8082018082111561248157612481612ea8565b5f5f85851115612edd575f5ffd5b83861115612ee9575f5ffd5b5050820193919092039150565b634e487b7160e01b5f52602160045260245ffd5b634e487b7160e01b5f52603260045260245ffd5b80356001600160f01b03198116906002841015612f4f576001600160f01b0319600285900360031b81901b82161691505b5092915050565b80356bffffffffffffffffffffffff198116906014841015612f4f576bffffffffffffffffffffffff1960149490940360031b84901b1690921692915050565b61ffff818116838216019081111561248157612481612ea8565b634e487b7160e01b5f52604160045260245ffd5b808202811582820484141761248157612481612ea8565b6020808252601a908201527f4e6f7420617574686f72697a65643a2061646d696e206f6e6c79000000000000604082015260600190565b602080825260129082015271496e76616c69642070726f6f66207479706560701b604082015260600190565b5f81518060208401855e5f93019283525090919050565b828482375f838201663a636861696e2d60c81b815261241e600782018561303e565b5f612c8b828461303e565b5f60208284031215613092575f5ffd5b5051919050565b818382375f9101908152919050565b5f5f8335601e198436030181126130bd575f5ffd5b8301803591506001600160401b038211156130d6575f5ffd5b6020019150600581901b36038213156129a7575f5ffd5b8181038181111561248157612481612ea8565b5f5f8335601e19843603018112613115575f5ffd5b8301803591506001600160401b0382111561312e575f5ffd5b6020019150368190038213156129a7575f5ffd5b5f5f85851115613150575f5ffd5b8386111561315c575f5ffd5b5050600583901b0193919092039150565b60408152836040820152838560608301375f60608583018101829052601f19601f8701168301838103820160208501529081018490526001600160fb1b038411156131b6575f5ffd5b8360051b80866080840137016080019695505050505050565b5f602082840312156131df575f5ffd5b8151612c8b816129ae565b5f600182016131fb576131fb612ea8565b5060010190565b634e487b7160e01b5f52601260045260245ffd5b5f8261322457613224613202565b500490565b5f8261323757613237613202565b500690565b60ff828116828216039081111561248157612481612ea856fea26469706673582212201a497e289cb2afef87e360aef70529cf50f5118d091365c3a48d37bb3c55e49a64736f6c634300081d0033",
    "linkReferences": {}
  },
  "methodIdentifiers": {
    "CERTIFICATE_REGISTRY_ID()": "41a0e2c2",
    "CIRCUIT_REGISTRY_ID()": "6c40d5d6",
    "addCertificateRegistryRoot(bytes32)": "3a316e62",
    "addVerifiers(bytes32[],address[])": "a6df2c01",
    "admin()": "f851a440",
    "getAgeProofInputs(bytes,uint256[])": "b2b37a4c",
    "getBindProofInputs(bytes,uint256[])": "4601173c",
    "getBoundData(bytes)": "0af18ba6",
    "getCountryProofInputs(bytes,uint256[],uint8)": "126f7559",
    "getDateProofInputs(bytes,uint256[],uint8)": "ec1374cd",
    "getDiscloseProofInputs(bytes,uint256[])": "ddf3eec9",
    "getDisclosedData(bytes,bool)": "03d37eae",
    "isValidCertificateRegistryRoot(bytes32)": "45e21c90",
    "paused()": "5c975abb",
    "removeCertificateRegistryRoot(bytes32)": "886c3533",
    "removeVerifiers(bytes32[])": "8d6937b8",
    "rootRegistry()": "b96b161c",
    "setPaused(bool)": "16c38b3c",
    "transferAdmin(address)": "75829def",
    "updateRootRegistry(address)": "18677f2a",
    "verifyProof((bytes32,bytes,bytes32[],bytes,uint256[],uint256,string,string,bool))": "d7bf616a",
    "verifyScopes(bytes32[],string,string)": "847755e3",
    "vkeyHashToVerifier(bytes32)": "8163f231"
  },
  "id": 27
}