{
  "abi": [
    {
      "type": "constructor",
      "inputs": [],
      "stateMutability": "nonpayable"
    },
    {
      "type": "function",
      "name": "addCertificateRegistryRoot",
      "inputs": [
        {
          "name": "certificateRegistryRoot",
          "type": "bytes32",
          "internalType": "bytes32"
        }
      ],
      "outputs": [],
      "stateMutability": "nonpayable"
    },
    {
      "type": "function",
      "name": "addVerifiers",
      "inputs": [
        {
          "name": "vkeyHashes",
          "type": "bytes32[]",
          "internalType": "bytes32[]"
        },
        {
          "name": "verifiers",
          "type": "address[]",
          "internalType": "address[]"
        }
      ],
      "outputs": [],
      "stateMutability": "nonpayable"
    },
    {
      "type": "function",
      "name": "admin",
      "inputs": [],
      "outputs": [
        {
          "name": "",
          "type": "address",
          "internalType": "address"
        }
      ],
      "stateMutability": "view"
    },
    {
      "type": "function",
      "name": "getAgeProofInputs",
      "inputs": [
        {
          "name": "committedInputs",
          "type": "bytes",
          "internalType": "bytes"
        },
        {
          "name": "committedInputCounts",
          "type": "uint256[]",
          "internalType": "uint256[]"
        }
      ],
      "outputs": [
        {
          "name": "currentDate",
          "type": "uint256",
          "internalType": "uint256"
        },
        {
          "name": "minAge",
          "type": "uint8",
          "internalType": "uint8"
        },
        {
          "name": "maxAge",
          "type": "uint8",
          "internalType": "uint8"
        }
      ],
      "stateMutability": "pure"
    },
    {
      "type": "function",
      "name": "getCountryProofInputs",
      "inputs": [
        {
          "name": "committedInputs",
          "type": "bytes",
          "internalType": "bytes"
        },
        {
          "name": "committedInputCounts",
          "type": "uint256[]",
          "internalType": "uint256[]"
        },
        {
          "name": "proofType",
          "type": "uint8",
          "internalType": "enum ProofType"
        }
      ],
      "outputs": [
        {
          "name": "countryList",
          "type": "string[]",
          "internalType": "string[]"
        }
      ],
      "stateMutability": "pure"
    },
    {
      "type": "function",
      "name": "getDateProofInputs",
      "inputs": [
        {
          "name": "committedInputs",
          "type": "bytes",
          "internalType": "bytes"
        },
        {
          "name": "committedInputCounts",
          "type": "uint256[]",
          "internalType": "uint256[]"
        },
        {
          "name": "proofType",
          "type": "uint8",
          "internalType": "enum ProofType"
        }
      ],
      "outputs": [
        {
          "name": "currentDate",
          "type": "uint256",
          "internalType": "uint256"
        },
        {
          "name": "minDate",
          "type": "uint256",
          "internalType": "uint256"
        },
        {
          "name": "maxDate",
          "type": "uint256",
          "internalType": "uint256"
        }
      ],
      "stateMutability": "pure"
    },
    {
      "type": "function",
      "name": "getDiscloseProofInputs",
      "inputs": [
        {
          "name": "committedInputs",
          "type": "bytes",
          "internalType": "bytes"
        },
        {
          "name": "committedInputCounts",
          "type": "uint256[]",
          "internalType": "uint256[]"
        }
      ],
      "outputs": [
        {
          "name": "discloseMask",
          "type": "bytes",
          "internalType": "bytes"
        },
        {
          "name": "discloseBytes",
          "type": "bytes",
          "internalType": "bytes"
        }
      ],
      "stateMutability": "pure"
    },
    {
      "type": "function",
      "name": "getDisclosedData",
      "inputs": [
        {
          "name": "discloseBytes",
          "type": "bytes",
          "internalType": "bytes"
        },
        {
          "name": "isIDCard",
          "type": "bool",
          "internalType": "bool"
        }
      ],
      "outputs": [
        {
          "name": "name",
          "type": "string",
          "internalType": "string"
        },
        {
          "name": "issuingCountry",
          "type": "string",
          "internalType": "string"
        },
        {
          "name": "nationality",
          "type": "string",
          "internalType": "string"
        },
        {
          "name": "gender",
          "type": "string",
          "internalType": "string"
        },
        {
          "name": "birthDate",
          "type": "string",
          "internalType": "string"
        },
        {
          "name": "expiryDate",
          "type": "string",
          "internalType": "string"
        },
        {
          "name": "documentNumber",
          "type": "string",
          "internalType": "string"
        },
        {
          "name": "documentType",
          "type": "string",
          "internalType": "string"
        }
      ],
      "stateMutability": "pure"
    },
    {
      "type": "function",
      "name": "isValidCertificateRegistryRoot",
      "inputs": [
        {
          "name": "",
          "type": "bytes32",
          "internalType": "bytes32"
        }
      ],
      "outputs": [
        {
          "name": "",
          "type": "bool",
          "internalType": "bool"
        }
      ],
      "stateMutability": "view"
    },
    {
      "type": "function",
      "name": "paused",
      "inputs": [],
      "outputs": [
        {
          "name": "",
          "type": "bool",
          "internalType": "bool"
        }
      ],
      "stateMutability": "view"
    },
    {
      "type": "function",
      "name": "removeCertificateRegistryRoot",
      "inputs": [
        {
          "name": "certificateRegistryRoot",
          "type": "bytes32",
          "internalType": "bytes32"
        }
      ],
      "outputs": [],
      "stateMutability": "nonpayable"
    },
    {
      "type": "function",
      "name": "removeVerifiers",
      "inputs": [
        {
          "name": "vkeyHashes",
          "type": "bytes32[]",
          "internalType": "bytes32[]"
        }
      ],
      "outputs": [],
      "stateMutability": "nonpayable"
    },
    {
      "type": "function",
      "name": "setPaused",
      "inputs": [
        {
          "name": "_paused",
          "type": "bool",
          "internalType": "bool"
        }
      ],
      "outputs": [],
      "stateMutability": "nonpayable"
    },
    {
      "type": "function",
      "name": "transferAdmin",
      "inputs": [
        {
          "name": "newAdmin",
          "type": "address",
          "internalType": "address"
        }
      ],
      "outputs": [],
      "stateMutability": "nonpayable"
    },
    {
      "type": "function",
      "name": "verifyProof",
      "inputs": [
        {
          "name": "vkeyHash",
          "type": "bytes32",
          "internalType": "bytes32"
        },
        {
          "name": "proof",
          "type": "bytes",
          "internalType": "bytes"
        },
        {
          "name": "publicInputs",
          "type": "bytes32[]",
          "internalType": "bytes32[]"
        },
        {
          "name": "committedInputs",
          "type": "bytes",
          "internalType": "bytes"
        },
        {
          "name": "committedInputCounts",
          "type": "uint256[]",
          "internalType": "uint256[]"
        },
        {
          "name": "validityPeriodInDays",
          "type": "uint256",
          "internalType": "uint256"
        }
      ],
      "outputs": [
        {
          "name": "",
          "type": "bool",
          "internalType": "bool"
        },
        {
          "name": "",
          "type": "bytes32",
          "internalType": "bytes32"
        }
      ],
      "stateMutability": "view"
    },
    {
      "type": "function",
      "name": "vkeyHashToVerifier",
      "inputs": [
        {
          "name": "",
          "type": "bytes32",
          "internalType": "bytes32"
        }
      ],
      "outputs": [
        {
          "name": "",
          "type": "address",
          "internalType": "address"
        }
      ],
      "stateMutability": "view"
    },
    {
      "type": "event",
      "name": "AdminUpdated",
      "inputs": [
        {
          "name": "oldAdmin",
          "type": "address",
          "indexed": true,
          "internalType": "address"
        },
        {
          "name": "newAdmin",
          "type": "address",
          "indexed": true,
          "internalType": "address"
        }
      ],
      "anonymous": false
    },
    {
      "type": "event",
      "name": "CertificateRegistryRootAdded",
      "inputs": [
        {
          "name": "certificateRegistryRoot",
          "type": "bytes32",
          "indexed": true,
          "internalType": "bytes32"
        }
      ],
      "anonymous": false
    },
    {
      "type": "event",
      "name": "CertificateRegistryRootRemoved",
      "inputs": [
        {
          "name": "certificateRegistryRoot",
          "type": "bytes32",
          "indexed": true,
          "internalType": "bytes32"
        }
      ],
      "anonymous": false
    },
    {
      "type": "event",
      "name": "PausedStatusChanged",
      "inputs": [
        {
          "name": "paused",
          "type": "bool",
          "indexed": false,
          "internalType": "bool"
        }
      ],
      "anonymous": false
    },
    {
      "type": "event",
      "name": "VerifierAdded",
      "inputs": [
        {
          "name": "vkeyHash",
          "type": "bytes32",
          "indexed": true,
          "internalType": "bytes32"
        },
        {
          "name": "verifier",
          "type": "address",
          "indexed": true,
          "internalType": "address"
        }
      ],
      "anonymous": false
    },
    {
      "type": "event",
      "name": "VerifierRemoved",
      "inputs": [
        {
          "name": "vkeyHash",
          "type": "bytes32",
          "indexed": true,
          "internalType": "bytes32"
        }
      ],
      "anonymous": false
    },
    {
      "type": "event",
      "name": "ZKPassportVerifierDeployed",
      "inputs": [
        {
          "name": "admin",
          "type": "address",
          "indexed": true,
          "internalType": "address"
        },
        {
          "name": "timestamp",
          "type": "uint256",
          "indexed": false,
          "internalType": "uint256"
        }
      ],
      "anonymous": false
    }
  ],
  "bytecode": {
    "object": "0x6080604052348015600e575f5ffd5b505f80546001600160a01b031916339081179091556040514281527ff29b53747ae7121d0958d490ad3d5cf6767119b0fdbd8389d918de3a12cf5a299060200160405180910390a26124d4806100635f395ff3fe608060405234801561000f575f5ffd5b50600436106100fb575f3560e01c80638163f23111610093578063b2b37a4c11610063578063b2b37a4c1461026e578063ddf3eec9146102a0578063ec1374cd146102c1578063f851a440146102ef575f5ffd5b80638163f231146101f5578063886c3533146102355780638d6937b814610248578063a6df2c011461025b575f5ffd5b80633a316e62116100ce5780633a316e621461018a57806345e21c901461019d5780635c975abb146101cf57806375829def146101e2575f5ffd5b8063032fda09146100ff57806303d37eae1461012e578063126f75591461015557806316c38b3c14610175575b5f5ffd5b61011261010d366004611e49565b610301565b6040805192151583526020830191909152015b60405180910390f35b61014161013c366004611f38565b6105fd565b604051610125989796959493929190611fb8565b610168610163366004612065565b610b68565b60405161012591906120e9565b61018861018336600461214c565b610da7565b005b61018861019836600461216e565b610e27565b6101bf6101ab36600461216e565b60026020525f908152604090205460ff1681565b6040519015158152602001610125565b5f546101bf90600160a01b900460ff1681565b6101886101f0366004612185565b610e92565b61021d61020336600461216e565b60016020525f90815260409020546001600160a01b031681565b6040516001600160a01b039091168152602001610125565b61018861024336600461216e565b610f60565b6101886102563660046121ab565b610fc8565b6101886102693660046121e9565b6110d6565b61028161027c366004612253565b61124e565b6040805193845260ff9283166020850152911690820152606001610125565b6102b36102ae366004612253565b61142a565b604051610125929190612287565b6102d46102cf366004612065565b611609565b60408051938452602084019290925290820152606001610125565b5f5461021d906001600160a01b031681565b5f8a81526001602052604081205481906001600160a01b0316806103615760405162461bcd60e51b815260206004820152601260248201527115995c9a599a595c881b9bdd08199bdd5b9960721b60448201526064015b60405180910390fd5b5f61036d60108b6122bf565b905060025f8c8c5f818110610384576103846122d2565b602090810292909201358352508101919091526040015f205460ff166103f65760405162461bcd60e51b815260206004820152602160248201527f496e76616c696420636572746966696361746520726567697374727920726f6f6044820152601d60fa1b6064820152608401610358565b6104338b8b808060200260200160405190810160405280939291908181526020018383602002808284375f92019190915250899250611763915050565b61047f5760405162461bcd60e51b815260206004820181905260248201527f50726f6f662065787069726564206f72206461746520697320696e76616c69646044820152606401610358565b6105088b600b8c6104916001866122bf565b9261049e939291906122e6565b808060200260200160405190810160405280939291908181526020018383602002808284375f9201919091525050604080516020808d0282810182019093528c82528f94508e935090918d918d9182918501908490808284375f9201919091525061180192505050565b6105545760405162461bcd60e51b815260206004820152601860248201527f496e76616c696420636f6d6d697474656420696e7075747300000000000000006044820152606401610358565b816001600160a01b031663ea50d0e48e8e8e8e6040518563ffffffff1660e01b81526004016105869493929190612311565b602060405180830381865afa1580156105a1573d5f5f3e3d5ffd5b505050506040513d601f19601f820116820180604052508101906105c59190612373565b8b8b6105d26001856122bf565b8181106105e1576105e16122d2565b905060200201359350935050509a509a98505050505050505050565b606080606080606080606080886108b7578a60058b61061d82602761238e565b9261062a939291906123a1565b8080601f0160208091040260200160405190810160405280939291908181526020018383808284375f92019190915250929a508d9250600291508c905061067282600361238e565b9261067f939291906123a1565b8080601f0160208091040260200160405190810160405280939291908181526020018383808284375f920191909152509299508d9250603691508c90506106c782600361238e565b926106d4939291906123a1565b8080601f0160208091040260200160405190810160405280939291908181526020018383808284375f920191909152509298508d9250604091508c905061071c82600161238e565b92610729939291906123a1565b8080601f0160208091040260200160405190810160405280939291908181526020018383808284375f920191909152509297508d9250603991508c905061077182600661238e565b9261077e939291906123a1565b8080601f0160208091040260200160405190810160405280939291908181526020018383808284375f920191909152509296508d9250604191508c90506107c682600661238e565b926107d3939291906123a1565b8080601f0160208091040260200160405190810160405280939291908181526020018383808284375f920191909152509295508d9250602c91508c905061081b82600961238e565b92610828939291906123a1565b8080601f0160208091040260200160405190810160405280939291908181526020018383808284375f9201829052509395508e9392508d915061086e905082600261238e565b9261087b939291906123a1565b8080601f0160208091040260200160405190810160405280939291908181526020018383808284375f92019190915250929350610b5b92505050565b8a603c8b6108c682601e61238e565b926108d3939291906123a1565b8080601f0160208091040260200160405190810160405280939291908181526020018383808284375f92019190915250929a508d9250600291508c905061091b82600361238e565b92610928939291906123a1565b8080601f0160208091040260200160405190810160405280939291908181526020018383808284375f920191909152509299508d9250602d91508c905061097082600361238e565b9261097d939291906123a1565b8080601f0160208091040260200160405190810160405280939291908181526020018383808284375f920191909152509298508d9250602591508c90506109c582600161238e565b926109d2939291906123a1565b8080601f0160208091040260200160405190810160405280939291908181526020018383808284375f920191909152509297508d9250601e91508c9050610a1a82600661238e565b92610a27939291906123a1565b8080601f0160208091040260200160405190810160405280939291908181526020018383808284375f920191909152509296508d9250602691508c9050610a6f82600661238e565b92610a7c939291906123a1565b8080601f0160208091040260200160405190810160405280939291908181526020018383808284375f920191909152509295508d9250600591508c9050610ac482600961238e565b92610ad1939291906123a1565b8080601f0160208091040260200160405190810160405280939291908181526020018383808284375f9201829052509395508e9392508d9150610b17905082600261238e565b92610b24939291906123a1565b8080601f0160208091040260200160405190810160405280939291908181526020018383808284375f920191909152509293505050505b9397509397509397509397565b60605f80805b85811015610d4e57868682818110610b8857610b886122d2565b90506020020135610259148015610be15750846007811115610bac57610bac6123c8565b60f81b6001600160f81b031916898985818110610bcb57610bcb6122d2565b9050013560f81c60f81b6001600160f81b031916145b15610d20576040805160c8808252611920820190925290816020015b6060815260200190600190039081610bfd5790505093505f5b60c8811015610d1a578989610c2c8360036123dc565b610c36908761238e565b610c4190600161238e565b818110610c5057610c506122d2565b909101356001600160f81b031916159050610d1a578989610c728360036123dc565b610c7c908761238e565b610c8790600161238e565b90610c938460036123dc565b610c9d908861238e565b610ca890600361238e565b610cb390600161238e565b92610cc0939291906123a1565b8080601f0160208091040260200160405190810160405280939291908181526020018383808284375f920191909152505087518892508491508110610d0757610d076122d2565b6020908102919091010152600101610c16565b50600191505b868682818110610d3257610d326122d2565b9050602002013583610d44919061238e565b9250600101610b6e565b5080610d9c5760405162461bcd60e51b815260206004820152601e60248201527f436f756e7472792070726f6f6620696e70757473206e6f7420666f756e6400006044820152606401610358565b505095945050505050565b5f546001600160a01b03163314610dd05760405162461bcd60e51b8152600401610358906123f3565b5f8054821515600160a01b0260ff60a01b199091161790556040517f9a506b30e47f3823b09f67e4c0dfa5c3d8023b71825b7ceaa97677129128c9c590610e1c90831515815260200190565b60405180910390a150565b5f546001600160a01b03163314610e505760405162461bcd60e51b8152600401610358906123f3565b5f81815260026020526040808220805460ff191660011790555182917f28b645e250fa5c9d240590b408225ec310e29b861312e75a76b0d55f7d927a2f91a250565b5f546001600160a01b03163314610ebb5760405162461bcd60e51b8152600401610358906123f3565b6001600160a01b038116610f115760405162461bcd60e51b815260206004820152601c60248201527f41646d696e2063616e6e6f74206265207a65726f2061646472657373000000006044820152606401610358565b5f80546001600160a01b038381166001600160a01b0319831681178455604051919092169283917f101b8081ff3b56bbf45deb824d86a3b0fd38b7e3dd42421105cf8abe9106db0b9190a35050565b5f546001600160a01b03163314610f895760405162461bcd60e51b8152600401610358906123f3565b5f81815260026020526040808220805460ff191690555182917fc4da3a189adfa305afb4c073f96be9bd96f1ebea4e42a5e7e2e98818509a682791a250565b5f546001600160a01b03163314610ff15760405162461bcd60e51b8152600401610358906123f3565b5f54600160a01b900460ff161561103f5760405162461bcd60e51b815260206004820152601260248201527110dbdb9d1c9858dd081a5cc81c185d5cd95960721b6044820152606401610358565b5f5b818110156110d15760015f84848481811061105e5761105e6122d2565b602090810292909201358352508101919091526040015f2080546001600160a01b0319169055828282818110611096576110966122d2565b905060200201357f6fdcbcf8f91bc23f2c9dcfe8fe01d80d1b1afbbf207298e94c0171ccc587424c60405160405180910390a2600101611041565b505050565b5f546001600160a01b031633146110ff5760405162461bcd60e51b8152600401610358906123f3565b5f54600160a01b900460ff161561114d5760405162461bcd60e51b815260206004820152601260248201527110dbdb9d1c9858dd081a5cc81c185d5cd95960721b6044820152606401610358565b5f5b8381101561124757828282818110611169576111696122d2565b905060200201602081019061117e9190612185565b60015f878785818110611193576111936122d2565b9050602002013581526020019081526020015f205f6101000a8154816001600160a01b0302191690836001600160a01b031602179055508282828181106111dc576111dc6122d2565b90506020020160208101906111f19190612185565b6001600160a01b031685858381811061120c5761120c6122d2565b905060200201357f636107338a3eb46f1f60562462f3ec11393d35fbc965991aaade3b9e7d89c3f560405160405180910390a360010161114f565b5050505050565b5f80808080805b868110156113d05787878281811061126f5761126f6122d2565b90506020020135600b036113a257600160f81b8a8a85818110611294576112946122d2565b9050013560f81c60f81b6001600160f81b031916146112ea5760405162461bcd60e51b8152602060048201526012602482015271496e76616c69642070726f6f66207479706560701b6044820152606401610358565b61134c8a8a6112fa86600161238e565b9061130687600961238e565b92611313939291906123a1565b8080601f0160208091040260200160405190810160405280939291908181526020018383808284375f9201919091525061195092505050565b9550898961135b85600961238e565b81811061136a5761136a6122d2565b919091013560f81c95508a90508961138385600a61238e565b818110611392576113926122d2565b919091013560f81c945060019250505b8787828181106113b4576113b46122d2565b90506020020135836113c6919061238e565b9250600101611255565b508061141e5760405162461bcd60e51b815260206004820152601a60248201527f4167652070726f6f6620696e70757473206e6f7420666f756e640000000000006044820152606401610358565b50509450945094915050565b6060805f80805b858110156115b05786868281811061144b5761144b6122d2565b9050602002013560b503611582575f89898581811061146c5761146c6122d2565b9050013560f81c60f81b6001600160f81b031916146114c25760405162461bcd60e51b8152602060048201526012602482015271496e76616c69642070726f6f66207479706560701b6044820152606401610358565b88886114cf85600161238e565b906114db86605b61238e565b926114e8939291906123a1565b8080601f0160208091040260200160405190810160405280939291908181526020018383808284375f920191909152509297508b92508a915061152e905085605b61238e565b9061153a8660b561238e565b92611547939291906123a1565b8080601f0160208091040260200160405190810160405280939291908181526020018383808284375f92019190915250929650600194505050505b868682818110611594576115946122d2565b90506020020135836115a6919061238e565b9250600101611431565b50806115fe5760405162461bcd60e51b815260206004820152601f60248201527f446973636c6f73652070726f6f6620696e70757473206e6f7420666f756e64006044820152606401610358565b505094509492505050565b5f80808080805b878110156117085788888281811061162a5761162a6122d2565b905060200201356019148015611682575086600781111561164d5761164d6123c8565b60f81b6001600160f81b0319168b8b8581811061166c5761166c6122d2565b9050013560f81c60f81b6001600160f81b031916145b156116da576116978b8b6112fa86600161238e565b95506116b58b8b6116a986600961238e565b9061130687601161238e565b94506116d38b8b6116c786601161238e565b9061130687601961238e565b9350600191505b8888828181106116ec576116ec6122d2565b90506020020135836116fe919061238e565b9250600101611610565b50806117565760405162461bcd60e51b815260206004820152601b60248201527f446174652070726f6f6620696e70757473206e6f7420666f756e6400000000006044820152606401610358565b5050955095509592505050565b6040805160088082528183019092525f9182919060208201818036833701905050905060015b60098110156117ec5760f88582815181106117a6576117a66122d2565b6020026020010151901b826001836117be91906122bf565b815181106117ce576117ce6122d2565b60200101906001600160f81b03191690815f1a905350600101611789565b506117f78184611c5f565b9150505b92915050565b5f80805b8351811015611943575f6008600288888690898781518110611829576118296122d2565b60200260200101518861183c919061238e565b92611849939291906123a1565b60405160200161185a92919061242a565b60408051601f198184030181529082905261187491612439565b602060405180830381855afa15801561188f573d5f5f3e3d5ffd5b5050506040513d601f19601f820116820180604052508101906118b2919061244f565b901c90508782815181106118c8576118c86122d2565b602002602001015181146119135760405162461bcd60e51b8152602060048201526012602482015271125b9d985b1a590818dbdb5b5a5d1b595b9d60721b6044820152606401610358565b848281518110611925576119256122d2565b602002602001015183611938919061238e565b925050600101611805565b5060019695505050505050565b604080518082019091526008815267313131313131313160c01b6020918201528151908201205f907fc21a5c94d030b6b0ea6834442967d237d4cc49a2b74bbb3846572bb3c8021a30016119a557505f919050565b5f6119d0836003815181106119bc576119bc6122d2565b01602001516001600160f81b031916611ca9565b6119e6846002815181106119bc576119bc6122d2565b6119f190600a6123dc565b611a07856001815181106119bc576119bc6122d2565b611a129060646123dc565b611a27865f815181106119bc576119bc6122d2565b611a33906103e86123dc565b611a3d919061238e565b611a47919061238e565b611a51919061238e565b90505f611a6a846005815181106119bc576119bc6122d2565b611a80856004815181106119bc576119bc6122d2565b611a8b90600a6123dc565b611a95919061238e565b90505f611aae856007815181106119bc576119bc6122d2565b611ac4866006815181106119bc576119bc6122d2565b611acf90600a6123dc565b611ad9919061238e565b90506107b2831015611b265760405162461bcd60e51b81526020600482015260166024820152750b2cac2e440c4caccdee4ca40aa9c92b040cae0dec6d60531b6044820152606401610358565b60018210158015611b385750600c8211155b611b745760405162461bcd60e51b815260206004820152600d60248201526c092dcecc2d8d2c840dadedce8d609b1b6044820152606401610358565b60018110158015611b8e5750611b8a8284611cc2565b8111155b611bc85760405162461bcd60e51b815260206004820152600b60248201526a496e76616c69642064617960a81b6044820152606401610358565b5f6107b25b84811015611c0657611bde81611d75565b611bea5761016d611bee565b61016e5b611bfc9061ffff168361238e565b9150600101611bcd565b5060015b83811015611c3057611c1c8186611cc2565b611c26908361238e565b9150600101611c0a565b50611c3c6001836122bf565b611c46908261238e565b9050611c5562015180826123dc565b9695505050505050565b5f5f611c6a84611950565b90505f611c7a62015180856123dc565b611c84908361238e565b9050814210158015611c9557508181115b8015611ca057504281115b95945050505050565b5f611cb9603060f884901c612466565b60ff1692915050565b5f60018310158015611cd55750600c8311155b611d115760405162461bcd60e51b815260206004820152600d60248201526c092dcecc2d8d2c840dadedce8d609b1b6044820152606401610358565b82600203611d3a57611d2282611d75565b611d2d57601c611d30565b601d5b60ff1690506117fb565b8260041480611d495750826006145b80611d545750826009145b80611d5f575082600b145b15611d6c5750601e6117fb565b50601f92915050565b5f611d8160048361247f565b15611d8d57505f919050565b611d9860648361247f565b15611da557506001919050565b611db16101908361247f565b15611dbd57505f919050565b506001919050565b5f5f83601f840112611dd5575f5ffd5b5081356001600160401b03811115611deb575f5ffd5b602083019150836020828501011115611e02575f5ffd5b9250929050565b5f5f83601f840112611e19575f5ffd5b5081356001600160401b03811115611e2f575f5ffd5b6020830191508360208260051b8501011115611e02575f5ffd5b5f5f5f5f5f5f5f5f5f5f60c08b8d031215611e62575f5ffd5b8a35995060208b01356001600160401b03811115611e7e575f5ffd5b611e8a8d828e01611dc5565b909a5098505060408b01356001600160401b03811115611ea8575f5ffd5b611eb48d828e01611e09565b90985096505060608b01356001600160401b03811115611ed2575f5ffd5b611ede8d828e01611dc5565b90965094505060808b01356001600160401b03811115611efc575f5ffd5b611f088d828e01611e09565b9b9e9a9d50989b979a96999598949794969560a090950135949350505050565b8015158114611f35575f5ffd5b50565b5f5f5f60408486031215611f4a575f5ffd5b83356001600160401b03811115611f5f575f5ffd5b611f6b86828701611dc5565b9094509250506020840135611f7f81611f28565b809150509250925092565b5f81518084528060208401602086015e5f602082860101526020601f19601f83011685010191505092915050565b61010081525f611fcc61010083018b611f8a565b8281036020840152611fde818b611f8a565b90508281036040840152611ff2818a611f8a565b905082810360608401526120068189611f8a565b9050828103608084015261201a8188611f8a565b905082810360a084015261202e8187611f8a565b905082810360c08401526120428186611f8a565b905082810360e08401526120568185611f8a565b9b9a5050505050505050505050565b5f5f5f5f5f60608688031215612079575f5ffd5b85356001600160401b0381111561208e575f5ffd5b61209a88828901611dc5565b90965094505060208601356001600160401b038111156120b8575f5ffd5b6120c488828901611e09565b9094509250506040860135600881106120db575f5ffd5b809150509295509295909350565b5f602082016020835280845180835260408501915060408160051b8601019250602086015f5b8281101561214057603f1987860301845261212b858351611f8a565b9450602093840193919091019060010161210f565b50929695505050505050565b5f6020828403121561215c575f5ffd5b813561216781611f28565b9392505050565b5f6020828403121561217e575f5ffd5b5035919050565b5f60208284031215612195575f5ffd5b81356001600160a01b0381168114612167575f5ffd5b5f5f602083850312156121bc575f5ffd5b82356001600160401b038111156121d1575f5ffd5b6121dd85828601611e09565b90969095509350505050565b5f5f5f5f604085870312156121fc575f5ffd5b84356001600160401b03811115612211575f5ffd5b61221d87828801611e09565b90955093505060208501356001600160401b0381111561223b575f5ffd5b61224787828801611e09565b95989497509550505050565b5f5f5f5f60408587031215612266575f5ffd5b84356001600160401b0381111561227b575f5ffd5b61221d87828801611dc5565b604081525f6122996040830185611f8a565b8281036020840152611ca08185611f8a565b634e487b7160e01b5f52601160045260245ffd5b818103818111156117fb576117fb6122ab565b634e487b7160e01b5f52603260045260245ffd5b5f5f858511156122f4575f5ffd5b83861115612300575f5ffd5b5050600583901b0193919092039150565b60408152836040820152838560608301375f60608583018101829052601f19601f8701168301838103820160208501529081018490526001600160fb1b0384111561235a575f5ffd5b8360051b80866080840137016080019695505050505050565b5f60208284031215612383575f5ffd5b815161216781611f28565b808201808211156117fb576117fb6122ab565b5f5f858511156123af575f5ffd5b838611156123bb575f5ffd5b5050820193919092039150565b634e487b7160e01b5f52602160045260245ffd5b80820281158282048414176117fb576117fb6122ab565b6020808252601a908201527f4e6f7420617574686f72697a65643a2061646d696e206f6e6c79000000000000604082015260600190565b818382375f9101908152919050565b5f82518060208501845e5f920191825250919050565b5f6020828403121561245f575f5ffd5b5051919050565b60ff82811682821603908111156117fb576117fb6122ab565b5f8261249957634e487b7160e01b5f52601260045260245ffd5b50069056fea26469706673582212209cfd91a22fa136654cd658f8246011392c2bb56ce421f14dd5d1991e0d19e43b64736f6c634300081d0033",
    "linkReferences": {}
  },
  "methodIdentifiers": {
    "addCertificateRegistryRoot(bytes32)": "3a316e62",
    "addVerifiers(bytes32[],address[])": "a6df2c01",
    "admin()": "f851a440",
    "getAgeProofInputs(bytes,uint256[])": "b2b37a4c",
    "getCountryProofInputs(bytes,uint256[],uint8)": "126f7559",
    "getDateProofInputs(bytes,uint256[],uint8)": "ec1374cd",
    "getDiscloseProofInputs(bytes,uint256[])": "ddf3eec9",
    "getDisclosedData(bytes,bool)": "03d37eae",
    "isValidCertificateRegistryRoot(bytes32)": "45e21c90",
    "paused()": "5c975abb",
    "removeCertificateRegistryRoot(bytes32)": "886c3533",
    "removeVerifiers(bytes32[])": "8d6937b8",
    "setPaused(bool)": "16c38b3c",
    "transferAdmin(address)": "75829def",
    "verifyProof(bytes32,bytes,bytes32[],bytes,uint256[],uint256)": "032fda09",
    "vkeyHashToVerifier(bytes32)": "8163f231"
  },
  "id": 22
}