{
  "abi": [
    {
      "type": "constructor",
      "inputs": [],
      "stateMutability": "nonpayable"
    },
    {
      "type": "function",
      "name": "addCertificateRegistryRoot",
      "inputs": [
        {
          "name": "certificateRegistryRoot",
          "type": "bytes32",
          "internalType": "bytes32"
        }
      ],
      "outputs": [],
      "stateMutability": "nonpayable"
    },
    {
      "type": "function",
      "name": "addVerifiers",
      "inputs": [
        {
          "name": "vkeyHashes",
          "type": "bytes32[]",
          "internalType": "bytes32[]"
        },
        {
          "name": "verifiers",
          "type": "address[]",
          "internalType": "address[]"
        }
      ],
      "outputs": [],
      "stateMutability": "nonpayable"
    },
    {
      "type": "function",
      "name": "admin",
      "inputs": [],
      "outputs": [
        {
          "name": "",
          "type": "address",
          "internalType": "address"
        }
      ],
      "stateMutability": "view"
    },
    {
      "type": "function",
      "name": "getAgeProofInputs",
      "inputs": [
        {
          "name": "committedInputs",
          "type": "bytes",
          "internalType": "bytes"
        },
        {
          "name": "committedInputCounts",
          "type": "uint256[]",
          "internalType": "uint256[]"
        }
      ],
      "outputs": [
        {
          "name": "currentDate",
          "type": "uint256",
          "internalType": "uint256"
        },
        {
          "name": "minAge",
          "type": "uint8",
          "internalType": "uint8"
        },
        {
          "name": "maxAge",
          "type": "uint8",
          "internalType": "uint8"
        }
      ],
      "stateMutability": "pure"
    },
    {
      "type": "function",
      "name": "getCountryProofInputs",
      "inputs": [
        {
          "name": "committedInputs",
          "type": "bytes",
          "internalType": "bytes"
        },
        {
          "name": "committedInputCounts",
          "type": "uint256[]",
          "internalType": "uint256[]"
        },
        {
          "name": "proofType",
          "type": "uint8",
          "internalType": "enum ProofType"
        }
      ],
      "outputs": [
        {
          "name": "countryList",
          "type": "string[]",
          "internalType": "string[]"
        }
      ],
      "stateMutability": "pure"
    },
    {
      "type": "function",
      "name": "getDateProofInputs",
      "inputs": [
        {
          "name": "committedInputs",
          "type": "bytes",
          "internalType": "bytes"
        },
        {
          "name": "committedInputCounts",
          "type": "uint256[]",
          "internalType": "uint256[]"
        },
        {
          "name": "proofType",
          "type": "uint8",
          "internalType": "enum ProofType"
        }
      ],
      "outputs": [
        {
          "name": "currentDate",
          "type": "uint256",
          "internalType": "uint256"
        },
        {
          "name": "minDate",
          "type": "uint256",
          "internalType": "uint256"
        },
        {
          "name": "maxDate",
          "type": "uint256",
          "internalType": "uint256"
        }
      ],
      "stateMutability": "pure"
    },
    {
      "type": "function",
      "name": "getDiscloseProofInputs",
      "inputs": [
        {
          "name": "committedInputs",
          "type": "bytes",
          "internalType": "bytes"
        },
        {
          "name": "committedInputCounts",
          "type": "uint256[]",
          "internalType": "uint256[]"
        }
      ],
      "outputs": [
        {
          "name": "discloseMask",
          "type": "bytes",
          "internalType": "bytes"
        },
        {
          "name": "discloseBytes",
          "type": "bytes",
          "internalType": "bytes"
        }
      ],
      "stateMutability": "pure"
    },
    {
      "type": "function",
      "name": "getDisclosedData",
      "inputs": [
        {
          "name": "discloseBytes",
          "type": "bytes",
          "internalType": "bytes"
        },
        {
          "name": "isIDCard",
          "type": "bool",
          "internalType": "bool"
        }
      ],
      "outputs": [
        {
          "name": "name",
          "type": "string",
          "internalType": "string"
        },
        {
          "name": "issuingCountry",
          "type": "string",
          "internalType": "string"
        },
        {
          "name": "nationality",
          "type": "string",
          "internalType": "string"
        },
        {
          "name": "gender",
          "type": "string",
          "internalType": "string"
        },
        {
          "name": "birthDate",
          "type": "string",
          "internalType": "string"
        },
        {
          "name": "expiryDate",
          "type": "string",
          "internalType": "string"
        },
        {
          "name": "documentNumber",
          "type": "string",
          "internalType": "string"
        },
        {
          "name": "documentType",
          "type": "string",
          "internalType": "string"
        }
      ],
      "stateMutability": "pure"
    },
    {
      "type": "function",
      "name": "isValidCertificateRegistryRoot",
      "inputs": [
        {
          "name": "",
          "type": "bytes32",
          "internalType": "bytes32"
        }
      ],
      "outputs": [
        {
          "name": "",
          "type": "bool",
          "internalType": "bool"
        }
      ],
      "stateMutability": "view"
    },
    {
      "type": "function",
      "name": "paused",
      "inputs": [],
      "outputs": [
        {
          "name": "",
          "type": "bool",
          "internalType": "bool"
        }
      ],
      "stateMutability": "view"
    },
    {
      "type": "function",
      "name": "removeCertificateRegistryRoot",
      "inputs": [
        {
          "name": "certificateRegistryRoot",
          "type": "bytes32",
          "internalType": "bytes32"
        }
      ],
      "outputs": [],
      "stateMutability": "nonpayable"
    },
    {
      "type": "function",
      "name": "removeVerifiers",
      "inputs": [
        {
          "name": "vkeyHashes",
          "type": "bytes32[]",
          "internalType": "bytes32[]"
        }
      ],
      "outputs": [],
      "stateMutability": "nonpayable"
    },
    {
      "type": "function",
      "name": "setPaused",
      "inputs": [
        {
          "name": "_paused",
          "type": "bool",
          "internalType": "bool"
        }
      ],
      "outputs": [],
      "stateMutability": "nonpayable"
    },
    {
      "type": "function",
      "name": "transferAdmin",
      "inputs": [
        {
          "name": "newAdmin",
          "type": "address",
          "internalType": "address"
        }
      ],
      "outputs": [],
      "stateMutability": "nonpayable"
    },
    {
      "type": "function",
      "name": "verifyProof",
      "inputs": [
        {
          "name": "params",
          "type": "tuple",
          "internalType": "struct ProofVerificationParams",
          "components": [
            {
              "name": "vkeyHash",
              "type": "bytes32",
              "internalType": "bytes32"
            },
            {
              "name": "proof",
              "type": "bytes",
              "internalType": "bytes"
            },
            {
              "name": "publicInputs",
              "type": "bytes32[]",
              "internalType": "bytes32[]"
            },
            {
              "name": "committedInputs",
              "type": "bytes",
              "internalType": "bytes"
            },
            {
              "name": "committedInputCounts",
              "type": "uint256[]",
              "internalType": "uint256[]"
            },
            {
              "name": "validityPeriodInDays",
              "type": "uint256",
              "internalType": "uint256"
            },
            {
              "name": "scope",
              "type": "string",
              "internalType": "string"
            },
            {
              "name": "subscope",
              "type": "string",
              "internalType": "string"
            }
          ]
        }
      ],
      "outputs": [
        {
          "name": "",
          "type": "bool",
          "internalType": "bool"
        },
        {
          "name": "",
          "type": "bytes32",
          "internalType": "bytes32"
        }
      ],
      "stateMutability": "view"
    },
    {
      "type": "function",
      "name": "verifyScopes",
      "inputs": [
        {
          "name": "publicInputs",
          "type": "bytes32[]",
          "internalType": "bytes32[]"
        },
        {
          "name": "scope",
          "type": "string",
          "internalType": "string"
        },
        {
          "name": "subscope",
          "type": "string",
          "internalType": "string"
        }
      ],
      "outputs": [
        {
          "name": "",
          "type": "bool",
          "internalType": "bool"
        }
      ],
      "stateMutability": "pure"
    },
    {
      "type": "function",
      "name": "vkeyHashToVerifier",
      "inputs": [
        {
          "name": "",
          "type": "bytes32",
          "internalType": "bytes32"
        }
      ],
      "outputs": [
        {
          "name": "",
          "type": "address",
          "internalType": "address"
        }
      ],
      "stateMutability": "view"
    },
    {
      "type": "event",
      "name": "AdminUpdated",
      "inputs": [
        {
          "name": "oldAdmin",
          "type": "address",
          "indexed": true,
          "internalType": "address"
        },
        {
          "name": "newAdmin",
          "type": "address",
          "indexed": true,
          "internalType": "address"
        }
      ],
      "anonymous": false
    },
    {
      "type": "event",
      "name": "CertificateRegistryRootAdded",
      "inputs": [
        {
          "name": "certificateRegistryRoot",
          "type": "bytes32",
          "indexed": true,
          "internalType": "bytes32"
        }
      ],
      "anonymous": false
    },
    {
      "type": "event",
      "name": "CertificateRegistryRootRemoved",
      "inputs": [
        {
          "name": "certificateRegistryRoot",
          "type": "bytes32",
          "indexed": true,
          "internalType": "bytes32"
        }
      ],
      "anonymous": false
    },
    {
      "type": "event",
      "name": "PausedStatusChanged",
      "inputs": [
        {
          "name": "paused",
          "type": "bool",
          "indexed": false,
          "internalType": "bool"
        }
      ],
      "anonymous": false
    },
    {
      "type": "event",
      "name": "VerifierAdded",
      "inputs": [
        {
          "name": "vkeyHash",
          "type": "bytes32",
          "indexed": true,
          "internalType": "bytes32"
        },
        {
          "name": "verifier",
          "type": "address",
          "indexed": true,
          "internalType": "address"
        }
      ],
      "anonymous": false
    },
    {
      "type": "event",
      "name": "VerifierRemoved",
      "inputs": [
        {
          "name": "vkeyHash",
          "type": "bytes32",
          "indexed": true,
          "internalType": "bytes32"
        }
      ],
      "anonymous": false
    },
    {
      "type": "event",
      "name": "ZKPassportVerifierDeployed",
      "inputs": [
        {
          "name": "admin",
          "type": "address",
          "indexed": true,
          "internalType": "address"
        },
        {
          "name": "timestamp",
          "type": "uint256",
          "indexed": false,
          "internalType": "uint256"
        }
      ],
      "anonymous": false
    }
  ],
  "bytecode": {
    "object": "0x6080604052348015600e575f5ffd5b505f80546001600160a01b031916339081179091556040514281527ff29b53747ae7121d0958d490ad3d5cf6767119b0fdbd8389d918de3a12cf5a299060200160405180910390a26127fa806100635f395ff3fe608060405234801561000f575f5ffd5b5060043610610106575f3560e01c80638163f2311161009e578063a6df2c011161006e578063a6df2c011461027d578063b2b37a4c14610290578063ddf3eec9146102c2578063ec1374cd146102e3578063f851a44014610311575f5ffd5b80638163f23114610204578063847755e314610244578063886c3533146102575780638d6937b81461026a575f5ffd5b80633a316e62116100d95780633a316e621461019957806345e21c90146101ac5780635c975abb146101de57806375829def146101f1575f5ffd5b806303d37eae1461010a578063126f75591461013a57806316c38b3c1461015a57806333fbc14d1461016f575b5f5ffd5b61011d610118366004612098565b610323565b604051610131989796959493929190612118565b60405180910390f35b61014d610148366004612205565b61088e565b6040516101319190612289565b61016d6101683660046122ec565b610ad2565b005b61018261017d36600461230e565b610b52565b604080519215158352602083019190915201610131565b61016d6101a7366004612345565b610e13565b6101ce6101ba366004612345565b60026020525f908152604090205460ff1681565b6040519015158152602001610131565b5f546101ce90600160a01b900460ff1681565b61016d6101ff36600461235c565b610ea7565b61022c610212366004612345565b60016020525f90815260409020546001600160a01b031681565b6040516001600160a01b039091168152602001610131565b6101ce610252366004612382565b610f75565b61016d610265366004612345565b61113d565b61016d61027836600461241e565b6111ce565b61016d61028b36600461245c565b6112b7565b6102a361029e3660046124c6565b61140a565b6040805193845260ff9283166020850152911690820152606001610131565b6102d56102d03660046124c6565b6115e6565b6040516101319291906124fa565b6102f66102f1366004612205565b6117c5565b60408051938452602084019290925290820152606001610131565b5f5461022c906001600160a01b031681565b606080606080606080606080886105dd578a60058b610343826027612532565b9261035093929190612545565b8080601f0160208091040260200160405190810160405280939291908181526020018383808284375f92019190915250929a508d9250600291508c9050610398826003612532565b926103a593929190612545565b8080601f0160208091040260200160405190810160405280939291908181526020018383808284375f920191909152509299508d9250603691508c90506103ed826003612532565b926103fa93929190612545565b8080601f0160208091040260200160405190810160405280939291908181526020018383808284375f920191909152509298508d9250604091508c9050610442826001612532565b9261044f93929190612545565b8080601f0160208091040260200160405190810160405280939291908181526020018383808284375f920191909152509297508d9250603991508c9050610497826006612532565b926104a493929190612545565b8080601f0160208091040260200160405190810160405280939291908181526020018383808284375f920191909152509296508d9250604191508c90506104ec826006612532565b926104f993929190612545565b8080601f0160208091040260200160405190810160405280939291908181526020018383808284375f920191909152509295508d9250602c91508c9050610541826009612532565b9261054e93929190612545565b8080601f0160208091040260200160405190810160405280939291908181526020018383808284375f9201829052509395508e9392508d91506105949050826002612532565b926105a193929190612545565b8080601f0160208091040260200160405190810160405280939291908181526020018383808284375f9201919091525092935061088192505050565b8a603c8b6105ec82601e612532565b926105f993929190612545565b8080601f0160208091040260200160405190810160405280939291908181526020018383808284375f92019190915250929a508d9250600291508c9050610641826003612532565b9261064e93929190612545565b8080601f0160208091040260200160405190810160405280939291908181526020018383808284375f920191909152509299508d9250602d91508c9050610696826003612532565b926106a393929190612545565b8080601f0160208091040260200160405190810160405280939291908181526020018383808284375f920191909152509298508d9250602591508c90506106eb826001612532565b926106f893929190612545565b8080601f0160208091040260200160405190810160405280939291908181526020018383808284375f920191909152509297508d9250601e91508c9050610740826006612532565b9261074d93929190612545565b8080601f0160208091040260200160405190810160405280939291908181526020018383808284375f920191909152509296508d9250602691508c9050610795826006612532565b926107a293929190612545565b8080601f0160208091040260200160405190810160405280939291908181526020018383808284375f920191909152509295508d9250600591508c90506107ea826009612532565b926107f793929190612545565b8080601f0160208091040260200160405190810160405280939291908181526020018383808284375f9201829052509395508e9392508d915061083d9050826002612532565b9261084a93929190612545565b8080601f0160208091040260200160405190810160405280939291908181526020018383808284375f920191909152509293505050505b9397509397509397509397565b60605f80805b85811015610a74578686828181106108ae576108ae61256c565b9050602002013561025914801561090757508460078111156108d2576108d2612580565b60f81b6001600160f81b0319168989858181106108f1576108f161256c565b9050013560f81c60f81b6001600160f81b031916145b15610a46576040805160c8808252611920820190925290816020015b60608152602001906001900390816109235790505093505f5b60c8811015610a40578989610952836003612594565b61095c9087612532565b610967906001612532565b8181106109765761097661256c565b909101356001600160f81b031916159050610a40578989610998836003612594565b6109a29087612532565b6109ad906001612532565b906109b9846003612594565b6109c39088612532565b6109ce906003612532565b6109d9906001612532565b926109e693929190612545565b8080601f0160208091040260200160405190810160405280939291908181526020018383808284375f920191909152505087518892508491508110610a2d57610a2d61256c565b602090810291909101015260010161093c565b50600191505b868682818110610a5857610a5861256c565b9050602002013583610a6a9190612532565b9250600101610894565b5080610ac75760405162461bcd60e51b815260206004820152601e60248201527f436f756e7472792070726f6f6620696e70757473206e6f7420666f756e64000060448201526064015b60405180910390fd5b505095945050505050565b5f546001600160a01b03163314610afb5760405162461bcd60e51b8152600401610abe906125ab565b5f8054821515600160a01b0260ff60a01b199091161790556040517f9a506b30e47f3823b09f67e4c0dfa5c3d8023b71825b7ceaa97677129128c9c590610b4790831515815260200190565b60405180910390a150565b5f8080610b5f843561191f565b90505f6010610b7160408701876125e2565b610b7c929150612627565b9050610baa610b8e60408701876125e2565b5f818110610b9e57610b9e61256c565b9050602002013561197e565b610bf4610bba60408701876125e2565b808060200260200160405190810160405280939291908181526020018383602002808284375f9201919091525050505060a08701356119e8565b610c405760405162461bcd60e51b815260206004820181905260248201527f50726f6f662065787069726564206f72206461746520697320696e76616c69646044820152606401610abe565b610c6a610c5060408701876125e2565b610c5d60c089018961263a565b61025260e08b018b61263a565b610ca75760405162461bcd60e51b815260206004820152600e60248201526d496e76616c69642073636f70657360901b6044820152606401610abe565b610d53610cb760408701876125e2565b600b90610cc5600186612627565b92610cd29392919061267c565b808060200260200160405190810160405280939291908181526020018383602002808284375f92019190915250610d1092505050606088018861263a565b610d1d60808a018a6125e2565b808060200260200160405190810160405280939291908181526020018383602002808284375f92019190915250611a8492505050565b6001600160a01b03821663ea50d0e4610d6f602088018861263a565b610d7c60408a018a6125e2565b6040518563ffffffff1660e01b8152600401610d9b94939291906126a7565b602060405180830381865afa158015610db6573d5f5f3e3d5ffd5b505050506040513d601f19601f82011682018060405250810190610dda9190612709565b610de760408701876125e2565b610df2600185612627565b818110610e0157610e0161256c565b90506020020135935093505050915091565b5f546001600160a01b03163314610e3c5760405162461bcd60e51b8152600401610abe906125ab565b5f54600160a01b900460ff1615610e655760405162461bcd60e51b8152600401610abe90612724565b5f81815260026020526040808220805460ff191660011790555182917f28b645e250fa5c9d240590b408225ec310e29b861312e75a76b0d55f7d927a2f91a250565b5f546001600160a01b03163314610ed05760405162461bcd60e51b8152600401610abe906125ab565b6001600160a01b038116610f265760405162461bcd60e51b815260206004820152601c60248201527f41646d696e2063616e6e6f74206265207a65726f2061646472657373000000006044820152606401610abe565b5f80546001600160a01b038381166001600160a01b0319831681178455604051919092169283917f101b8081ff3b56bbf45deb824d86a3b0fd38b7e3dd42421105cf8abe9106db0b9190a35050565b5f5f610fb586868080601f0160208091040260200160405190810160405280939291908181526020018383808284375f92019190915250611bcd92505050565b61102f57600860028787604051602001610fd0929190612750565b60408051601f1981840301815290829052610fea9161275f565b602060405180830381855afa158015611005573d5f5f3e3d5ffd5b5050506040513d601f19601f820116820180604052508101906110289190612775565b901b611031565b5f5b90505f61107285858080601f0160208091040260200160405190810160405280939291908181526020018383808284375f92019190915250611bcd92505050565b6110ec5760086002868660405160200161108d929190612750565b60408051601f19818403018152908290526110a79161275f565b602060405180830381855afa1580156110c2573d5f5f3e3d5ffd5b5050506040513d601f19601f820116820180604052508101906110e59190612775565b901b6110ee565b5f5b905081898960098181106111045761110461256c565b905060200201351480156111305750808989600a8181106111275761112761256c565b90506020020135145b9998505050505050505050565b5f546001600160a01b031633146111665760405162461bcd60e51b8152600401610abe906125ab565b5f54600160a01b900460ff161561118f5760405162461bcd60e51b8152600401610abe90612724565b5f81815260026020526040808220805460ff191690555182917fc4da3a189adfa305afb4c073f96be9bd96f1ebea4e42a5e7e2e98818509a682791a250565b5f546001600160a01b031633146111f75760405162461bcd60e51b8152600401610abe906125ab565b5f54600160a01b900460ff16156112205760405162461bcd60e51b8152600401610abe90612724565b5f5b818110156112b25760015f84848481811061123f5761123f61256c565b602090810292909201358352508101919091526040015f2080546001600160a01b03191690558282828181106112775761127761256c565b905060200201357f6fdcbcf8f91bc23f2c9dcfe8fe01d80d1b1afbbf207298e94c0171ccc587424c60405160405180910390a2600101611222565b505050565b5f546001600160a01b031633146112e05760405162461bcd60e51b8152600401610abe906125ab565b5f54600160a01b900460ff16156113095760405162461bcd60e51b8152600401610abe90612724565b5f5b83811015611403578282828181106113255761132561256c565b905060200201602081019061133a919061235c565b60015f87878581811061134f5761134f61256c565b9050602002013581526020019081526020015f205f6101000a8154816001600160a01b0302191690836001600160a01b031602179055508282828181106113985761139861256c565b90506020020160208101906113ad919061235c565b6001600160a01b03168585838181106113c8576113c861256c565b905060200201357f636107338a3eb46f1f60562462f3ec11393d35fbc965991aaade3b9e7d89c3f560405160405180910390a360010161130b565b5050505050565b5f80808080805b8681101561158c5787878281811061142b5761142b61256c565b90506020020135600b0361155e57600160f81b8a8a858181106114505761145061256c565b9050013560f81c60f81b6001600160f81b031916146114a65760405162461bcd60e51b8152602060048201526012602482015271496e76616c69642070726f6f66207479706560701b6044820152606401610abe565b6115088a8a6114b6866001612532565b906114c2876009612532565b926114cf93929190612545565b8080601f0160208091040260200160405190810160405280939291908181526020018383808284375f92019190915250611bd292505050565b95508989611517856009612532565b8181106115265761152661256c565b919091013560f81c95508a90508961153f85600a612532565b81811061154e5761154e61256c565b919091013560f81c945060019250505b8787828181106115705761157061256c565b90506020020135836115829190612532565b9250600101611411565b50806115da5760405162461bcd60e51b815260206004820152601a60248201527f4167652070726f6f6620696e70757473206e6f7420666f756e640000000000006044820152606401610abe565b50509450945094915050565b6060805f80805b8581101561176c578686828181106116075761160761256c565b9050602002013560b50361173e575f8989858181106116285761162861256c565b9050013560f81c60f81b6001600160f81b0319161461167e5760405162461bcd60e51b8152602060048201526012602482015271496e76616c69642070726f6f66207479706560701b6044820152606401610abe565b888861168b856001612532565b9061169786605b612532565b926116a493929190612545565b8080601f0160208091040260200160405190810160405280939291908181526020018383808284375f920191909152509297508b92508a91506116ea905085605b612532565b906116f68660b5612532565b9261170393929190612545565b8080601f0160208091040260200160405190810160405280939291908181526020018383808284375f92019190915250929650600194505050505b8686828181106117505761175061256c565b90506020020135836117629190612532565b92506001016115ed565b50806117ba5760405162461bcd60e51b815260206004820152601f60248201527f446973636c6f73652070726f6f6620696e70757473206e6f7420666f756e64006044820152606401610abe565b505094509492505050565b5f80808080805b878110156118c4578888828181106117e6576117e661256c565b90506020020135601914801561183e575086600781111561180957611809612580565b60f81b6001600160f81b0319168b8b858181106118285761182861256c565b9050013560f81c60f81b6001600160f81b031916145b15611896576118538b8b6114b6866001612532565b95506118718b8b611865866009612532565b906114c2876011612532565b945061188f8b8b611883866011612532565b906114c2876019612532565b9350600191505b8888828181106118a8576118a861256c565b90506020020135836118ba9190612532565b92506001016117cc565b50806119125760405162461bcd60e51b815260206004820152601b60248201527f446174652070726f6f6620696e70757473206e6f7420666f756e6400000000006044820152606401610abe565b5050955095509592505050565b5f818152600160205260408120546001600160a01b0316806119785760405162461bcd60e51b815260206004820152601260248201527115995c9a599a595c881b9bdd08199bdd5b9960721b6044820152606401610abe565b92915050565b5f8181526002602052604090205460ff166119e55760405162461bcd60e51b815260206004820152602160248201527f496e76616c696420636572746966696361746520726567697374727920726f6f6044820152601d60fa1b6064820152608401610abe565b50565b6040805160088082528183019092525f9182919060208201818036833701905050905060015b6009811015611a715760f8858281518110611a2b57611a2b61256c565b6020026020010151901b82600183611a439190612627565b81518110611a5357611a5361256c565b60200101906001600160f81b03191690815f1a905350600101611a0e565b50611a7c8184611ee1565b949350505050565b5f805b8251811015611bc5575f6008600287878690888781518110611aab57611aab61256c565b602002602001015188611abe9190612532565b92611acb93929190612545565b604051602001611adc929190612750565b60408051601f1981840301815290829052611af69161275f565b602060405180830381855afa158015611b11573d5f5f3e3d5ffd5b5050506040513d601f19601f82011682018060405250810190611b349190612775565b901c9050868281518110611b4a57611b4a61256c565b60200260200101518114611b955760405162461bcd60e51b8152602060048201526012602482015271125b9d985b1a590818dbdb5b5a5d1b595b9d60721b6044820152606401610abe565b838281518110611ba757611ba761256c565b602002602001015183611bba9190612532565b925050600101611a87565b505050505050565b511590565b604080518082019091526008815267313131313131313160c01b6020918201528151908201205f907fc21a5c94d030b6b0ea6834442967d237d4cc49a2b74bbb3846572bb3c8021a3001611c2757505f919050565b5f611c5283600381518110611c3e57611c3e61256c565b01602001516001600160f81b031916611f2b565b611c6884600281518110611c3e57611c3e61256c565b611c7390600a612594565b611c8985600181518110611c3e57611c3e61256c565b611c94906064612594565b611ca9865f81518110611c3e57611c3e61256c565b611cb5906103e8612594565b611cbf9190612532565b611cc99190612532565b611cd39190612532565b90505f611cec84600581518110611c3e57611c3e61256c565b611d0285600481518110611c3e57611c3e61256c565b611d0d90600a612594565b611d179190612532565b90505f611d3085600781518110611c3e57611c3e61256c565b611d4686600681518110611c3e57611c3e61256c565b611d5190600a612594565b611d5b9190612532565b90506107b2831015611da85760405162461bcd60e51b81526020600482015260166024820152750b2cac2e440c4caccdee4ca40aa9c92b040cae0dec6d60531b6044820152606401610abe565b60018210158015611dba5750600c8211155b611df65760405162461bcd60e51b815260206004820152600d60248201526c092dcecc2d8d2c840dadedce8d609b1b6044820152606401610abe565b60018110158015611e105750611e0c8284611f44565b8111155b611e4a5760405162461bcd60e51b815260206004820152600b60248201526a496e76616c69642064617960a81b6044820152606401610abe565b5f6107b25b84811015611e8857611e6081611ff7565b611e6c5761016d611e70565b61016e5b611e7e9061ffff1683612532565b9150600101611e4f565b5060015b83811015611eb257611e9e8186611f44565b611ea89083612532565b9150600101611e8c565b50611ebe600183612627565b611ec89082612532565b9050611ed76201518082612594565b9695505050505050565b5f5f611eec84611bd2565b90505f611efc6201518085612594565b611f069083612532565b9050814210158015611f1757508181115b8015611f2257504281115b95945050505050565b5f611f3b603060f884901c61278c565b60ff1692915050565b5f60018310158015611f575750600c8311155b611f935760405162461bcd60e51b815260206004820152600d60248201526c092dcecc2d8d2c840dadedce8d609b1b6044820152606401610abe565b82600203611fbc57611fa482611ff7565b611faf57601c611fb2565b601d5b60ff169050611978565b8260041480611fcb5750826006145b80611fd65750826009145b80611fe1575082600b145b15611fee5750601e611978565b50601f92915050565b5f6120036004836127a5565b1561200f57505f919050565b61201a6064836127a5565b1561202757506001919050565b612033610190836127a5565b1561203f57505f919050565b506001919050565b5f5f83601f840112612057575f5ffd5b5081356001600160401b0381111561206d575f5ffd5b602083019150836020828501011115612084575f5ffd5b9250929050565b80151581146119e5575f5ffd5b5f5f5f604084860312156120aa575f5ffd5b83356001600160401b038111156120bf575f5ffd5b6120cb86828701612047565b90945092505060208401356120df8161208b565b809150509250925092565b5f81518084528060208401602086015e5f602082860101526020601f19601f83011685010191505092915050565b61010081525f61212c61010083018b6120ea565b828103602084015261213e818b6120ea565b90508281036040840152612152818a6120ea565b9050828103606084015261216681896120ea565b9050828103608084015261217a81886120ea565b905082810360a084015261218e81876120ea565b905082810360c08401526121a281866120ea565b905082810360e08401526121b681856120ea565b9b9a5050505050505050505050565b5f5f83601f8401126121d5575f5ffd5b5081356001600160401b038111156121eb575f5ffd5b6020830191508360208260051b8501011115612084575f5ffd5b5f5f5f5f5f60608688031215612219575f5ffd5b85356001600160401b0381111561222e575f5ffd5b61223a88828901612047565b90965094505060208601356001600160401b03811115612258575f5ffd5b612264888289016121c5565b90945092505060408601356008811061227b575f5ffd5b809150509295509295909350565b5f602082016020835280845180835260408501915060408160051b8601019250602086015f5b828110156122e057603f198786030184526122cb8583516120ea565b945060209384019391909101906001016122af565b50929695505050505050565b5f602082840312156122fc575f5ffd5b81356123078161208b565b9392505050565b5f6020828403121561231e575f5ffd5b81356001600160401b03811115612333575f5ffd5b82016101008185031215612307575f5ffd5b5f60208284031215612355575f5ffd5b5035919050565b5f6020828403121561236c575f5ffd5b81356001600160a01b0381168114612307575f5ffd5b5f5f5f5f5f5f60608789031215612397575f5ffd5b86356001600160401b038111156123ac575f5ffd5b6123b889828a016121c5565b90975095505060208701356001600160401b038111156123d6575f5ffd5b6123e289828a01612047565b90955093505060408701356001600160401b03811115612400575f5ffd5b61240c89828a01612047565b979a9699509497509295939492505050565b5f5f6020838503121561242f575f5ffd5b82356001600160401b03811115612444575f5ffd5b612450858286016121c5565b90969095509350505050565b5f5f5f5f6040858703121561246f575f5ffd5b84356001600160401b03811115612484575f5ffd5b612490878288016121c5565b90955093505060208501356001600160401b038111156124ae575f5ffd5b6124ba878288016121c5565b95989497509550505050565b5f5f5f5f604085870312156124d9575f5ffd5b84356001600160401b038111156124ee575f5ffd5b61249087828801612047565b604081525f61250c60408301856120ea565b8281036020840152611f2281856120ea565b634e487b7160e01b5f52601160045260245ffd5b808201808211156119785761197861251e565b5f5f85851115612553575f5ffd5b8386111561255f575f5ffd5b5050820193919092039150565b634e487b7160e01b5f52603260045260245ffd5b634e487b7160e01b5f52602160045260245ffd5b80820281158282048414176119785761197861251e565b6020808252601a908201527f4e6f7420617574686f72697a65643a2061646d696e206f6e6c79000000000000604082015260600190565b5f5f8335601e198436030181126125f7575f5ffd5b8301803591506001600160401b03821115612610575f5ffd5b6020019150600581901b3603821315612084575f5ffd5b818103818111156119785761197861251e565b5f5f8335601e1984360301811261264f575f5ffd5b8301803591506001600160401b03821115612668575f5ffd5b602001915036819003821315612084575f5ffd5b5f5f8585111561268a575f5ffd5b83861115612696575f5ffd5b5050600583901b0193919092039150565b60408152836040820152838560608301375f60608583018101829052601f19601f8701168301838103820160208501529081018490526001600160fb1b038411156126f0575f5ffd5b8360051b80866080840137016080019695505050505050565b5f60208284031215612719575f5ffd5b81516123078161208b565b60208082526012908201527110dbdb9d1c9858dd081a5cc81c185d5cd95960721b604082015260600190565b818382375f9101908152919050565b5f82518060208501845e5f920191825250919050565b5f60208284031215612785575f5ffd5b5051919050565b60ff82811682821603908111156119785761197861251e565b5f826127bf57634e487b7160e01b5f52601260045260245ffd5b50069056fea26469706673582212203eead11cd67987a1f7940dbd6e1b0340582c3c1345ba647e5d2761bb446278e664736f6c634300081d0033",
    "linkReferences": {}
  },
  "methodIdentifiers": {
    "addCertificateRegistryRoot(bytes32)": "3a316e62",
    "addVerifiers(bytes32[],address[])": "a6df2c01",
    "admin()": "f851a440",
    "getAgeProofInputs(bytes,uint256[])": "b2b37a4c",
    "getCountryProofInputs(bytes,uint256[],uint8)": "126f7559",
    "getDateProofInputs(bytes,uint256[],uint8)": "ec1374cd",
    "getDiscloseProofInputs(bytes,uint256[])": "ddf3eec9",
    "getDisclosedData(bytes,bool)": "03d37eae",
    "isValidCertificateRegistryRoot(bytes32)": "45e21c90",
    "paused()": "5c975abb",
    "removeCertificateRegistryRoot(bytes32)": "886c3533",
    "removeVerifiers(bytes32[])": "8d6937b8",
    "setPaused(bool)": "16c38b3c",
    "transferAdmin(address)": "75829def",
    "verifyProof((bytes32,bytes,bytes32[],bytes,uint256[],uint256,string,string))": "33fbc14d",
    "verifyScopes(bytes32[],string,string)": "847755e3",
    "vkeyHashToVerifier(bytes32)": "8163f231"
  },
  "id": 25
}