{
  "abi": [
    {
      "type": "constructor",
      "inputs": [],
      "stateMutability": "nonpayable"
    },
    {
      "type": "function",
      "name": "addCertificateRegistryRoot",
      "inputs": [
        {
          "name": "certificateRegistryRoot",
          "type": "bytes32",
          "internalType": "bytes32"
        }
      ],
      "outputs": [],
      "stateMutability": "nonpayable"
    },
    {
      "type": "function",
      "name": "addVerifiers",
      "inputs": [
        {
          "name": "vkeyHashes",
          "type": "bytes32[]",
          "internalType": "bytes32[]"
        },
        {
          "name": "verifiers",
          "type": "address[]",
          "internalType": "address[]"
        }
      ],
      "outputs": [],
      "stateMutability": "nonpayable"
    },
    {
      "type": "function",
      "name": "admin",
      "inputs": [],
      "outputs": [
        {
          "name": "",
          "type": "address",
          "internalType": "address"
        }
      ],
      "stateMutability": "view"
    },
    {
      "type": "function",
      "name": "getAgeProofInputs",
      "inputs": [
        {
          "name": "committedInputs",
          "type": "bytes",
          "internalType": "bytes"
        },
        {
          "name": "committedInputCounts",
          "type": "uint256[]",
          "internalType": "uint256[]"
        }
      ],
      "outputs": [
        {
          "name": "currentDate",
          "type": "uint256",
          "internalType": "uint256"
        },
        {
          "name": "minAge",
          "type": "uint8",
          "internalType": "uint8"
        },
        {
          "name": "maxAge",
          "type": "uint8",
          "internalType": "uint8"
        },
        {
          "name": "proofType",
          "type": "string",
          "internalType": "string"
        }
      ],
      "stateMutability": "pure"
    },
    {
      "type": "function",
      "name": "getCountryProofInputs",
      "inputs": [
        {
          "name": "committedInputs",
          "type": "bytes",
          "internalType": "bytes"
        },
        {
          "name": "committedInputCounts",
          "type": "uint256[]",
          "internalType": "uint256[]"
        }
      ],
      "outputs": [
        {
          "name": "countryList",
          "type": "string[]",
          "internalType": "string[]"
        },
        {
          "name": "proofType",
          "type": "string",
          "internalType": "string"
        }
      ],
      "stateMutability": "pure"
    },
    {
      "type": "function",
      "name": "getDateProofInputs",
      "inputs": [
        {
          "name": "committedInputs",
          "type": "bytes",
          "internalType": "bytes"
        },
        {
          "name": "committedInputCounts",
          "type": "uint256[]",
          "internalType": "uint256[]"
        }
      ],
      "outputs": [
        {
          "name": "currentDate",
          "type": "uint256",
          "internalType": "uint256"
        },
        {
          "name": "minDate",
          "type": "uint256",
          "internalType": "uint256"
        },
        {
          "name": "maxDate",
          "type": "uint256",
          "internalType": "uint256"
        },
        {
          "name": "proofType",
          "type": "string",
          "internalType": "string"
        }
      ],
      "stateMutability": "pure"
    },
    {
      "type": "function",
      "name": "getDiscloseProofInputs",
      "inputs": [
        {
          "name": "committedInputs",
          "type": "bytes",
          "internalType": "bytes"
        },
        {
          "name": "committedInputCounts",
          "type": "uint256[]",
          "internalType": "uint256[]"
        }
      ],
      "outputs": [
        {
          "name": "discloseMask",
          "type": "bytes",
          "internalType": "bytes"
        },
        {
          "name": "discloseBytes",
          "type": "bytes",
          "internalType": "bytes"
        },
        {
          "name": "proofType",
          "type": "string",
          "internalType": "string"
        }
      ],
      "stateMutability": "pure"
    },
    {
      "type": "function",
      "name": "getDisclosedData",
      "inputs": [
        {
          "name": "discloseBytes",
          "type": "bytes",
          "internalType": "bytes"
        },
        {
          "name": "isIDCard",
          "type": "bool",
          "internalType": "bool"
        }
      ],
      "outputs": [
        {
          "name": "name",
          "type": "string",
          "internalType": "string"
        },
        {
          "name": "issuingCountry",
          "type": "string",
          "internalType": "string"
        },
        {
          "name": "nationality",
          "type": "string",
          "internalType": "string"
        },
        {
          "name": "gender",
          "type": "string",
          "internalType": "string"
        },
        {
          "name": "birthDate",
          "type": "string",
          "internalType": "string"
        },
        {
          "name": "expiryDate",
          "type": "string",
          "internalType": "string"
        },
        {
          "name": "documentNumber",
          "type": "string",
          "internalType": "string"
        },
        {
          "name": "documentType",
          "type": "string",
          "internalType": "string"
        }
      ],
      "stateMutability": "pure"
    },
    {
      "type": "function",
      "name": "isValidCertificateRegistryRoot",
      "inputs": [
        {
          "name": "",
          "type": "bytes32",
          "internalType": "bytes32"
        }
      ],
      "outputs": [
        {
          "name": "",
          "type": "bool",
          "internalType": "bool"
        }
      ],
      "stateMutability": "view"
    },
    {
      "type": "function",
      "name": "paused",
      "inputs": [],
      "outputs": [
        {
          "name": "",
          "type": "bool",
          "internalType": "bool"
        }
      ],
      "stateMutability": "view"
    },
    {
      "type": "function",
      "name": "proofTypeToName",
      "inputs": [
        {
          "name": "proofType",
          "type": "uint8",
          "internalType": "uint8"
        }
      ],
      "outputs": [
        {
          "name": "",
          "type": "string",
          "internalType": "string"
        }
      ],
      "stateMutability": "pure"
    },
    {
      "type": "function",
      "name": "removeCertificateRegistryRoot",
      "inputs": [
        {
          "name": "certificateRegistryRoot",
          "type": "bytes32",
          "internalType": "bytes32"
        }
      ],
      "outputs": [],
      "stateMutability": "nonpayable"
    },
    {
      "type": "function",
      "name": "removeVerifiers",
      "inputs": [
        {
          "name": "vkeyHashes",
          "type": "bytes32[]",
          "internalType": "bytes32[]"
        }
      ],
      "outputs": [],
      "stateMutability": "nonpayable"
    },
    {
      "type": "function",
      "name": "setPaused",
      "inputs": [
        {
          "name": "_paused",
          "type": "bool",
          "internalType": "bool"
        }
      ],
      "outputs": [],
      "stateMutability": "nonpayable"
    },
    {
      "type": "function",
      "name": "transferAdmin",
      "inputs": [
        {
          "name": "newAdmin",
          "type": "address",
          "internalType": "address"
        }
      ],
      "outputs": [],
      "stateMutability": "nonpayable"
    },
    {
      "type": "function",
      "name": "verifyProof",
      "inputs": [
        {
          "name": "vkeyHash",
          "type": "bytes32",
          "internalType": "bytes32"
        },
        {
          "name": "proof",
          "type": "bytes",
          "internalType": "bytes"
        },
        {
          "name": "publicInputs",
          "type": "bytes32[]",
          "internalType": "bytes32[]"
        },
        {
          "name": "committedInputs",
          "type": "bytes",
          "internalType": "bytes"
        },
        {
          "name": "committedInputCounts",
          "type": "uint256[]",
          "internalType": "uint256[]"
        },
        {
          "name": "validityPeriodInDays",
          "type": "uint256",
          "internalType": "uint256"
        }
      ],
      "outputs": [
        {
          "name": "",
          "type": "bool",
          "internalType": "bool"
        },
        {
          "name": "",
          "type": "bytes32",
          "internalType": "bytes32"
        }
      ],
      "stateMutability": "view"
    },
    {
      "type": "function",
      "name": "vkeyHashToVerifier",
      "inputs": [
        {
          "name": "",
          "type": "bytes32",
          "internalType": "bytes32"
        }
      ],
      "outputs": [
        {
          "name": "",
          "type": "address",
          "internalType": "address"
        }
      ],
      "stateMutability": "view"
    },
    {
      "type": "event",
      "name": "AdminUpdated",
      "inputs": [
        {
          "name": "oldAdmin",
          "type": "address",
          "indexed": true,
          "internalType": "address"
        },
        {
          "name": "newAdmin",
          "type": "address",
          "indexed": true,
          "internalType": "address"
        }
      ],
      "anonymous": false
    },
    {
      "type": "event",
      "name": "CertificateRegistryRootAdded",
      "inputs": [
        {
          "name": "certificateRegistryRoot",
          "type": "bytes32",
          "indexed": true,
          "internalType": "bytes32"
        }
      ],
      "anonymous": false
    },
    {
      "type": "event",
      "name": "CertificateRegistryRootRemoved",
      "inputs": [
        {
          "name": "certificateRegistryRoot",
          "type": "bytes32",
          "indexed": true,
          "internalType": "bytes32"
        }
      ],
      "anonymous": false
    },
    {
      "type": "event",
      "name": "PausedStatusChanged",
      "inputs": [
        {
          "name": "paused",
          "type": "bool",
          "indexed": false,
          "internalType": "bool"
        }
      ],
      "anonymous": false
    },
    {
      "type": "event",
      "name": "VerifierAdded",
      "inputs": [
        {
          "name": "vkeyHash",
          "type": "bytes32",
          "indexed": true,
          "internalType": "bytes32"
        },
        {
          "name": "verifier",
          "type": "address",
          "indexed": true,
          "internalType": "address"
        }
      ],
      "anonymous": false
    },
    {
      "type": "event",
      "name": "VerifierRemoved",
      "inputs": [
        {
          "name": "vkeyHash",
          "type": "bytes32",
          "indexed": true,
          "internalType": "bytes32"
        }
      ],
      "anonymous": false
    },
    {
      "type": "event",
      "name": "ZKPassportVerifierDeployed",
      "inputs": [
        {
          "name": "admin",
          "type": "address",
          "indexed": true,
          "internalType": "address"
        },
        {
          "name": "timestamp",
          "type": "uint256",
          "indexed": false,
          "internalType": "uint256"
        }
      ],
      "anonymous": false
    }
  ],
  "bytecode": {
    "object": "0x6080604052348015600e575f5ffd5b505f80546001600160a01b031916339081179091556040514281527ff29b53747ae7121d0958d490ad3d5cf6767119b0fdbd8389d918de3a12cf5a299060200160405180910390a261271e806100635f395ff3fe608060405234801561000f575f5ffd5b5060043610610106575f3560e01c806375829def1161009e578063a6df2c011161006e578063a6df2c011461028a578063b2b37a4c1461029d578063ddf3eec9146102c0578063f851a440146102e2578063fe60500d146102f4575f5ffd5b806375829def146102115780638163f23114610224578063886c3533146102645780638d6937b814610277575f5ffd5b80633a316e62116100d95780633a316e621461019657806345e21c90146101a95780635c975abb146101db57806366a34cd7146101ee575f5ffd5b8063032fda091461010a57806303d37eae1461013957806316c38b3c146101605780631a798dac14610175575b5f5ffd5b61011d610118366004612058565b610314565b6040805192151583526020830191909152015b60405180910390f35b61014c61014736600461214b565b610610565b6040516101309897969594939291906121cc565b61017361016e366004612279565b610b7b565b005b61018861018336600461229b565b610bfb565b604051610130929190612307565b6101736101a4366004612374565b610ea6565b6101cb6101b7366004612374565b60026020525f908152604090205460ff1681565b6040519015158152602001610130565b5f546101cb90600160a01b900460ff1681565b6102016101fc36600461229b565b610f11565b604051610130949392919061238b565b61017361021f3660046123af565b611102565b61024c610232366004612374565b60016020525f90815260409020546001600160a01b031681565b6040516001600160a01b039091168152602001610130565b610173610272366004612374565b6111d0565b6101736102853660046123d5565b611238565b610173610298366004612414565b611346565b6102b06102ab36600461229b565b6114be565b6040516101309493929190612449565b6102d36102ce36600461229b565b611625565b60405161013093929190612473565b5f5461024c906001600160a01b031681565b6103076103023660046124ab565b6117ec565b60405161013091906124cb565b5f8a81526001602052604081205481906001600160a01b0316806103745760405162461bcd60e51b815260206004820152601260248201527115995c9a599a595c881b9bdd08199bdd5b9960721b60448201526064015b60405180910390fd5b5f61038060108b6124f1565b905060025f8c8c5f81811061039757610397612504565b602090810292909201358352508101919091526040015f205460ff166104095760405162461bcd60e51b815260206004820152602160248201527f496e76616c696420636572746966696361746520726567697374727920726f6f6044820152601d60fa1b606482015260840161036b565b6104468b8b808060200260200160405190810160405280939291908181526020018383602002808284375f920191909152508992506119c4915050565b6104925760405162461bcd60e51b815260206004820181905260248201527f50726f6f662065787069726564206f72206461746520697320696e76616c6964604482015260640161036b565b61051b8b600b8c6104a46001866124f1565b926104b193929190612518565b808060200260200160405190810160405280939291908181526020018383602002808284375f9201919091525050604080516020808d0282810182019093528c82528f94508e935090918d918d9182918501908490808284375f92019190915250611a6292505050565b6105675760405162461bcd60e51b815260206004820152601860248201527f496e76616c696420636f6d6d697474656420696e707574730000000000000000604482015260640161036b565b816001600160a01b031663ea50d0e48e8e8e8e6040518563ffffffff1660e01b81526004016105999493929190612543565b602060405180830381865afa1580156105b4573d5f5f3e3d5ffd5b505050506040513d601f19601f820116820180604052508101906105d891906125a5565b8b8b6105e56001856124f1565b8181106105f4576105f4612504565b905060200201359350935050509a509a98505050505050505050565b606080606080606080606080886108ca578a60058b6106308260276125c0565b9261063d939291906125d3565b8080601f0160208091040260200160405190810160405280939291908181526020018383808284375f92019190915250929a508d9250600291508c90506106858260036125c0565b92610692939291906125d3565b8080601f0160208091040260200160405190810160405280939291908181526020018383808284375f920191909152509299508d9250603691508c90506106da8260036125c0565b926106e7939291906125d3565b8080601f0160208091040260200160405190810160405280939291908181526020018383808284375f920191909152509298508d9250604091508c905061072f8260016125c0565b9261073c939291906125d3565b8080601f0160208091040260200160405190810160405280939291908181526020018383808284375f920191909152509297508d9250603991508c90506107848260066125c0565b92610791939291906125d3565b8080601f0160208091040260200160405190810160405280939291908181526020018383808284375f920191909152509296508d9250604191508c90506107d98260066125c0565b926107e6939291906125d3565b8080601f0160208091040260200160405190810160405280939291908181526020018383808284375f920191909152509295508d9250602c91508c905061082e8260096125c0565b9261083b939291906125d3565b8080601f0160208091040260200160405190810160405280939291908181526020018383808284375f9201829052509395508e9392508d915061088190508260026125c0565b9261088e939291906125d3565b8080601f0160208091040260200160405190810160405280939291908181526020018383808284375f92019190915250929350610b6e92505050565b8a603c8b6108d982601e6125c0565b926108e6939291906125d3565b8080601f0160208091040260200160405190810160405280939291908181526020018383808284375f92019190915250929a508d9250600291508c905061092e8260036125c0565b9261093b939291906125d3565b8080601f0160208091040260200160405190810160405280939291908181526020018383808284375f920191909152509299508d9250602d91508c90506109838260036125c0565b92610990939291906125d3565b8080601f0160208091040260200160405190810160405280939291908181526020018383808284375f920191909152509298508d9250602591508c90506109d88260016125c0565b926109e5939291906125d3565b8080601f0160208091040260200160405190810160405280939291908181526020018383808284375f920191909152509297508d9250601e91508c9050610a2d8260066125c0565b92610a3a939291906125d3565b8080601f0160208091040260200160405190810160405280939291908181526020018383808284375f920191909152509296508d9250602691508c9050610a828260066125c0565b92610a8f939291906125d3565b8080601f0160208091040260200160405190810160405280939291908181526020018383808284375f920191909152509295508d9250600591508c9050610ad78260096125c0565b92610ae4939291906125d3565b8080601f0160208091040260200160405190810160405280939291908181526020018383808284375f9201829052509395508e9392508d9150610b2a90508260026125c0565b92610b37939291906125d3565b8080601f0160208091040260200160405190810160405280939291908181526020018383808284375f920191909152509293505050505b9397509397509397509397565b5f546001600160a01b03163314610ba45760405162461bcd60e51b815260040161036b906125fa565b5f8054821515600160a01b0260ff60a01b199091161790556040517f9a506b30e47f3823b09f67e4c0dfa5c3d8023b71825b7ceaa97677129128c9c590610bf090831515815260200190565b60405180910390a150565b6060805f80805b85811015610e4d57868682818110610c1c57610c1c612504565b9050602002013561025903610e1f57600160fa1b898985818110610c4257610c42612504565b9050013560f81c60f81b6001600160f81b0319161480610c8a5750600560f81b898985818110610c7457610c74612504565b9050013560f81c60f81b6001600160f81b031916145b80610cbd5750600360f91b898985818110610ca757610ca7612504565b9050013560f81c60f81b6001600160f81b031916145b80610cf05750600760f81b898985818110610cda57610cda612504565b9050013560f81c60f81b6001600160f81b031916145b610d0c5760405162461bcd60e51b815260040161036b90612631565b610d30898985818110610d2157610d21612504565b919091013560f81c90506117ec565b935060015b610259811015610e19578989610d4c83600361265d565b610d5690876125c0565b818110610d6557610d65612504565b909101356001600160f81b031916159050610e19578989610d8783600361265d565b610d9190876125c0565b90610d9d84600361265d565b610da790886125c0565b610db29060036125c0565b92610dbf939291906125d3565b8080601f0160208091040260200160405190810160405280939291908181526020018383808284375f920191909152505088518992508491508110610e0657610e06612504565b6020908102919091010152600101610d35565b50600191505b868682818110610e3157610e31612504565b9050602002013583610e4391906125c0565b9250600101610c02565b5080610e9b5760405162461bcd60e51b815260206004820152601e60248201527f436f756e7472792070726f6f6620696e70757473206e6f7420666f756e640000604482015260640161036b565b505094509492505050565b5f546001600160a01b03163314610ecf5760405162461bcd60e51b815260040161036b906125fa565b5f81815260026020526040808220805460ff191660011790555182917f28b645e250fa5c9d240590b408225ec310e29b861312e75a76b0d55f7d927a2f91a250565b5f808060608180805b878110156110a757888882818110610f3457610f34612504565b9050602002013560190361107957600360f81b8b8b85818110610f5957610f59612504565b9050013560f81c60f81b6001600160f81b0319161480610fa15750600160f91b8b8b85818110610f8b57610f8b612504565b9050013560f81c60f81b6001600160f81b031916145b610fbd5760405162461bcd60e51b815260040161036b90612631565b610fd28b8b85818110610d2157610d21612504565b93506110368b8b610fe48660016125c0565b90610ff08760096125c0565b92610ffd939291906125d3565b8080601f0160208091040260200160405190810160405280939291908181526020018383808284375f92019190915250611bb192505050565b96506110548b8b6110488660096125c0565b90610ff08760116125c0565b95506110728b8b6110668660116125c0565b90610ff08760196125c0565b9450600191505b88888281811061108b5761108b612504565b905060200201358361109d91906125c0565b9250600101610f1a565b50806110f55760405162461bcd60e51b815260206004820152601b60248201527f446174652070726f6f6620696e70757473206e6f7420666f756e640000000000604482015260640161036b565b5050945094509450949050565b5f546001600160a01b0316331461112b5760405162461bcd60e51b815260040161036b906125fa565b6001600160a01b0381166111815760405162461bcd60e51b815260206004820152601c60248201527f41646d696e2063616e6e6f74206265207a65726f206164647265737300000000604482015260640161036b565b5f80546001600160a01b038381166001600160a01b0319831681178455604051919092169283917f101b8081ff3b56bbf45deb824d86a3b0fd38b7e3dd42421105cf8abe9106db0b9190a35050565b5f546001600160a01b031633146111f95760405162461bcd60e51b815260040161036b906125fa565b5f81815260026020526040808220805460ff191690555182917fc4da3a189adfa305afb4c073f96be9bd96f1ebea4e42a5e7e2e98818509a682791a250565b5f546001600160a01b031633146112615760405162461bcd60e51b815260040161036b906125fa565b5f54600160a01b900460ff16156112af5760405162461bcd60e51b815260206004820152601260248201527110dbdb9d1c9858dd081a5cc81c185d5cd95960721b604482015260640161036b565b5f5b818110156113415760015f8484848181106112ce576112ce612504565b602090810292909201358352508101919091526040015f2080546001600160a01b031916905582828281811061130657611306612504565b905060200201357f6fdcbcf8f91bc23f2c9dcfe8fe01d80d1b1afbbf207298e94c0171ccc587424c60405160405180910390a26001016112b1565b505050565b5f546001600160a01b0316331461136f5760405162461bcd60e51b815260040161036b906125fa565b5f54600160a01b900460ff16156113bd5760405162461bcd60e51b815260206004820152601260248201527110dbdb9d1c9858dd081a5cc81c185d5cd95960721b604482015260640161036b565b5f5b838110156114b7578282828181106113d9576113d9612504565b90506020020160208101906113ee91906123af565b60015f87878581811061140357611403612504565b9050602002013581526020019081526020015f205f6101000a8154816001600160a01b0302191690836001600160a01b0316021790555082828281811061144c5761144c612504565b905060200201602081019061146191906123af565b6001600160a01b031685858381811061147c5761147c612504565b905060200201357f636107338a3eb46f1f60562462f3ec11393d35fbc965991aaade3b9e7d89c3f560405160405180910390a36001016113bf565b5050505050565b5f808060608180805b878110156115d7578888828181106114e1576114e1612504565b90506020020135600b036115a957600160f81b8b8b8581811061150657611506612504565b9050013560f81c60f81b6001600160f81b031916146115375760405162461bcd60e51b815260040161036b90612631565b61154160016117ec565b93506115538b8b610fe48660016125c0565b96508a8a6115628560096125c0565b81811061157157611571612504565b919091013560f81c96508b90508a61158a85600a6125c0565b81811061159957611599612504565b919091013560f81c955060019250505b8888828181106115bb576115bb612504565b90506020020135836115cd91906125c0565b92506001016114c7565b50806110f55760405162461bcd60e51b815260206004820152601a60248201527f4167652070726f6f6620696e70757473206e6f7420666f756e64000000000000604482015260640161036b565b606080805f80805b868110156117925787878281811061164757611647612504565b9050602002013560b503611764575f8a8a8581811061166857611668612504565b9050013560f81c60f81b6001600160f81b031916146116995760405162461bcd60e51b815260040161036b90612631565b6116a25f6117ec565b935089896116b18560016125c0565b906116bd86605b6125c0565b926116ca939291906125d3565b8080601f0160208091040260200160405190810160405280939291908181526020018383808284375f920191909152509298508c92508b9150611710905085605b6125c0565b9061171c8660b56125c0565b92611729939291906125d3565b8080601f0160208091040260200160405190810160405280939291908181526020018383808284375f92019190915250929750600194505050505b87878281811061177657611776612504565b905060200201358361178891906125c0565b925060010161162d565b50806117e05760405162461bcd60e51b815260206004820152601f60248201527f446973636c6f73652070726f6f6620696e70757473206e6f7420666f756e6400604482015260640161036b565b50509450945094915050565b606060ff821661181a575050604080518082019091526008815267646973636c6f736560c01b602082015290565b5f1960ff83160161184457505060408051808201909152600381526261676560e81b602082015290565b60011960ff83160161187557505060408051808201909152600981526862697274686461746560b81b602082015290565b60021960ff8316016118a857505060408051808201909152600b81526a6578706972795f6461746560a81b602082015290565b60031960ff8316016118e55750506040805180820190915260158152743730ba34b7b730b634ba3cafb4b731b63ab9b4b7b760591b602082015290565b60041960ff8316016119225750506040805180820190915260158152743730ba34b7b730b634ba3cafb2bc31b63ab9b4b7b760591b602082015290565b60051960ff83160161196757505060408051808201909152601981527f69737375696e675f636f756e7472795f696e636c7573696f6e00000000000000602082015290565b60061960ff8316016119ac57505060408051808201909152601981527f69737375696e675f636f756e7472795f6578636c7573696f6e00000000000000602082015290565b60405162461bcd60e51b815260040161036b90612631565b6040805160088082528183019092525f9182919060208201818036833701905050905060015b6009811015611a4d5760f8858281518110611a0757611a07612504565b6020026020010151901b82600183611a1f91906124f1565b81518110611a2f57611a2f612504565b60200101906001600160f81b03191690815f1a9053506001016119ea565b50611a588184611e6c565b9150505b92915050565b5f80805b8351811015611ba4575f6008600288888690898781518110611a8a57611a8a612504565b602002602001015188611a9d91906125c0565b92611aaa939291906125d3565b604051602001611abb929190612674565b60408051601f1981840301815290829052611ad591612683565b602060405180830381855afa158015611af0573d5f5f3e3d5ffd5b5050506040513d601f19601f82011682018060405250810190611b139190612699565b901c9050878281518110611b2957611b29612504565b60200260200101518114611b745760405162461bcd60e51b8152602060048201526012602482015271125b9d985b1a590818dbdb5b5a5d1b595b9d60721b604482015260640161036b565b848281518110611b8657611b86612504565b602002602001015183611b9991906125c0565b925050600101611a66565b5060019695505050505050565b5f5f611bdd83600381518110611bc957611bc9612504565b01602001516001600160f81b031916611eb6565b611bf384600281518110611bc957611bc9612504565b611bfe90600a61265d565b611c1485600181518110611bc957611bc9612504565b611c1f90606461265d565b611c34865f81518110611bc957611bc9612504565b611c40906103e861265d565b611c4a91906125c0565b611c5491906125c0565b611c5e91906125c0565b90505f611c7784600581518110611bc957611bc9612504565b611c8d85600481518110611bc957611bc9612504565b611c9890600a61265d565b611ca291906125c0565b90505f611cbb85600781518110611bc957611bc9612504565b611cd186600681518110611bc957611bc9612504565b611cdc90600a61265d565b611ce691906125c0565b90506107b2831015611d335760405162461bcd60e51b81526020600482015260166024820152750b2cac2e440c4caccdee4ca40aa9c92b040cae0dec6d60531b604482015260640161036b565b60018210158015611d455750600c8211155b611d815760405162461bcd60e51b815260206004820152600d60248201526c092dcecc2d8d2c840dadedce8d609b1b604482015260640161036b565b60018110158015611d9b5750611d978284611ecf565b8111155b611dd55760405162461bcd60e51b815260206004820152600b60248201526a496e76616c69642064617960a81b604482015260640161036b565b5f6107b25b84811015611e1357611deb81611f82565b611df75761016d611dfb565b61016e5b611e099061ffff16836125c0565b9150600101611dda565b5060015b83811015611e3d57611e298186611ecf565b611e3390836125c0565b9150600101611e17565b50611e496001836124f1565b611e5390826125c0565b9050611e62620151808261265d565b9695505050505050565b5f5f611e7784611bb1565b90505f611e87620151808561265d565b611e9190836125c0565b9050814210158015611ea257508181115b8015611ead57504281115b95945050505050565b5f611ec6603060f884901c6126b0565b60ff1692915050565b5f60018310158015611ee25750600c8311155b611f1e5760405162461bcd60e51b815260206004820152600d60248201526c092dcecc2d8d2c840dadedce8d609b1b604482015260640161036b565b82600203611f4757611f2f82611f82565b611f3a57601c611f3d565b601d5b60ff169050611a5c565b8260041480611f565750826006145b80611f615750826009145b80611f6c575082600b145b15611f795750601e611a5c565b50601f92915050565b5f611f8e6004836126c9565b15611f9a57505f919050565b611fa56064836126c9565b15611fb257506001919050565b611fbe610190836126c9565b15611fca57505f919050565b506001919050565b5f5f83601f840112611fe2575f5ffd5b50813567ffffffffffffffff811115611ff9575f5ffd5b602083019150836020828501011115612010575f5ffd5b9250929050565b5f5f83601f840112612027575f5ffd5b50813567ffffffffffffffff81111561203e575f5ffd5b6020830191508360208260051b8501011115612010575f5ffd5b5f5f5f5f5f5f5f5f5f5f60c08b8d031215612071575f5ffd5b8a35995060208b013567ffffffffffffffff81111561208e575f5ffd5b61209a8d828e01611fd2565b909a5098505060408b013567ffffffffffffffff8111156120b9575f5ffd5b6120c58d828e01612017565b90985096505060608b013567ffffffffffffffff8111156120e4575f5ffd5b6120f08d828e01611fd2565b90965094505060808b013567ffffffffffffffff81111561210f575f5ffd5b61211b8d828e01612017565b9b9e9a9d50989b979a96999598949794969560a090950135949350505050565b8015158114612148575f5ffd5b50565b5f5f5f6040848603121561215d575f5ffd5b833567ffffffffffffffff811115612173575f5ffd5b61217f86828701611fd2565b90945092505060208401356121938161213b565b809150509250925092565b5f81518084528060208401602086015e5f602082860101526020601f19601f83011685010191505092915050565b61010081525f6121e061010083018b61219e565b82810360208401526121f2818b61219e565b90508281036040840152612206818a61219e565b9050828103606084015261221a818961219e565b9050828103608084015261222e818861219e565b905082810360a0840152612242818761219e565b905082810360c0840152612256818661219e565b905082810360e084015261226a818561219e565b9b9a5050505050505050505050565b5f60208284031215612289575f5ffd5b81356122948161213b565b9392505050565b5f5f5f5f604085870312156122ae575f5ffd5b843567ffffffffffffffff8111156122c4575f5ffd5b6122d087828801611fd2565b909550935050602085013567ffffffffffffffff8111156122ef575f5ffd5b6122fb87828801612017565b95989497509550505050565b5f604082016040835280855180835260608501915060608160051b8601019250602087015f5b8281101561235e57605f1987860301845261234985835161219e565b9450602093840193919091019060010161232d565b505050508281036020840152611ead818561219e565b5f60208284031215612384575f5ffd5b5035919050565b848152836020820152826040820152608060608201525f611e62608083018461219e565b5f602082840312156123bf575f5ffd5b81356001600160a01b0381168114612294575f5ffd5b5f5f602083850312156123e6575f5ffd5b823567ffffffffffffffff8111156123fc575f5ffd5b61240885828601612017565b90969095509350505050565b5f5f5f5f60408587031215612427575f5ffd5b843567ffffffffffffffff81111561243d575f5ffd5b6122d087828801612017565b84815260ff8416602082015260ff83166040820152608060608201525f611e62608083018461219e565b606081525f612485606083018661219e565b8281036020840152612497818661219e565b90508281036040840152611e62818561219e565b5f602082840312156124bb575f5ffd5b813560ff81168114612294575f5ffd5b602081525f612294602083018461219e565b634e487b7160e01b5f52601160045260245ffd5b81810381811115611a5c57611a5c6124dd565b634e487b7160e01b5f52603260045260245ffd5b5f5f85851115612526575f5ffd5b83861115612532575f5ffd5b5050600583901b0193919092039150565b60408152836040820152838560608301375f60608583018101829052601f19601f8701168301838103820160208501529081018490526001600160fb1b0384111561258c575f5ffd5b8360051b80866080840137016080019695505050505050565b5f602082840312156125b5575f5ffd5b81516122948161213b565b80820180821115611a5c57611a5c6124dd565b5f5f858511156125e1575f5ffd5b838611156125ed575f5ffd5b5050820193919092039150565b6020808252601a908201527f4e6f7420617574686f72697a65643a2061646d696e206f6e6c79000000000000604082015260600190565b602080825260129082015271496e76616c69642070726f6f66207479706560701b604082015260600190565b8082028115828204841417611a5c57611a5c6124dd565b818382375f9101908152919050565b5f82518060208501845e5f920191825250919050565b5f602082840312156126a9575f5ffd5b5051919050565b60ff8281168282160390811115611a5c57611a5c6124dd565b5f826126e357634e487b7160e01b5f52601260045260245ffd5b50069056fea2646970667358221220194554c795a780c1268393607549cec8cf2236f0ae5e95f7110b034b93a07cd264736f6c634300081d0033",
    "linkReferences": {}
  },
  "methodIdentifiers": {
    "addCertificateRegistryRoot(bytes32)": "3a316e62",
    "addVerifiers(bytes32[],address[])": "a6df2c01",
    "admin()": "f851a440",
    "getAgeProofInputs(bytes,uint256[])": "b2b37a4c",
    "getCountryProofInputs(bytes,uint256[])": "1a798dac",
    "getDateProofInputs(bytes,uint256[])": "66a34cd7",
    "getDiscloseProofInputs(bytes,uint256[])": "ddf3eec9",
    "getDisclosedData(bytes,bool)": "03d37eae",
    "isValidCertificateRegistryRoot(bytes32)": "45e21c90",
    "paused()": "5c975abb",
    "proofTypeToName(uint8)": "fe60500d",
    "removeCertificateRegistryRoot(bytes32)": "886c3533",
    "removeVerifiers(bytes32[])": "8d6937b8",
    "setPaused(bool)": "16c38b3c",
    "transferAdmin(address)": "75829def",
    "verifyProof(bytes32,bytes,bytes32[],bytes,uint256[],uint256)": "032fda09",
    "vkeyHashToVerifier(bytes32)": "8163f231"
  },
  "id": 21
}