{
  "abi": [
    {
      "type": "constructor",
      "inputs": [
        {
          "name": "_rootRegistry",
          "type": "address",
          "internalType": "address"
        }
      ],
      "stateMutability": "nonpayable"
    },
    {
      "type": "function",
      "name": "CERTIFICATE_REGISTRY_ID",
      "inputs": [],
      "outputs": [
        {
          "name": "",
          "type": "bytes32",
          "internalType": "bytes32"
        }
      ],
      "stateMutability": "view"
    },
    {
      "type": "function",
      "name": "CIRCUIT_REGISTRY_ID",
      "inputs": [],
      "outputs": [
        {
          "name": "",
          "type": "bytes32",
          "internalType": "bytes32"
        }
      ],
      "stateMutability": "view"
    },
    {
      "type": "function",
      "name": "addCertificateRegistryRoot",
      "inputs": [
        {
          "name": "certificateRegistryRoot",
          "type": "bytes32",
          "internalType": "bytes32"
        }
      ],
      "outputs": [],
      "stateMutability": "nonpayable"
    },
    {
      "type": "function",
      "name": "addVerifiers",
      "inputs": [
        {
          "name": "vkeyHashes",
          "type": "bytes32[]",
          "internalType": "bytes32[]"
        },
        {
          "name": "verifiers",
          "type": "address[]",
          "internalType": "address[]"
        }
      ],
      "outputs": [],
      "stateMutability": "nonpayable"
    },
    {
      "type": "function",
      "name": "admin",
      "inputs": [],
      "outputs": [
        {
          "name": "",
          "type": "address",
          "internalType": "address"
        }
      ],
      "stateMutability": "view"
    },
    {
      "type": "function",
      "name": "getAgeProofInputs",
      "inputs": [
        {
          "name": "committedInputs",
          "type": "bytes",
          "internalType": "bytes"
        },
        {
          "name": "committedInputCounts",
          "type": "uint256[]",
          "internalType": "uint256[]"
        }
      ],
      "outputs": [
        {
          "name": "currentDate",
          "type": "uint256",
          "internalType": "uint256"
        },
        {
          "name": "minAge",
          "type": "uint8",
          "internalType": "uint8"
        },
        {
          "name": "maxAge",
          "type": "uint8",
          "internalType": "uint8"
        }
      ],
      "stateMutability": "pure"
    },
    {
      "type": "function",
      "name": "getCountryProofInputs",
      "inputs": [
        {
          "name": "committedInputs",
          "type": "bytes",
          "internalType": "bytes"
        },
        {
          "name": "committedInputCounts",
          "type": "uint256[]",
          "internalType": "uint256[]"
        },
        {
          "name": "proofType",
          "type": "uint8",
          "internalType": "enum ProofType"
        }
      ],
      "outputs": [
        {
          "name": "countryList",
          "type": "string[]",
          "internalType": "string[]"
        }
      ],
      "stateMutability": "pure"
    },
    {
      "type": "function",
      "name": "getDateProofInputs",
      "inputs": [
        {
          "name": "committedInputs",
          "type": "bytes",
          "internalType": "bytes"
        },
        {
          "name": "committedInputCounts",
          "type": "uint256[]",
          "internalType": "uint256[]"
        },
        {
          "name": "proofType",
          "type": "uint8",
          "internalType": "enum ProofType"
        }
      ],
      "outputs": [
        {
          "name": "currentDate",
          "type": "uint256",
          "internalType": "uint256"
        },
        {
          "name": "minDate",
          "type": "uint256",
          "internalType": "uint256"
        },
        {
          "name": "maxDate",
          "type": "uint256",
          "internalType": "uint256"
        }
      ],
      "stateMutability": "pure"
    },
    {
      "type": "function",
      "name": "getDiscloseProofInputs",
      "inputs": [
        {
          "name": "committedInputs",
          "type": "bytes",
          "internalType": "bytes"
        },
        {
          "name": "committedInputCounts",
          "type": "uint256[]",
          "internalType": "uint256[]"
        }
      ],
      "outputs": [
        {
          "name": "discloseMask",
          "type": "bytes",
          "internalType": "bytes"
        },
        {
          "name": "discloseBytes",
          "type": "bytes",
          "internalType": "bytes"
        }
      ],
      "stateMutability": "pure"
    },
    {
      "type": "function",
      "name": "getDisclosedData",
      "inputs": [
        {
          "name": "discloseBytes",
          "type": "bytes",
          "internalType": "bytes"
        },
        {
          "name": "isIDCard",
          "type": "bool",
          "internalType": "bool"
        }
      ],
      "outputs": [
        {
          "name": "name",
          "type": "string",
          "internalType": "string"
        },
        {
          "name": "issuingCountry",
          "type": "string",
          "internalType": "string"
        },
        {
          "name": "nationality",
          "type": "string",
          "internalType": "string"
        },
        {
          "name": "gender",
          "type": "string",
          "internalType": "string"
        },
        {
          "name": "birthDate",
          "type": "string",
          "internalType": "string"
        },
        {
          "name": "expiryDate",
          "type": "string",
          "internalType": "string"
        },
        {
          "name": "documentNumber",
          "type": "string",
          "internalType": "string"
        },
        {
          "name": "documentType",
          "type": "string",
          "internalType": "string"
        }
      ],
      "stateMutability": "pure"
    },
    {
      "type": "function",
      "name": "isValidCertificateRegistryRoot",
      "inputs": [
        {
          "name": "",
          "type": "bytes32",
          "internalType": "bytes32"
        }
      ],
      "outputs": [
        {
          "name": "",
          "type": "bool",
          "internalType": "bool"
        }
      ],
      "stateMutability": "view"
    },
    {
      "type": "function",
      "name": "paused",
      "inputs": [],
      "outputs": [
        {
          "name": "",
          "type": "bool",
          "internalType": "bool"
        }
      ],
      "stateMutability": "view"
    },
    {
      "type": "function",
      "name": "removeCertificateRegistryRoot",
      "inputs": [
        {
          "name": "certificateRegistryRoot",
          "type": "bytes32",
          "internalType": "bytes32"
        }
      ],
      "outputs": [],
      "stateMutability": "nonpayable"
    },
    {
      "type": "function",
      "name": "removeVerifiers",
      "inputs": [
        {
          "name": "vkeyHashes",
          "type": "bytes32[]",
          "internalType": "bytes32[]"
        }
      ],
      "outputs": [],
      "stateMutability": "nonpayable"
    },
    {
      "type": "function",
      "name": "rootRegistry",
      "inputs": [],
      "outputs": [
        {
          "name": "",
          "type": "address",
          "internalType": "contract IRootRegistry"
        }
      ],
      "stateMutability": "view"
    },
    {
      "type": "function",
      "name": "setPaused",
      "inputs": [
        {
          "name": "_paused",
          "type": "bool",
          "internalType": "bool"
        }
      ],
      "outputs": [],
      "stateMutability": "nonpayable"
    },
    {
      "type": "function",
      "name": "transferAdmin",
      "inputs": [
        {
          "name": "newAdmin",
          "type": "address",
          "internalType": "address"
        }
      ],
      "outputs": [],
      "stateMutability": "nonpayable"
    },
    {
      "type": "function",
      "name": "updateRootRegistry",
      "inputs": [
        {
          "name": "_rootRegistry",
          "type": "address",
          "internalType": "address"
        }
      ],
      "outputs": [],
      "stateMutability": "nonpayable"
    },
    {
      "type": "function",
      "name": "verifyProof",
      "inputs": [
        {
          "name": "params",
          "type": "tuple",
          "internalType": "struct ProofVerificationParams",
          "components": [
            {
              "name": "vkeyHash",
              "type": "bytes32",
              "internalType": "bytes32"
            },
            {
              "name": "proof",
              "type": "bytes",
              "internalType": "bytes"
            },
            {
              "name": "publicInputs",
              "type": "bytes32[]",
              "internalType": "bytes32[]"
            },
            {
              "name": "committedInputs",
              "type": "bytes",
              "internalType": "bytes"
            },
            {
              "name": "committedInputCounts",
              "type": "uint256[]",
              "internalType": "uint256[]"
            },
            {
              "name": "validityPeriodInDays",
              "type": "uint256",
              "internalType": "uint256"
            },
            {
              "name": "scope",
              "type": "string",
              "internalType": "string"
            },
            {
              "name": "subscope",
              "type": "string",
              "internalType": "string"
            },
            {
              "name": "devMode",
              "type": "bool",
              "internalType": "bool"
            }
          ]
        }
      ],
      "outputs": [
        {
          "name": "",
          "type": "bool",
          "internalType": "bool"
        },
        {
          "name": "",
          "type": "bytes32",
          "internalType": "bytes32"
        }
      ],
      "stateMutability": "view"
    },
    {
      "type": "function",
      "name": "verifyScopes",
      "inputs": [
        {
          "name": "publicInputs",
          "type": "bytes32[]",
          "internalType": "bytes32[]"
        },
        {
          "name": "scope",
          "type": "string",
          "internalType": "string"
        },
        {
          "name": "subscope",
          "type": "string",
          "internalType": "string"
        }
      ],
      "outputs": [
        {
          "name": "",
          "type": "bool",
          "internalType": "bool"
        }
      ],
      "stateMutability": "view"
    },
    {
      "type": "function",
      "name": "vkeyHashToVerifier",
      "inputs": [
        {
          "name": "",
          "type": "bytes32",
          "internalType": "bytes32"
        }
      ],
      "outputs": [
        {
          "name": "",
          "type": "address",
          "internalType": "address"
        }
      ],
      "stateMutability": "view"
    },
    {
      "type": "event",
      "name": "AdminUpdated",
      "inputs": [
        {
          "name": "oldAdmin",
          "type": "address",
          "indexed": true,
          "internalType": "address"
        },
        {
          "name": "newAdmin",
          "type": "address",
          "indexed": true,
          "internalType": "address"
        }
      ],
      "anonymous": false
    },
    {
      "type": "event",
      "name": "CertificateRegistryRootAdded",
      "inputs": [
        {
          "name": "certificateRegistryRoot",
          "type": "bytes32",
          "indexed": true,
          "internalType": "bytes32"
        }
      ],
      "anonymous": false
    },
    {
      "type": "event",
      "name": "CertificateRegistryRootRemoved",
      "inputs": [
        {
          "name": "certificateRegistryRoot",
          "type": "bytes32",
          "indexed": true,
          "internalType": "bytes32"
        }
      ],
      "anonymous": false
    },
    {
      "type": "event",
      "name": "PausedStatusChanged",
      "inputs": [
        {
          "name": "paused",
          "type": "bool",
          "indexed": false,
          "internalType": "bool"
        }
      ],
      "anonymous": false
    },
    {
      "type": "event",
      "name": "VerifierAdded",
      "inputs": [
        {
          "name": "vkeyHash",
          "type": "bytes32",
          "indexed": true,
          "internalType": "bytes32"
        },
        {
          "name": "verifier",
          "type": "address",
          "indexed": true,
          "internalType": "address"
        }
      ],
      "anonymous": false
    },
    {
      "type": "event",
      "name": "VerifierRemoved",
      "inputs": [
        {
          "name": "vkeyHash",
          "type": "bytes32",
          "indexed": true,
          "internalType": "bytes32"
        }
      ],
      "anonymous": false
    },
    {
      "type": "event",
      "name": "ZKPassportVerifierDeployed",
      "inputs": [
        {
          "name": "admin",
          "type": "address",
          "indexed": true,
          "internalType": "address"
        },
        {
          "name": "timestamp",
          "type": "uint256",
          "indexed": false,
          "internalType": "uint256"
        }
      ],
      "anonymous": false
    }
  ],
  "bytecode": {
    "object": "0x608060405234801561000f575f5ffd5b50604051612c64380380612c6483398101604081905261002e916100f6565b6001600160a01b0381166100945760405162461bcd60e51b8152602060048201526024808201527f526f6f742072656769737472792063616e6e6f74206265207a65726f206164646044820152637265737360e01b606482015260840160405180910390fd5b5f8054336001600160a01b03199182168117909255600380549091166001600160a01b0384161790556040514281527ff29b53747ae7121d0958d490ad3d5cf6767119b0fdbd8389d918de3a12cf5a299060200160405180910390a250610123565b5f60208284031215610106575f5ffd5b81516001600160a01b038116811461011c575f5ffd5b9392505050565b612b34806101305f395ff3fe608060405234801561000f575f5ffd5b5060043610610132575f3560e01c80638163f231116100b4578063b2b37a4c11610079578063b2b37a4c146102c3578063b96b161c146102f5578063d7bf616a14610308578063ddf3eec914610332578063ec1374cd14610353578063f851a44014610381575f5ffd5b80638163f23114610237578063847755e314610277578063886c35331461028a5780638d6937b81461029d578063a6df2c01146102b0575f5ffd5b806341a0e2c2116100fa57806341a0e2c2146101c157806345e21c90146101d75780635c975abb146102095780636c40d5d61461021c57806375829def14610224575f5ffd5b806303d37eae14610136578063126f75591461016657806316c38b3c1461018657806318677f2a1461019b5780633a316e62146101ae575b5f5ffd5b610149610144366004612389565b610393565b60405161015d989796959493929190612409565b60405180910390f35b6101796101743660046124f6565b6108fe565b60405161015d919061257a565b6101996101943660046125dd565b610b42565b005b6101996101a93660046125ff565b610bc2565b6101996101bc366004612625565b610c6f565b6101c9600181565b60405190815260200161015d565b6101f96101e5366004612625565b60026020525f908152604090205460ff1681565b604051901515815260200161015d565b5f546101f990600160a01b900460ff1681565b6101c9600281565b6101996102323660046125ff565b610cda565b61025f610245366004612625565b60016020525f90815260409020546001600160a01b031681565b6040516001600160a01b03909116815260200161015d565b6101f961028536600461263c565b610da8565b610199610298366004612625565b610f7f565b6101996102ab3660046126d8565b610fe7565b6101996102be366004612716565b6110a7565b6102d66102d1366004612780565b6111d1565b6040805193845260ff928316602085015291169082015260600161015d565b60035461025f906001600160a01b031681565b61031b6103163660046127b4565b6113ad565b60408051921515835260208301919091520161015d565b610345610340366004612780565b611763565b60405161015d9291906127eb565b6103666103613660046124f6565b611942565b6040805193845260208401929092529082015260600161015d565b5f5461025f906001600160a01b031681565b6060806060806060806060808861064d578a60058b6103b3826027612823565b926103c093929190612836565b8080601f0160208091040260200160405190810160405280939291908181526020018383808284375f92019190915250929a508d9250600291508c9050610408826003612823565b9261041593929190612836565b8080601f0160208091040260200160405190810160405280939291908181526020018383808284375f920191909152509299508d9250603691508c905061045d826003612823565b9261046a93929190612836565b8080601f0160208091040260200160405190810160405280939291908181526020018383808284375f920191909152509298508d9250604091508c90506104b2826001612823565b926104bf93929190612836565b8080601f0160208091040260200160405190810160405280939291908181526020018383808284375f920191909152509297508d9250603991508c9050610507826006612823565b9261051493929190612836565b8080601f0160208091040260200160405190810160405280939291908181526020018383808284375f920191909152509296508d9250604191508c905061055c826006612823565b9261056993929190612836565b8080601f0160208091040260200160405190810160405280939291908181526020018383808284375f920191909152509295508d9250602c91508c90506105b1826009612823565b926105be93929190612836565b8080601f0160208091040260200160405190810160405280939291908181526020018383808284375f9201829052509395508e9392508d91506106049050826002612823565b9261061193929190612836565b8080601f0160208091040260200160405190810160405280939291908181526020018383808284375f920191909152509293506108f192505050565b8a603c8b61065c82601e612823565b9261066993929190612836565b8080601f0160208091040260200160405190810160405280939291908181526020018383808284375f92019190915250929a508d9250600291508c90506106b1826003612823565b926106be93929190612836565b8080601f0160208091040260200160405190810160405280939291908181526020018383808284375f920191909152509299508d9250602d91508c9050610706826003612823565b9261071393929190612836565b8080601f0160208091040260200160405190810160405280939291908181526020018383808284375f920191909152509298508d9250602591508c905061075b826001612823565b9261076893929190612836565b8080601f0160208091040260200160405190810160405280939291908181526020018383808284375f920191909152509297508d9250601e91508c90506107b0826006612823565b926107bd93929190612836565b8080601f0160208091040260200160405190810160405280939291908181526020018383808284375f920191909152509296508d9250602691508c9050610805826006612823565b9261081293929190612836565b8080601f0160208091040260200160405190810160405280939291908181526020018383808284375f920191909152509295508d9250600591508c905061085a826009612823565b9261086793929190612836565b8080601f0160208091040260200160405190810160405280939291908181526020018383808284375f9201829052509395508e9392508d91506108ad9050826002612823565b926108ba93929190612836565b8080601f0160208091040260200160405190810160405280939291908181526020018383808284375f920191909152509293505050505b9397509397509397509397565b60605f80805b85811015610ae45786868281811061091e5761091e61285d565b90506020020135610259148015610977575084600781111561094257610942612871565b60f81b6001600160f81b0319168989858181106109615761096161285d565b9050013560f81c60f81b6001600160f81b031916145b15610ab6576040805160c8808252611920820190925290816020015b60608152602001906001900390816109935790505093505f5b60c8811015610ab05789896109c2836003612899565b6109cc9087612823565b6109d7906001612823565b8181106109e6576109e661285d565b909101356001600160f81b031916159050610ab0578989610a08836003612899565b610a129087612823565b610a1d906001612823565b90610a29846003612899565b610a339088612823565b610a3e906003612823565b610a49906001612823565b92610a5693929190612836565b8080601f0160208091040260200160405190810160405280939291908181526020018383808284375f920191909152505087518892508491508110610a9d57610a9d61285d565b60209081029190910101526001016109ac565b50600191505b868682818110610ac857610ac861285d565b9050602002013583610ada9190612823565b9250600101610904565b5080610b375760405162461bcd60e51b815260206004820152601e60248201527f436f756e7472792070726f6f6620696e70757473206e6f7420666f756e64000060448201526064015b60405180910390fd5b505095945050505050565b5f546001600160a01b03163314610b6b5760405162461bcd60e51b8152600401610b2e906128b0565b5f8054821515600160a01b0260ff60a01b199091161790556040517f9a506b30e47f3823b09f67e4c0dfa5c3d8023b71825b7ceaa97677129128c9c590610bb790831515815260200190565b60405180910390a150565b5f546001600160a01b03163314610beb5760405162461bcd60e51b8152600401610b2e906128b0565b6001600160a01b038116610c4d5760405162461bcd60e51b8152602060048201526024808201527f526f6f742072656769737472792063616e6e6f74206265207a65726f206164646044820152637265737360e01b6064820152608401610b2e565b600380546001600160a01b0319166001600160a01b0392909216919091179055565b5f546001600160a01b03163314610c985760405162461bcd60e51b8152600401610b2e906128b0565b5f81815260026020526040808220805460ff191660011790555182917f28b645e250fa5c9d240590b408225ec310e29b861312e75a76b0d55f7d927a2f91a250565b5f546001600160a01b03163314610d035760405162461bcd60e51b8152600401610b2e906128b0565b6001600160a01b038116610d595760405162461bcd60e51b815260206004820152601c60248201527f41646d696e2063616e6e6f74206265207a65726f2061646472657373000000006044820152606401610b2e565b5f80546001600160a01b038381166001600160a01b0319831681178455604051919092169283917f101b8081ff3b56bbf45deb824d86a3b0fd38b7e3dd42421105cf8abe9106db0b9190a35050565b5f5f610db346611a9c565b90505f610df487878080601f0160208091040260200160405190810160405280939291908181526020018383808284375f92019190915250611ba092505050565b610e705760086002888885604051602001610e11939291906128fe565b60408051601f1981840301815290829052610e2b91612920565b602060405180830381855afa158015610e46573d5f5f3e3d5ffd5b5050506040513d601f19601f82011682018060405250810190610e69919061292b565b901c610e72565b5f5b90505f610eb386868080601f0160208091040260200160405190810160405280939291908181526020018383808284375f92019190915250611ba092505050565b610f2d57600860028787604051602001610ece929190612942565b60408051601f1981840301815290829052610ee891612920565b602060405180830381855afa158015610f03573d5f5f3e3d5ffd5b5050506040513d601f19601f82011682018060405250810190610f26919061292b565b901c610f2f565b5f5b9050818a8a6009818110610f4557610f4561285d565b90506020020135148015610f715750808a8a600a818110610f6857610f6861285d565b90506020020135145b9a9950505050505050505050565b5f546001600160a01b03163314610fa85760405162461bcd60e51b8152600401610b2e906128b0565b5f81815260026020526040808220805460ff191690555182917fc4da3a189adfa305afb4c073f96be9bd96f1ebea4e42a5e7e2e98818509a682791a250565b5f546001600160a01b031633146110105760405162461bcd60e51b8152600401610b2e906128b0565b5f5b818110156110a25760015f84848481811061102f5761102f61285d565b602090810292909201358352508101919091526040015f2080546001600160a01b03191690558282828181106110675761106761285d565b905060200201357f6fdcbcf8f91bc23f2c9dcfe8fe01d80d1b1afbbf207298e94c0171ccc587424c60405160405180910390a2600101611012565b505050565b5f546001600160a01b031633146110d05760405162461bcd60e51b8152600401610b2e906128b0565b5f5b838110156111ca578282828181106110ec576110ec61285d565b905060200201602081019061110191906125ff565b60015f8787858181106111165761111661285d565b9050602002013581526020019081526020015f205f6101000a8154816001600160a01b0302191690836001600160a01b0316021790555082828281811061115f5761115f61285d565b905060200201602081019061117491906125ff565b6001600160a01b031685858381811061118f5761118f61285d565b905060200201357f636107338a3eb46f1f60562462f3ec11393d35fbc965991aaade3b9e7d89c3f560405160405180910390a36001016110d2565b5050505050565b5f80808080805b86811015611353578787828181106111f2576111f261285d565b90506020020135600b0361132557600160f81b8a8a858181106112175761121761285d565b9050013560f81c60f81b6001600160f81b0319161461126d5760405162461bcd60e51b8152602060048201526012602482015271496e76616c69642070726f6f66207479706560701b6044820152606401610b2e565b6112cf8a8a61127d866001612823565b90611289876009612823565b9261129693929190612836565b8080601f0160208091040260200160405190810160405280939291908181526020018383808284375f92019190915250611ba592505050565b955089896112de856009612823565b8181106112ed576112ed61285d565b919091013560f81c95508a90508961130685600a612823565b8181106113155761131561285d565b919091013560f81c945060019250505b8787828181106113375761133761285d565b90506020020135836113499190612823565b92506001016111d8565b50806113a15760405162461bcd60e51b815260206004820152601a60248201527f4167652070726f6f6620696e70757473206e6f7420666f756e640000000000006044820152606401610b2e565b50509450945094915050565b5f80548190600160a01b900460ff16156113fe5760405162461bcd60e51b815260206004820152601260248201527110dbdb9d1c9858dd081a5cc81c185d5cd95960721b6044820152606401610b2e565b5f6114098435611eb4565b90505f601061141b6040870187612951565b611426929150612996565b90506114546114386040870187612951565b5f8181106114485761144861285d565b90506020020135611f13565b61149e6114646040870187612951565b808060200260200160405190810160405280939291908181526020018383602002808284375f9201919091525050505060a0870135611ff5565b6114ea5760405162461bcd60e51b815260206004820181905260248201527f50726f6f662065787069726564206f72206461746520697320696e76616c69646044820152606401610b2e565b6115146114fa6040870187612951565b61150760c08901896129a9565b61028560e08b018b6129a9565b6115515760405162461bcd60e51b815260206004820152600e60248201526d496e76616c69642073636f70657360901b6044820152606401610b2e565b6115fd6115616040870187612951565b600b9061156f600186612996565b9261157c939291906129eb565b808060200260200160405190810160405280939291908181526020018383602002808284375f920191909152506115ba9250505060608801886129a9565b6115c760808a018a612951565b808060200260200160405190810160405280939291908181526020018383602002808284375f9201919091525061208992505050565b5f61160b6040870187612951565b611616600185612996565b8181106116255761162561285d565b905060200201351415806116465750611646610120860161010087016125dd565b6116a35760405162461bcd60e51b815260206004820152602860248201527f4d6f636b2070726f6f667320617265206f6e6c7920616c6c6f77656420696e20604482015267646576206d6f646560c01b6064820152608401610b2e565b6001600160a01b03821663ea50d0e46116bf60208801886129a9565b6116cc60408a018a612951565b6040518563ffffffff1660e01b81526004016116eb9493929190612a16565b602060405180830381865afa158015611706573d5f5f3e3d5ffd5b505050506040513d601f19601f8201168201806040525081019061172a9190612a78565b6117376040870187612951565b611742600185612996565b8181106117515761175161285d565b90506020020135935093505050915091565b6060805f80805b858110156118e9578686828181106117845761178461285d565b9050602002013560b5036118bb575f8989858181106117a5576117a561285d565b9050013560f81c60f81b6001600160f81b031916146117fb5760405162461bcd60e51b8152602060048201526012602482015271496e76616c69642070726f6f66207479706560701b6044820152606401610b2e565b8888611808856001612823565b9061181486605b612823565b9261182193929190612836565b8080601f0160208091040260200160405190810160405280939291908181526020018383808284375f920191909152509297508b92508a9150611867905085605b612823565b906118738660b5612823565b9261188093929190612836565b8080601f0160208091040260200160405190810160405280939291908181526020018383808284375f92019190915250929650600194505050505b8686828181106118cd576118cd61285d565b90506020020135836118df9190612823565b925060010161176a565b50806119375760405162461bcd60e51b815260206004820152601f60248201527f446973636c6f73652070726f6f6620696e70757473206e6f7420666f756e64006044820152606401610b2e565b505094509492505050565b5f80808080805b87811015611a41578888828181106119635761196361285d565b9050602002013560191480156119bb575086600781111561198657611986612871565b60f81b6001600160f81b0319168b8b858181106119a5576119a561285d565b9050013560f81c60f81b6001600160f81b031916145b15611a13576119d08b8b61127d866001612823565b95506119ee8b8b6119e2866009612823565b90611289876011612823565b9450611a0c8b8b611a00866011612823565b90611289876019612823565b9350600191505b888882818110611a2557611a2561285d565b9050602002013583611a379190612823565b9250600101611949565b5080611a8f5760405162461bcd60e51b815260206004820152601b60248201527f446174652070726f6f6620696e70757473206e6f7420666f756e6400000000006044820152606401610b2e565b5050955095509592505050565b6060815f03611ac25750506040805180820190915260018152600360fc1b602082015290565b815f5b8115611aeb5780611ad581612a93565b9150611ae49050600a83612abf565b9150611ac5565b5f816001600160401b03811115611b0457611b04612885565b6040519080825280601f01601f191660200182016040528015611b2e576020820181803683370190505b5090505b8415611b9857611b43600183612996565b9150611b50600a86612ad2565b611b5b906030612823565b60f81b818381518110611b7057611b7061285d565b60200101906001600160f81b03191690815f1a905350611b91600a86612abf565b9450611b32565b949350505050565b511590565b604080518082019091526008815267313131313131313160c01b6020918201528151908201205f907fc21a5c94d030b6b0ea6834442967d237d4cc49a2b74bbb3846572bb3c8021a3001611bfa57505f919050565b5f611c2583600381518110611c1157611c1161285d565b01602001516001600160f81b0319166121d2565b611c3b84600281518110611c1157611c1161285d565b611c4690600a612899565b611c5c85600181518110611c1157611c1161285d565b611c67906064612899565b611c7c865f81518110611c1157611c1161285d565b611c88906103e8612899565b611c929190612823565b611c9c9190612823565b611ca69190612823565b90505f611cbf84600581518110611c1157611c1161285d565b611cd585600481518110611c1157611c1161285d565b611ce090600a612899565b611cea9190612823565b90505f611d0385600781518110611c1157611c1161285d565b611d1986600681518110611c1157611c1161285d565b611d2490600a612899565b611d2e9190612823565b90506107b2831015611d7b5760405162461bcd60e51b81526020600482015260166024820152750b2cac2e440c4caccdee4ca40aa9c92b040cae0dec6d60531b6044820152606401610b2e565b60018210158015611d8d5750600c8211155b611dc95760405162461bcd60e51b815260206004820152600d60248201526c092dcecc2d8d2c840dadedce8d609b1b6044820152606401610b2e565b60018110158015611de35750611ddf82846121eb565b8111155b611e1d5760405162461bcd60e51b815260206004820152600b60248201526a496e76616c69642064617960a81b6044820152606401610b2e565b5f6107b25b84811015611e5b57611e338161229e565b611e3f5761016d611e43565b61016e5b611e519061ffff1683612823565b9150600101611e22565b5060015b83811015611e8557611e7181866121eb565b611e7b9083612823565b9150600101611e5f565b50611e91600183612996565b611e9b9082612823565b9050611eaa6201518082612899565b9695505050505050565b5f818152600160205260408120546001600160a01b031680611f0d5760405162461bcd60e51b815260206004820152601260248201527115995c9a599a595c881b9bdd08199bdd5b9960721b6044820152606401610b2e565b92915050565b5f8181526002602052604090205460ff1680611f9c57506003546040516383578c1160e01b815260016004820152602481018390526001600160a01b03909116906383578c1190604401602060405180830381865afa158015611f78573d5f5f3e3d5ffd5b505050506040513d601f19601f82011682018060405250810190611f9c9190612a78565b611ff25760405162461bcd60e51b815260206004820152602160248201527f496e76616c696420636572746966696361746520726567697374727920726f6f6044820152601d60fa1b6064820152608401610b2e565b50565b6040805160088082528183019092525f9182919060208201818036833701905050905060015b600981101561207e5760f88582815181106120385761203861285d565b6020026020010151901b826001836120509190612996565b815181106120605761206061285d565b60200101906001600160f81b03191690815f1a90535060010161201b565b50611b9881846122ee565b5f805b82518110156121ca575f60086002878786908887815181106120b0576120b061285d565b6020026020010151886120c39190612823565b926120d093929190612836565b6040516020016120e1929190612942565b60408051601f19818403018152908290526120fb91612920565b602060405180830381855afa158015612116573d5f5f3e3d5ffd5b5050506040513d601f19601f82011682018060405250810190612139919061292b565b901c905086828151811061214f5761214f61285d565b6020026020010151811461219a5760405162461bcd60e51b8152602060048201526012602482015271125b9d985b1a590818dbdb5b5a5d1b595b9d60721b6044820152606401610b2e565b8382815181106121ac576121ac61285d565b6020026020010151836121bf9190612823565b92505060010161208c565b505050505050565b5f6121e2603060f884901c612ae5565b60ff1692915050565b5f600183101580156121fe5750600c8311155b61223a5760405162461bcd60e51b815260206004820152600d60248201526c092dcecc2d8d2c840dadedce8d609b1b6044820152606401610b2e565b826002036122635761224b8261229e565b61225657601c612259565b601d5b60ff169050611f0d565b82600414806122725750826006145b8061227d5750826009145b80612288575082600b145b156122955750601e611f0d565b50601f92915050565b5f6122aa600483612ad2565b156122b657505f919050565b6122c1606483612ad2565b156122ce57506001919050565b6122da61019083612ad2565b156122e657505f919050565b506001919050565b5f5f6122f984611ba5565b90505f6123096201518085612899565b6123139083612823565b905081421015801561232457508181115b801561232f57504281115b95945050505050565b5f5f83601f840112612348575f5ffd5b5081356001600160401b0381111561235e575f5ffd5b602083019150836020828501011115612375575f5ffd5b9250929050565b8015158114611ff2575f5ffd5b5f5f5f6040848603121561239b575f5ffd5b83356001600160401b038111156123b0575f5ffd5b6123bc86828701612338565b90945092505060208401356123d08161237c565b809150509250925092565b5f81518084528060208401602086015e5f602082860101526020601f19601f83011685010191505092915050565b61010081525f61241d61010083018b6123db565b828103602084015261242f818b6123db565b90508281036040840152612443818a6123db565b9050828103606084015261245781896123db565b9050828103608084015261246b81886123db565b905082810360a084015261247f81876123db565b905082810360c084015261249381866123db565b905082810360e08401526124a781856123db565b9b9a5050505050505050505050565b5f5f83601f8401126124c6575f5ffd5b5081356001600160401b038111156124dc575f5ffd5b6020830191508360208260051b8501011115612375575f5ffd5b5f5f5f5f5f6060868803121561250a575f5ffd5b85356001600160401b0381111561251f575f5ffd5b61252b88828901612338565b90965094505060208601356001600160401b03811115612549575f5ffd5b612555888289016124b6565b90945092505060408601356008811061256c575f5ffd5b809150509295509295909350565b5f602082016020835280845180835260408501915060408160051b8601019250602086015f5b828110156125d157603f198786030184526125bc8583516123db565b945060209384019391909101906001016125a0565b50929695505050505050565b5f602082840312156125ed575f5ffd5b81356125f88161237c565b9392505050565b5f6020828403121561260f575f5ffd5b81356001600160a01b03811681146125f8575f5ffd5b5f60208284031215612635575f5ffd5b5035919050565b5f5f5f5f5f5f60608789031215612651575f5ffd5b86356001600160401b03811115612666575f5ffd5b61267289828a016124b6565b90975095505060208701356001600160401b03811115612690575f5ffd5b61269c89828a01612338565b90955093505060408701356001600160401b038111156126ba575f5ffd5b6126c689828a01612338565b979a9699509497509295939492505050565b5f5f602083850312156126e9575f5ffd5b82356001600160401b038111156126fe575f5ffd5b61270a858286016124b6565b90969095509350505050565b5f5f5f5f60408587031215612729575f5ffd5b84356001600160401b0381111561273e575f5ffd5b61274a878288016124b6565b90955093505060208501356001600160401b03811115612768575f5ffd5b612774878288016124b6565b95989497509550505050565b5f5f5f5f60408587031215612793575f5ffd5b84356001600160401b038111156127a8575f5ffd5b61274a87828801612338565b5f602082840312156127c4575f5ffd5b81356001600160401b038111156127d9575f5ffd5b820161012081850312156125f8575f5ffd5b604081525f6127fd60408301856123db565b828103602084015261232f81856123db565b634e487b7160e01b5f52601160045260245ffd5b80820180821115611f0d57611f0d61280f565b5f5f85851115612844575f5ffd5b83861115612850575f5ffd5b5050820193919092039150565b634e487b7160e01b5f52603260045260245ffd5b634e487b7160e01b5f52602160045260245ffd5b634e487b7160e01b5f52604160045260245ffd5b8082028115828204841417611f0d57611f0d61280f565b6020808252601a908201527f4e6f7420617574686f72697a65643a2061646d696e206f6e6c79000000000000604082015260600190565b5f81518060208401855e5f93019283525090919050565b828482375f838201663a636861696e2d60c81b8152611eaa60078201856128e7565b5f6125f882846128e7565b5f6020828403121561293b575f5ffd5b5051919050565b818382375f9101908152919050565b5f5f8335601e19843603018112612966575f5ffd5b8301803591506001600160401b0382111561297f575f5ffd5b6020019150600581901b3603821315612375575f5ffd5b81810381811115611f0d57611f0d61280f565b5f5f8335601e198436030181126129be575f5ffd5b8301803591506001600160401b038211156129d7575f5ffd5b602001915036819003821315612375575f5ffd5b5f5f858511156129f9575f5ffd5b83861115612a05575f5ffd5b5050600583901b0193919092039150565b60408152836040820152838560608301375f60608583018101829052601f19601f8701168301838103820160208501529081018490526001600160fb1b03841115612a5f575f5ffd5b8360051b80866080840137016080019695505050505050565b5f60208284031215612a88575f5ffd5b81516125f88161237c565b5f60018201612aa457612aa461280f565b5060010190565b634e487b7160e01b5f52601260045260245ffd5b5f82612acd57612acd612aab565b500490565b5f82612ae057612ae0612aab565b500690565b60ff8281168282160390811115611f0d57611f0d61280f56fea26469706673582212201610e30b802665c02c6a79490bae102c57ce89eb946a491b03a781c6556d501c64736f6c634300081d0033",
    "linkReferences": {}
  },
  "methodIdentifiers": {
    "CERTIFICATE_REGISTRY_ID()": "41a0e2c2",
    "CIRCUIT_REGISTRY_ID()": "6c40d5d6",
    "addCertificateRegistryRoot(bytes32)": "3a316e62",
    "addVerifiers(bytes32[],address[])": "a6df2c01",
    "admin()": "f851a440",
    "getAgeProofInputs(bytes,uint256[])": "b2b37a4c",
    "getCountryProofInputs(bytes,uint256[],uint8)": "126f7559",
    "getDateProofInputs(bytes,uint256[],uint8)": "ec1374cd",
    "getDiscloseProofInputs(bytes,uint256[])": "ddf3eec9",
    "getDisclosedData(bytes,bool)": "03d37eae",
    "isValidCertificateRegistryRoot(bytes32)": "45e21c90",
    "paused()": "5c975abb",
    "removeCertificateRegistryRoot(bytes32)": "886c3533",
    "removeVerifiers(bytes32[])": "8d6937b8",
    "rootRegistry()": "b96b161c",
    "setPaused(bool)": "16c38b3c",
    "transferAdmin(address)": "75829def",
    "updateRootRegistry(address)": "18677f2a",
    "verifyProof((bytes32,bytes,bytes32[],bytes,uint256[],uint256,string,string,bool))": "d7bf616a",
    "verifyScopes(bytes32[],string,string)": "847755e3",
    "vkeyHashToVerifier(bytes32)": "8163f231"
  },
  "id": 26
}