{
  "abi": [
    {
      "type": "constructor",
      "inputs": [
        {
          "name": "_rootRegistry",
          "type": "address",
          "internalType": "address"
        }
      ],
      "stateMutability": "nonpayable"
    },
    {
      "type": "function",
      "name": "CERTIFICATE_REGISTRY_ID",
      "inputs": [],
      "outputs": [
        {
          "name": "",
          "type": "bytes32",
          "internalType": "bytes32"
        }
      ],
      "stateMutability": "view"
    },
    {
      "type": "function",
      "name": "CIRCUIT_REGISTRY_ID",
      "inputs": [],
      "outputs": [
        {
          "name": "",
          "type": "bytes32",
          "internalType": "bytes32"
        }
      ],
      "stateMutability": "view"
    },
    {
      "type": "function",
      "name": "addCertificateRegistryRoot",
      "inputs": [
        {
          "name": "certificateRegistryRoot",
          "type": "bytes32",
          "internalType": "bytes32"
        }
      ],
      "outputs": [],
      "stateMutability": "nonpayable"
    },
    {
      "type": "function",
      "name": "addVerifiers",
      "inputs": [
        {
          "name": "vkeyHashes",
          "type": "bytes32[]",
          "internalType": "bytes32[]"
        },
        {
          "name": "verifiers",
          "type": "address[]",
          "internalType": "address[]"
        }
      ],
      "outputs": [],
      "stateMutability": "nonpayable"
    },
    {
      "type": "function",
      "name": "admin",
      "inputs": [],
      "outputs": [
        {
          "name": "",
          "type": "address",
          "internalType": "address"
        }
      ],
      "stateMutability": "view"
    },
    {
      "type": "function",
      "name": "getAgeProofInputs",
      "inputs": [
        {
          "name": "committedInputs",
          "type": "bytes",
          "internalType": "bytes"
        },
        {
          "name": "committedInputCounts",
          "type": "uint256[]",
          "internalType": "uint256[]"
        }
      ],
      "outputs": [
        {
          "name": "currentDate",
          "type": "uint256",
          "internalType": "uint256"
        },
        {
          "name": "minAge",
          "type": "uint8",
          "internalType": "uint8"
        },
        {
          "name": "maxAge",
          "type": "uint8",
          "internalType": "uint8"
        }
      ],
      "stateMutability": "pure"
    },
    {
      "type": "function",
      "name": "getCountryProofInputs",
      "inputs": [
        {
          "name": "committedInputs",
          "type": "bytes",
          "internalType": "bytes"
        },
        {
          "name": "committedInputCounts",
          "type": "uint256[]",
          "internalType": "uint256[]"
        },
        {
          "name": "proofType",
          "type": "uint8",
          "internalType": "enum ProofType"
        }
      ],
      "outputs": [
        {
          "name": "countryList",
          "type": "string[]",
          "internalType": "string[]"
        }
      ],
      "stateMutability": "pure"
    },
    {
      "type": "function",
      "name": "getDateProofInputs",
      "inputs": [
        {
          "name": "committedInputs",
          "type": "bytes",
          "internalType": "bytes"
        },
        {
          "name": "committedInputCounts",
          "type": "uint256[]",
          "internalType": "uint256[]"
        },
        {
          "name": "proofType",
          "type": "uint8",
          "internalType": "enum ProofType"
        }
      ],
      "outputs": [
        {
          "name": "currentDate",
          "type": "uint256",
          "internalType": "uint256"
        },
        {
          "name": "minDate",
          "type": "uint256",
          "internalType": "uint256"
        },
        {
          "name": "maxDate",
          "type": "uint256",
          "internalType": "uint256"
        }
      ],
      "stateMutability": "pure"
    },
    {
      "type": "function",
      "name": "getDiscloseProofInputs",
      "inputs": [
        {
          "name": "committedInputs",
          "type": "bytes",
          "internalType": "bytes"
        },
        {
          "name": "committedInputCounts",
          "type": "uint256[]",
          "internalType": "uint256[]"
        }
      ],
      "outputs": [
        {
          "name": "discloseMask",
          "type": "bytes",
          "internalType": "bytes"
        },
        {
          "name": "discloseBytes",
          "type": "bytes",
          "internalType": "bytes"
        }
      ],
      "stateMutability": "pure"
    },
    {
      "type": "function",
      "name": "getDisclosedData",
      "inputs": [
        {
          "name": "discloseBytes",
          "type": "bytes",
          "internalType": "bytes"
        },
        {
          "name": "isIDCard",
          "type": "bool",
          "internalType": "bool"
        }
      ],
      "outputs": [
        {
          "name": "name",
          "type": "string",
          "internalType": "string"
        },
        {
          "name": "issuingCountry",
          "type": "string",
          "internalType": "string"
        },
        {
          "name": "nationality",
          "type": "string",
          "internalType": "string"
        },
        {
          "name": "gender",
          "type": "string",
          "internalType": "string"
        },
        {
          "name": "birthDate",
          "type": "string",
          "internalType": "string"
        },
        {
          "name": "expiryDate",
          "type": "string",
          "internalType": "string"
        },
        {
          "name": "documentNumber",
          "type": "string",
          "internalType": "string"
        },
        {
          "name": "documentType",
          "type": "string",
          "internalType": "string"
        }
      ],
      "stateMutability": "pure"
    },
    {
      "type": "function",
      "name": "isValidCertificateRegistryRoot",
      "inputs": [
        {
          "name": "",
          "type": "bytes32",
          "internalType": "bytes32"
        }
      ],
      "outputs": [
        {
          "name": "",
          "type": "bool",
          "internalType": "bool"
        }
      ],
      "stateMutability": "view"
    },
    {
      "type": "function",
      "name": "paused",
      "inputs": [],
      "outputs": [
        {
          "name": "",
          "type": "bool",
          "internalType": "bool"
        }
      ],
      "stateMutability": "view"
    },
    {
      "type": "function",
      "name": "removeCertificateRegistryRoot",
      "inputs": [
        {
          "name": "certificateRegistryRoot",
          "type": "bytes32",
          "internalType": "bytes32"
        }
      ],
      "outputs": [],
      "stateMutability": "nonpayable"
    },
    {
      "type": "function",
      "name": "removeVerifiers",
      "inputs": [
        {
          "name": "vkeyHashes",
          "type": "bytes32[]",
          "internalType": "bytes32[]"
        }
      ],
      "outputs": [],
      "stateMutability": "nonpayable"
    },
    {
      "type": "function",
      "name": "rootRegistry",
      "inputs": [],
      "outputs": [
        {
          "name": "",
          "type": "address",
          "internalType": "contract IRootRegistry"
        }
      ],
      "stateMutability": "view"
    },
    {
      "type": "function",
      "name": "setPaused",
      "inputs": [
        {
          "name": "_paused",
          "type": "bool",
          "internalType": "bool"
        }
      ],
      "outputs": [],
      "stateMutability": "nonpayable"
    },
    {
      "type": "function",
      "name": "transferAdmin",
      "inputs": [
        {
          "name": "newAdmin",
          "type": "address",
          "internalType": "address"
        }
      ],
      "outputs": [],
      "stateMutability": "nonpayable"
    },
    {
      "type": "function",
      "name": "updateRootRegistry",
      "inputs": [
        {
          "name": "_rootRegistry",
          "type": "address",
          "internalType": "address"
        }
      ],
      "outputs": [],
      "stateMutability": "nonpayable"
    },
    {
      "type": "function",
      "name": "verifyProof",
      "inputs": [
        {
          "name": "params",
          "type": "tuple",
          "internalType": "struct ProofVerificationParams",
          "components": [
            {
              "name": "vkeyHash",
              "type": "bytes32",
              "internalType": "bytes32"
            },
            {
              "name": "proof",
              "type": "bytes",
              "internalType": "bytes"
            },
            {
              "name": "publicInputs",
              "type": "bytes32[]",
              "internalType": "bytes32[]"
            },
            {
              "name": "committedInputs",
              "type": "bytes",
              "internalType": "bytes"
            },
            {
              "name": "committedInputCounts",
              "type": "uint256[]",
              "internalType": "uint256[]"
            },
            {
              "name": "validityPeriodInDays",
              "type": "uint256",
              "internalType": "uint256"
            },
            {
              "name": "scope",
              "type": "string",
              "internalType": "string"
            },
            {
              "name": "subscope",
              "type": "string",
              "internalType": "string"
            }
          ]
        }
      ],
      "outputs": [
        {
          "name": "",
          "type": "bool",
          "internalType": "bool"
        },
        {
          "name": "",
          "type": "bytes32",
          "internalType": "bytes32"
        }
      ],
      "stateMutability": "view"
    },
    {
      "type": "function",
      "name": "verifyScopes",
      "inputs": [
        {
          "name": "publicInputs",
          "type": "bytes32[]",
          "internalType": "bytes32[]"
        },
        {
          "name": "scope",
          "type": "string",
          "internalType": "string"
        },
        {
          "name": "subscope",
          "type": "string",
          "internalType": "string"
        }
      ],
      "outputs": [
        {
          "name": "",
          "type": "bool",
          "internalType": "bool"
        }
      ],
      "stateMutability": "pure"
    },
    {
      "type": "function",
      "name": "vkeyHashToVerifier",
      "inputs": [
        {
          "name": "",
          "type": "bytes32",
          "internalType": "bytes32"
        }
      ],
      "outputs": [
        {
          "name": "",
          "type": "address",
          "internalType": "address"
        }
      ],
      "stateMutability": "view"
    },
    {
      "type": "event",
      "name": "AdminUpdated",
      "inputs": [
        {
          "name": "oldAdmin",
          "type": "address",
          "indexed": true,
          "internalType": "address"
        },
        {
          "name": "newAdmin",
          "type": "address",
          "indexed": true,
          "internalType": "address"
        }
      ],
      "anonymous": false
    },
    {
      "type": "event",
      "name": "CertificateRegistryRootAdded",
      "inputs": [
        {
          "name": "certificateRegistryRoot",
          "type": "bytes32",
          "indexed": true,
          "internalType": "bytes32"
        }
      ],
      "anonymous": false
    },
    {
      "type": "event",
      "name": "CertificateRegistryRootRemoved",
      "inputs": [
        {
          "name": "certificateRegistryRoot",
          "type": "bytes32",
          "indexed": true,
          "internalType": "bytes32"
        }
      ],
      "anonymous": false
    },
    {
      "type": "event",
      "name": "PausedStatusChanged",
      "inputs": [
        {
          "name": "paused",
          "type": "bool",
          "indexed": false,
          "internalType": "bool"
        }
      ],
      "anonymous": false
    },
    {
      "type": "event",
      "name": "VerifierAdded",
      "inputs": [
        {
          "name": "vkeyHash",
          "type": "bytes32",
          "indexed": true,
          "internalType": "bytes32"
        },
        {
          "name": "verifier",
          "type": "address",
          "indexed": true,
          "internalType": "address"
        }
      ],
      "anonymous": false
    },
    {
      "type": "event",
      "name": "VerifierRemoved",
      "inputs": [
        {
          "name": "vkeyHash",
          "type": "bytes32",
          "indexed": true,
          "internalType": "bytes32"
        }
      ],
      "anonymous": false
    },
    {
      "type": "event",
      "name": "ZKPassportVerifierDeployed",
      "inputs": [
        {
          "name": "admin",
          "type": "address",
          "indexed": true,
          "internalType": "address"
        },
        {
          "name": "timestamp",
          "type": "uint256",
          "indexed": false,
          "internalType": "uint256"
        }
      ],
      "anonymous": false
    }
  ],
  "bytecode": {
    "object": "0x608060405234801561000f575f5ffd5b50604051612a3e380380612a3e83398101604081905261002e916100f6565b6001600160a01b0381166100945760405162461bcd60e51b8152602060048201526024808201527f526f6f742072656769737472792063616e6e6f74206265207a65726f206164646044820152637265737360e01b606482015260840160405180910390fd5b5f8054336001600160a01b03199182168117909255600380549091166001600160a01b0384161790556040514281527ff29b53747ae7121d0958d490ad3d5cf6767119b0fdbd8389d918de3a12cf5a299060200160405180910390a250610123565b5f60208284031215610106575f5ffd5b81516001600160a01b038116811461011c575f5ffd5b9392505050565b61290e806101305f395ff3fe608060405234801561000f575f5ffd5b5060043610610132575f3560e01c806375829def116100b4578063a6df2c0111610079578063a6df2c01146102da578063b2b37a4c146102ed578063b96b161c1461031f578063ddf3eec914610332578063ec1374cd14610353578063f851a44014610381575f5ffd5b806375829def1461024e5780638163f23114610261578063847755e3146102a1578063886c3533146102b45780638d6937b8146102c7575f5ffd5b80633a316e62116100fa5780633a316e62146101d857806341a0e2c2146101eb57806345e21c90146102015780635c975abb146102335780636c40d5d614610246575f5ffd5b806303d37eae14610136578063126f75591461016657806316c38b3c1461018657806318677f2a1461019b57806333fbc14d146101ae575b5f5ffd5b6101496101443660046121d8565b610393565b60405161015d989796959493929190612258565b60405180910390f35b610179610174366004612345565b6108fe565b60405161015d91906123c9565b61019961019436600461242c565b610b42565b005b6101996101a936600461244e565b610bc2565b6101c16101bc366004612474565b610c6f565b60408051921515835260208301919091520161015d565b6101996101e63660046124ab565b610f7f565b6101f3600181565b60405190815260200161015d565b61022361020f3660046124ab565b60026020525f908152604090205460ff1681565b604051901515815260200161015d565b5f5461022390600160a01b900460ff1681565b6101f3600281565b61019961025c36600461244e565b610fea565b61028961026f3660046124ab565b60016020525f90815260409020546001600160a01b031681565b6040516001600160a01b03909116815260200161015d565b6102236102af3660046124c2565b6110b8565b6101996102c23660046124ab565b611280565b6101996102d536600461255e565b6112e8565b6101996102e836600461259c565b6113a8565b6103006102fb366004612606565b6114d2565b6040805193845260ff928316602085015291169082015260600161015d565b600354610289906001600160a01b031681565b610345610340366004612606565b6116ae565b60405161015d92919061263a565b610366610361366004612345565b61188d565b6040805193845260208401929092529082015260600161015d565b5f54610289906001600160a01b031681565b6060806060806060806060808861064d578a60058b6103b3826027612672565b926103c093929190612685565b8080601f0160208091040260200160405190810160405280939291908181526020018383808284375f92019190915250929a508d9250600291508c9050610408826003612672565b9261041593929190612685565b8080601f0160208091040260200160405190810160405280939291908181526020018383808284375f920191909152509299508d9250603691508c905061045d826003612672565b9261046a93929190612685565b8080601f0160208091040260200160405190810160405280939291908181526020018383808284375f920191909152509298508d9250604091508c90506104b2826001612672565b926104bf93929190612685565b8080601f0160208091040260200160405190810160405280939291908181526020018383808284375f920191909152509297508d9250603991508c9050610507826006612672565b9261051493929190612685565b8080601f0160208091040260200160405190810160405280939291908181526020018383808284375f920191909152509296508d9250604191508c905061055c826006612672565b9261056993929190612685565b8080601f0160208091040260200160405190810160405280939291908181526020018383808284375f920191909152509295508d9250602c91508c90506105b1826009612672565b926105be93929190612685565b8080601f0160208091040260200160405190810160405280939291908181526020018383808284375f9201829052509395508e9392508d91506106049050826002612672565b9261061193929190612685565b8080601f0160208091040260200160405190810160405280939291908181526020018383808284375f920191909152509293506108f192505050565b8a603c8b61065c82601e612672565b9261066993929190612685565b8080601f0160208091040260200160405190810160405280939291908181526020018383808284375f92019190915250929a508d9250600291508c90506106b1826003612672565b926106be93929190612685565b8080601f0160208091040260200160405190810160405280939291908181526020018383808284375f920191909152509299508d9250602d91508c9050610706826003612672565b9261071393929190612685565b8080601f0160208091040260200160405190810160405280939291908181526020018383808284375f920191909152509298508d9250602591508c905061075b826001612672565b9261076893929190612685565b8080601f0160208091040260200160405190810160405280939291908181526020018383808284375f920191909152509297508d9250601e91508c90506107b0826006612672565b926107bd93929190612685565b8080601f0160208091040260200160405190810160405280939291908181526020018383808284375f920191909152509296508d9250602691508c9050610805826006612672565b9261081293929190612685565b8080601f0160208091040260200160405190810160405280939291908181526020018383808284375f920191909152509295508d9250600591508c905061085a826009612672565b9261086793929190612685565b8080601f0160208091040260200160405190810160405280939291908181526020018383808284375f9201829052509395508e9392508d91506108ad9050826002612672565b926108ba93929190612685565b8080601f0160208091040260200160405190810160405280939291908181526020018383808284375f920191909152509293505050505b9397509397509397509397565b60605f80805b85811015610ae45786868281811061091e5761091e6126ac565b905060200201356102591480156109775750846007811115610942576109426126c0565b60f81b6001600160f81b031916898985818110610961576109616126ac565b9050013560f81c60f81b6001600160f81b031916145b15610ab6576040805160c8808252611920820190925290816020015b60608152602001906001900390816109935790505093505f5b60c8811015610ab05789896109c28360036126d4565b6109cc9087612672565b6109d7906001612672565b8181106109e6576109e66126ac565b909101356001600160f81b031916159050610ab0578989610a088360036126d4565b610a129087612672565b610a1d906001612672565b90610a298460036126d4565b610a339088612672565b610a3e906003612672565b610a49906001612672565b92610a5693929190612685565b8080601f0160208091040260200160405190810160405280939291908181526020018383808284375f920191909152505087518892508491508110610a9d57610a9d6126ac565b60209081029190910101526001016109ac565b50600191505b868682818110610ac857610ac86126ac565b9050602002013583610ada9190612672565b9250600101610904565b5080610b375760405162461bcd60e51b815260206004820152601e60248201527f436f756e7472792070726f6f6620696e70757473206e6f7420666f756e64000060448201526064015b60405180910390fd5b505095945050505050565b5f546001600160a01b03163314610b6b5760405162461bcd60e51b8152600401610b2e906126eb565b5f8054821515600160a01b0260ff60a01b199091161790556040517f9a506b30e47f3823b09f67e4c0dfa5c3d8023b71825b7ceaa97677129128c9c590610bb790831515815260200190565b60405180910390a150565b5f546001600160a01b03163314610beb5760405162461bcd60e51b8152600401610b2e906126eb565b6001600160a01b038116610c4d5760405162461bcd60e51b8152602060048201526024808201527f526f6f742072656769737472792063616e6e6f74206265207a65726f206164646044820152637265737360e01b6064820152608401610b2e565b600380546001600160a01b0319166001600160a01b0392909216919091179055565b5f80548190600160a01b900460ff1615610cc05760405162461bcd60e51b815260206004820152601260248201527110dbdb9d1c9858dd081a5cc81c185d5cd95960721b6044820152606401610b2e565b5f610ccb84356119e7565b90505f6010610cdd6040870187612722565b610ce8929150612767565b9050610d16610cfa6040870187612722565b5f818110610d0a57610d0a6126ac565b90506020020135611a46565b610d60610d266040870187612722565b808060200260200160405190810160405280939291908181526020018383602002808284375f9201919091525050505060a0870135611b28565b610dac5760405162461bcd60e51b815260206004820181905260248201527f50726f6f662065787069726564206f72206461746520697320696e76616c69646044820152606401610b2e565b610dd6610dbc6040870187612722565b610dc960c089018961277a565b6102af60e08b018b61277a565b610e135760405162461bcd60e51b815260206004820152600e60248201526d496e76616c69642073636f70657360901b6044820152606401610b2e565b610ebf610e236040870187612722565b600b90610e31600186612767565b92610e3e939291906127bc565b808060200260200160405190810160405280939291908181526020018383602002808284375f92019190915250610e7c92505050606088018861277a565b610e8960808a018a612722565b808060200260200160405190810160405280939291908181526020018383602002808284375f92019190915250611bc492505050565b6001600160a01b03821663ea50d0e4610edb602088018861277a565b610ee860408a018a612722565b6040518563ffffffff1660e01b8152600401610f0794939291906127e7565b602060405180830381865afa158015610f22573d5f5f3e3d5ffd5b505050506040513d601f19601f82011682018060405250810190610f469190612849565b610f536040870187612722565b610f5e600185612767565b818110610f6d57610f6d6126ac565b90506020020135935093505050915091565b5f546001600160a01b03163314610fa85760405162461bcd60e51b8152600401610b2e906126eb565b5f81815260026020526040808220805460ff191660011790555182917f28b645e250fa5c9d240590b408225ec310e29b861312e75a76b0d55f7d927a2f91a250565b5f546001600160a01b031633146110135760405162461bcd60e51b8152600401610b2e906126eb565b6001600160a01b0381166110695760405162461bcd60e51b815260206004820152601c60248201527f41646d696e2063616e6e6f74206265207a65726f2061646472657373000000006044820152606401610b2e565b5f80546001600160a01b038381166001600160a01b0319831681178455604051919092169283917f101b8081ff3b56bbf45deb824d86a3b0fd38b7e3dd42421105cf8abe9106db0b9190a35050565b5f5f6110f886868080601f0160208091040260200160405190810160405280939291908181526020018383808284375f92019190915250611d0d92505050565b61117257600860028787604051602001611113929190612864565b60408051601f198184030181529082905261112d91612873565b602060405180830381855afa158015611148573d5f5f3e3d5ffd5b5050506040513d601f19601f8201168201806040525081019061116b9190612889565b901c611174565b5f5b90505f6111b585858080601f0160208091040260200160405190810160405280939291908181526020018383808284375f92019190915250611d0d92505050565b61122f576008600286866040516020016111d0929190612864565b60408051601f19818403018152908290526111ea91612873565b602060405180830381855afa158015611205573d5f5f3e3d5ffd5b5050506040513d601f19601f820116820180604052508101906112289190612889565b901c611231565b5f5b90508189896009818110611247576112476126ac565b905060200201351480156112735750808989600a81811061126a5761126a6126ac565b90506020020135145b9998505050505050505050565b5f546001600160a01b031633146112a95760405162461bcd60e51b8152600401610b2e906126eb565b5f81815260026020526040808220805460ff191690555182917fc4da3a189adfa305afb4c073f96be9bd96f1ebea4e42a5e7e2e98818509a682791a250565b5f546001600160a01b031633146113115760405162461bcd60e51b8152600401610b2e906126eb565b5f5b818110156113a35760015f848484818110611330576113306126ac565b602090810292909201358352508101919091526040015f2080546001600160a01b0319169055828282818110611368576113686126ac565b905060200201357f6fdcbcf8f91bc23f2c9dcfe8fe01d80d1b1afbbf207298e94c0171ccc587424c60405160405180910390a2600101611313565b505050565b5f546001600160a01b031633146113d15760405162461bcd60e51b8152600401610b2e906126eb565b5f5b838110156114cb578282828181106113ed576113ed6126ac565b9050602002016020810190611402919061244e565b60015f878785818110611417576114176126ac565b9050602002013581526020019081526020015f205f6101000a8154816001600160a01b0302191690836001600160a01b03160217905550828282818110611460576114606126ac565b9050602002016020810190611475919061244e565b6001600160a01b0316858583818110611490576114906126ac565b905060200201357f636107338a3eb46f1f60562462f3ec11393d35fbc965991aaade3b9e7d89c3f560405160405180910390a36001016113d3565b5050505050565b5f80808080805b86811015611654578787828181106114f3576114f36126ac565b90506020020135600b0361162657600160f81b8a8a85818110611518576115186126ac565b9050013560f81c60f81b6001600160f81b0319161461156e5760405162461bcd60e51b8152602060048201526012602482015271496e76616c69642070726f6f66207479706560701b6044820152606401610b2e565b6115d08a8a61157e866001612672565b9061158a876009612672565b9261159793929190612685565b8080601f0160208091040260200160405190810160405280939291908181526020018383808284375f92019190915250611d1292505050565b955089896115df856009612672565b8181106115ee576115ee6126ac565b919091013560f81c95508a90508961160785600a612672565b818110611616576116166126ac565b919091013560f81c945060019250505b878782818110611638576116386126ac565b905060200201358361164a9190612672565b92506001016114d9565b50806116a25760405162461bcd60e51b815260206004820152601a60248201527f4167652070726f6f6620696e70757473206e6f7420666f756e640000000000006044820152606401610b2e565b50509450945094915050565b6060805f80805b85811015611834578686828181106116cf576116cf6126ac565b9050602002013560b503611806575f8989858181106116f0576116f06126ac565b9050013560f81c60f81b6001600160f81b031916146117465760405162461bcd60e51b8152602060048201526012602482015271496e76616c69642070726f6f66207479706560701b6044820152606401610b2e565b8888611753856001612672565b9061175f86605b612672565b9261176c93929190612685565b8080601f0160208091040260200160405190810160405280939291908181526020018383808284375f920191909152509297508b92508a91506117b2905085605b612672565b906117be8660b5612672565b926117cb93929190612685565b8080601f0160208091040260200160405190810160405280939291908181526020018383808284375f92019190915250929650600194505050505b868682818110611818576118186126ac565b905060200201358361182a9190612672565b92506001016116b5565b50806118825760405162461bcd60e51b815260206004820152601f60248201527f446973636c6f73652070726f6f6620696e70757473206e6f7420666f756e64006044820152606401610b2e565b505094509492505050565b5f80808080805b8781101561198c578888828181106118ae576118ae6126ac565b90506020020135601914801561190657508660078111156118d1576118d16126c0565b60f81b6001600160f81b0319168b8b858181106118f0576118f06126ac565b9050013560f81c60f81b6001600160f81b031916145b1561195e5761191b8b8b61157e866001612672565b95506119398b8b61192d866009612672565b9061158a876011612672565b94506119578b8b61194b866011612672565b9061158a876019612672565b9350600191505b888882818110611970576119706126ac565b90506020020135836119829190612672565b9250600101611894565b50806119da5760405162461bcd60e51b815260206004820152601b60248201527f446174652070726f6f6620696e70757473206e6f7420666f756e6400000000006044820152606401610b2e565b5050955095509592505050565b5f818152600160205260408120546001600160a01b031680611a405760405162461bcd60e51b815260206004820152601260248201527115995c9a599a595c881b9bdd08199bdd5b9960721b6044820152606401610b2e565b92915050565b5f8181526002602052604090205460ff1680611acf57506003546040516383578c1160e01b815260016004820152602481018390526001600160a01b03909116906383578c1190604401602060405180830381865afa158015611aab573d5f5f3e3d5ffd5b505050506040513d601f19601f82011682018060405250810190611acf9190612849565b611b255760405162461bcd60e51b815260206004820152602160248201527f496e76616c696420636572746966696361746520726567697374727920726f6f6044820152601d60fa1b6064820152608401610b2e565b50565b6040805160088082528183019092525f9182919060208201818036833701905050905060015b6009811015611bb15760f8858281518110611b6b57611b6b6126ac565b6020026020010151901b82600183611b839190612767565b81518110611b9357611b936126ac565b60200101906001600160f81b03191690815f1a905350600101611b4e565b50611bbc8184612021565b949350505050565b5f805b8251811015611d05575f6008600287878690888781518110611beb57611beb6126ac565b602002602001015188611bfe9190612672565b92611c0b93929190612685565b604051602001611c1c929190612864565b60408051601f1981840301815290829052611c3691612873565b602060405180830381855afa158015611c51573d5f5f3e3d5ffd5b5050506040513d601f19601f82011682018060405250810190611c749190612889565b901c9050868281518110611c8a57611c8a6126ac565b60200260200101518114611cd55760405162461bcd60e51b8152602060048201526012602482015271125b9d985b1a590818dbdb5b5a5d1b595b9d60721b6044820152606401610b2e565b838281518110611ce757611ce76126ac565b602002602001015183611cfa9190612672565b925050600101611bc7565b505050505050565b511590565b604080518082019091526008815267313131313131313160c01b6020918201528151908201205f907fc21a5c94d030b6b0ea6834442967d237d4cc49a2b74bbb3846572bb3c8021a3001611d6757505f919050565b5f611d9283600381518110611d7e57611d7e6126ac565b01602001516001600160f81b03191661206b565b611da884600281518110611d7e57611d7e6126ac565b611db390600a6126d4565b611dc985600181518110611d7e57611d7e6126ac565b611dd49060646126d4565b611de9865f81518110611d7e57611d7e6126ac565b611df5906103e86126d4565b611dff9190612672565b611e099190612672565b611e139190612672565b90505f611e2c84600581518110611d7e57611d7e6126ac565b611e4285600481518110611d7e57611d7e6126ac565b611e4d90600a6126d4565b611e579190612672565b90505f611e7085600781518110611d7e57611d7e6126ac565b611e8686600681518110611d7e57611d7e6126ac565b611e9190600a6126d4565b611e9b9190612672565b90506107b2831015611ee85760405162461bcd60e51b81526020600482015260166024820152750b2cac2e440c4caccdee4ca40aa9c92b040cae0dec6d60531b6044820152606401610b2e565b60018210158015611efa5750600c8211155b611f365760405162461bcd60e51b815260206004820152600d60248201526c092dcecc2d8d2c840dadedce8d609b1b6044820152606401610b2e565b60018110158015611f505750611f4c8284612084565b8111155b611f8a5760405162461bcd60e51b815260206004820152600b60248201526a496e76616c69642064617960a81b6044820152606401610b2e565b5f6107b25b84811015611fc857611fa081612137565b611fac5761016d611fb0565b61016e5b611fbe9061ffff1683612672565b9150600101611f8f565b5060015b83811015611ff257611fde8186612084565b611fe89083612672565b9150600101611fcc565b50611ffe600183612767565b6120089082612672565b905061201762015180826126d4565b9695505050505050565b5f5f61202c84611d12565b90505f61203c62015180856126d4565b6120469083612672565b905081421015801561205757508181115b801561206257504281115b95945050505050565b5f61207b603060f884901c6128a0565b60ff1692915050565b5f600183101580156120975750600c8311155b6120d35760405162461bcd60e51b815260206004820152600d60248201526c092dcecc2d8d2c840dadedce8d609b1b6044820152606401610b2e565b826002036120fc576120e482612137565b6120ef57601c6120f2565b601d5b60ff169050611a40565b826004148061210b5750826006145b806121165750826009145b80612121575082600b145b1561212e5750601e611a40565b50601f92915050565b5f6121436004836128b9565b1561214f57505f919050565b61215a6064836128b9565b1561216757506001919050565b612173610190836128b9565b1561217f57505f919050565b506001919050565b5f5f83601f840112612197575f5ffd5b5081356001600160401b038111156121ad575f5ffd5b6020830191508360208285010111156121c4575f5ffd5b9250929050565b8015158114611b25575f5ffd5b5f5f5f604084860312156121ea575f5ffd5b83356001600160401b038111156121ff575f5ffd5b61220b86828701612187565b909450925050602084013561221f816121cb565b809150509250925092565b5f81518084528060208401602086015e5f602082860101526020601f19601f83011685010191505092915050565b61010081525f61226c61010083018b61222a565b828103602084015261227e818b61222a565b90508281036040840152612292818a61222a565b905082810360608401526122a6818961222a565b905082810360808401526122ba818861222a565b905082810360a08401526122ce818761222a565b905082810360c08401526122e2818661222a565b905082810360e08401526122f6818561222a565b9b9a5050505050505050505050565b5f5f83601f840112612315575f5ffd5b5081356001600160401b0381111561232b575f5ffd5b6020830191508360208260051b85010111156121c4575f5ffd5b5f5f5f5f5f60608688031215612359575f5ffd5b85356001600160401b0381111561236e575f5ffd5b61237a88828901612187565b90965094505060208601356001600160401b03811115612398575f5ffd5b6123a488828901612305565b9094509250506040860135600881106123bb575f5ffd5b809150509295509295909350565b5f602082016020835280845180835260408501915060408160051b8601019250602086015f5b8281101561242057603f1987860301845261240b85835161222a565b945060209384019391909101906001016123ef565b50929695505050505050565b5f6020828403121561243c575f5ffd5b8135612447816121cb565b9392505050565b5f6020828403121561245e575f5ffd5b81356001600160a01b0381168114612447575f5ffd5b5f60208284031215612484575f5ffd5b81356001600160401b03811115612499575f5ffd5b82016101008185031215612447575f5ffd5b5f602082840312156124bb575f5ffd5b5035919050565b5f5f5f5f5f5f606087890312156124d7575f5ffd5b86356001600160401b038111156124ec575f5ffd5b6124f889828a01612305565b90975095505060208701356001600160401b03811115612516575f5ffd5b61252289828a01612187565b90955093505060408701356001600160401b03811115612540575f5ffd5b61254c89828a01612187565b979a9699509497509295939492505050565b5f5f6020838503121561256f575f5ffd5b82356001600160401b03811115612584575f5ffd5b61259085828601612305565b90969095509350505050565b5f5f5f5f604085870312156125af575f5ffd5b84356001600160401b038111156125c4575f5ffd5b6125d087828801612305565b90955093505060208501356001600160401b038111156125ee575f5ffd5b6125fa87828801612305565b95989497509550505050565b5f5f5f5f60408587031215612619575f5ffd5b84356001600160401b0381111561262e575f5ffd5b6125d087828801612187565b604081525f61264c604083018561222a565b8281036020840152612062818561222a565b634e487b7160e01b5f52601160045260245ffd5b80820180821115611a4057611a4061265e565b5f5f85851115612693575f5ffd5b8386111561269f575f5ffd5b5050820193919092039150565b634e487b7160e01b5f52603260045260245ffd5b634e487b7160e01b5f52602160045260245ffd5b8082028115828204841417611a4057611a4061265e565b6020808252601a908201527f4e6f7420617574686f72697a65643a2061646d696e206f6e6c79000000000000604082015260600190565b5f5f8335601e19843603018112612737575f5ffd5b8301803591506001600160401b03821115612750575f5ffd5b6020019150600581901b36038213156121c4575f5ffd5b81810381811115611a4057611a4061265e565b5f5f8335601e1984360301811261278f575f5ffd5b8301803591506001600160401b038211156127a8575f5ffd5b6020019150368190038213156121c4575f5ffd5b5f5f858511156127ca575f5ffd5b838611156127d6575f5ffd5b5050600583901b0193919092039150565b60408152836040820152838560608301375f60608583018101829052601f19601f8701168301838103820160208501529081018490526001600160fb1b03841115612830575f5ffd5b8360051b80866080840137016080019695505050505050565b5f60208284031215612859575f5ffd5b8151612447816121cb565b818382375f9101908152919050565b5f82518060208501845e5f920191825250919050565b5f60208284031215612899575f5ffd5b5051919050565b60ff8281168282160390811115611a4057611a4061265e565b5f826128d357634e487b7160e01b5f52601260045260245ffd5b50069056fea26469706673582212203e535c5ef3f9054e481c8de737261607f61763c33dd4cd5066ddadfb50e0539664736f6c634300081d0033",
    "linkReferences": {}
  },
  "methodIdentifiers": {
    "CERTIFICATE_REGISTRY_ID()": "41a0e2c2",
    "CIRCUIT_REGISTRY_ID()": "6c40d5d6",
    "addCertificateRegistryRoot(bytes32)": "3a316e62",
    "addVerifiers(bytes32[],address[])": "a6df2c01",
    "admin()": "f851a440",
    "getAgeProofInputs(bytes,uint256[])": "b2b37a4c",
    "getCountryProofInputs(bytes,uint256[],uint8)": "126f7559",
    "getDateProofInputs(bytes,uint256[],uint8)": "ec1374cd",
    "getDiscloseProofInputs(bytes,uint256[])": "ddf3eec9",
    "getDisclosedData(bytes,bool)": "03d37eae",
    "isValidCertificateRegistryRoot(bytes32)": "45e21c90",
    "paused()": "5c975abb",
    "removeCertificateRegistryRoot(bytes32)": "886c3533",
    "removeVerifiers(bytes32[])": "8d6937b8",
    "rootRegistry()": "b96b161c",
    "setPaused(bool)": "16c38b3c",
    "transferAdmin(address)": "75829def",
    "updateRootRegistry(address)": "18677f2a",
    "verifyProof((bytes32,bytes,bytes32[],bytes,uint256[],uint256,string,string))": "33fbc14d",
    "verifyScopes(bytes32[],string,string)": "847755e3",
    "vkeyHashToVerifier(bytes32)": "8163f231"
  },
  "id": 34
}